{
  "contractName": "Events",
  "abi": [
    {
      "inputs": [],
      "name": "getEventIDList",
      "outputs": [
        {
          "internalType": "string[]",
          "name": "",
          "type": "string[]"
        }
      ],
      "stateMutability": "view",
      "type": "function",
      "constant": true
    },
    {
      "inputs": [
        {
          "internalType": "string",
          "name": "tempEventID",
          "type": "string"
        }
      ],
      "name": "checkEventIDExistance",
      "outputs": [
        {
          "internalType": "bool",
          "name": "",
          "type": "bool"
        }
      ],
      "stateMutability": "view",
      "type": "function",
      "constant": true
    },
    {
      "inputs": [
        {
          "internalType": "string",
          "name": "_eventId",
          "type": "string"
        },
        {
          "internalType": "string",
          "name": "_venueId",
          "type": "string"
        },
        {
          "internalType": "string",
          "name": "_eventName",
          "type": "string"
        },
        {
          "internalType": "string",
          "name": "_eventType",
          "type": "string"
        },
        {
          "internalType": "string",
          "name": "_description",
          "type": "string"
        },
        {
          "internalType": "uint256",
          "name": "_eventPhoneNo",
          "type": "uint256"
        },
        {
          "internalType": "uint256",
          "name": "_eventDate",
          "type": "uint256"
        },
        {
          "internalType": "string",
          "name": "_eventPhotoAddress",
          "type": "string"
        }
      ],
      "name": "createEventLocked",
      "outputs": [
        {
          "internalType": "string",
          "name": "",
          "type": "string"
        }
      ],
      "stateMutability": "nonpayable",
      "type": "function"
    },
    {
      "inputs": [
        {
          "internalType": "string",
          "name": "_eventId",
          "type": "string"
        },
        {
          "internalType": "uint256",
          "name": "_normalPrice",
          "type": "uint256"
        },
        {
          "internalType": "uint256",
          "name": "_vipPrice",
          "type": "uint256"
        },
        {
          "internalType": "uint256",
          "name": "_vipTickets",
          "type": "uint256"
        },
        {
          "internalType": "uint256",
          "name": "_normaltickets",
          "type": "uint256"
        },
        {
          "internalType": "uint256",
          "name": "_age",
          "type": "uint256"
        }
      ],
      "name": "createEvent2Locked",
      "outputs": [
        {
          "internalType": "string",
          "name": "",
          "type": "string"
        }
      ],
      "stateMutability": "nonpayable",
      "type": "function"
    },
    {
      "inputs": [
        {
          "internalType": "string",
          "name": "_eventId",
          "type": "string"
        },
        {
          "internalType": "uint128",
          "name": "_telebirrAccount",
          "type": "uint128"
        },
        {
          "internalType": "uint128",
          "name": "_chapaAccount",
          "type": "uint128"
        },
        {
          "internalType": "uint128",
          "name": "_cbeAccount",
          "type": "uint128"
        }
      ],
      "name": "addPaymentDetails",
      "outputs": [],
      "stateMutability": "nonpayable",
      "type": "function"
    },
    {
      "inputs": [
        {
          "internalType": "string",
          "name": "_eventId",
          "type": "string"
        },
        {
          "internalType": "string",
          "name": "_staffUsername",
          "type": "string"
        },
        {
          "internalType": "string",
          "name": "_staffPassword",
          "type": "string"
        }
      ],
      "name": "createStaff",
      "outputs": [],
      "stateMutability": "nonpayable",
      "type": "function"
    },
    {
      "inputs": [
        {
          "internalType": "string",
          "name": "_venueId",
          "type": "string"
        }
      ],
      "name": "checkVenueRequest",
      "outputs": [
        {
          "internalType": "string[]",
          "name": "",
          "type": "string[]"
        }
      ],
      "stateMutability": "view",
      "type": "function",
      "constant": true
    },
    {
      "inputs": [
        {
          "internalType": "string",
          "name": "_eventId",
          "type": "string"
        },
        {
          "internalType": "string",
          "name": "_status",
          "type": "string"
        }
      ],
      "name": "eventPay",
      "outputs": [],
      "stateMutability": "nonpayable",
      "type": "function"
    },
    {
      "inputs": [
        {
          "internalType": "string",
          "name": "tempEventID",
          "type": "string"
        }
      ],
      "name": "getEvent1Locked",
      "outputs": [
        {
          "components": [
            {
              "internalType": "string",
              "name": "eventId",
              "type": "string"
            },
            {
              "internalType": "address",
              "name": "owner",
              "type": "address"
            },
            {
              "internalType": "string",
              "name": "venueId",
              "type": "string"
            },
            {
              "internalType": "string",
              "name": "eventName",
              "type": "string"
            },
            {
              "internalType": "string",
              "name": "eventType",
              "type": "string"
            },
            {
              "internalType": "string",
              "name": "description",
              "type": "string"
            },
            {
              "internalType": "uint256",
              "name": "eventPhoneNo",
              "type": "uint256"
            },
            {
              "internalType": "string",
              "name": "status",
              "type": "string"
            },
            {
              "internalType": "string",
              "name": "eventPhotoAddress",
              "type": "string"
            },
            {
              "internalType": "uint256",
              "name": "eventDate",
              "type": "uint256"
            },
            {
              "internalType": "uint256",
              "name": "dateCreated",
              "type": "uint256"
            },
            {
              "internalType": "uint256",
              "name": "dateModified",
              "type": "uint256"
            }
          ],
          "internalType": "struct Events.EventLocked",
          "name": "",
          "type": "tuple"
        }
      ],
      "stateMutability": "view",
      "type": "function",
      "constant": true
    },
    {
      "inputs": [
        {
          "internalType": "string",
          "name": "tempEventID",
          "type": "string"
        }
      ],
      "name": "getEvent2Locked",
      "outputs": [
        {
          "components": [
            {
              "internalType": "string",
              "name": "eventId",
              "type": "string"
            },
            {
              "internalType": "uint256",
              "name": "normalPrice",
              "type": "uint256"
            },
            {
              "internalType": "uint256",
              "name": "vipPrice",
              "type": "uint256"
            },
            {
              "internalType": "uint256",
              "name": "vipTickets",
              "type": "uint256"
            },
            {
              "internalType": "uint256",
              "name": "normalTickets",
              "type": "uint256"
            },
            {
              "internalType": "uint256",
              "name": "age",
              "type": "uint256"
            },
            {
              "internalType": "string",
              "name": "staffUsername",
              "type": "string"
            },
            {
              "internalType": "string",
              "name": "staffPassword",
              "type": "string"
            }
          ],
          "internalType": "struct Events.EventTicketsDetail",
          "name": "",
          "type": "tuple"
        }
      ],
      "stateMutability": "view",
      "type": "function",
      "constant": true
    },
    {
      "inputs": [
        {
          "internalType": "string",
          "name": "tempEventID",
          "type": "string"
        }
      ],
      "name": "getEvent3Locked",
      "outputs": [
        {
          "components": [
            {
              "internalType": "string",
              "name": "eventId",
              "type": "string"
            },
            {
              "internalType": "uint128",
              "name": "telebirrAccount",
              "type": "uint128"
            },
            {
              "internalType": "uint128",
              "name": "chapaAccount",
              "type": "uint128"
            },
            {
              "internalType": "uint128",
              "name": "cbeAccount",
              "type": "uint128"
            }
          ],
          "internalType": "struct Events.PaymentDetails",
          "name": "",
          "type": "tuple"
        }
      ],
      "stateMutability": "view",
      "type": "function",
      "constant": true
    },
    {
      "inputs": [],
      "name": "getAllEvents1Locked",
      "outputs": [
        {
          "components": [
            {
              "internalType": "string",
              "name": "eventId",
              "type": "string"
            },
            {
              "internalType": "address",
              "name": "owner",
              "type": "address"
            },
            {
              "internalType": "string",
              "name": "venueId",
              "type": "string"
            },
            {
              "internalType": "string",
              "name": "eventName",
              "type": "string"
            },
            {
              "internalType": "string",
              "name": "eventType",
              "type": "string"
            },
            {
              "internalType": "string",
              "name": "description",
              "type": "string"
            },
            {
              "internalType": "uint256",
              "name": "eventPhoneNo",
              "type": "uint256"
            },
            {
              "internalType": "string",
              "name": "status",
              "type": "string"
            },
            {
              "internalType": "string",
              "name": "eventPhotoAddress",
              "type": "string"
            },
            {
              "internalType": "uint256",
              "name": "eventDate",
              "type": "uint256"
            },
            {
              "internalType": "uint256",
              "name": "dateCreated",
              "type": "uint256"
            },
            {
              "internalType": "uint256",
              "name": "dateModified",
              "type": "uint256"
            }
          ],
          "internalType": "struct Events.EventLocked[]",
          "name": "",
          "type": "tuple[]"
        }
      ],
      "stateMutability": "view",
      "type": "function",
      "constant": true
    },
    {
      "inputs": [],
      "name": "getAllEvents2Locked",
      "outputs": [
        {
          "components": [
            {
              "internalType": "string",
              "name": "eventId",
              "type": "string"
            },
            {
              "internalType": "uint256",
              "name": "normalPrice",
              "type": "uint256"
            },
            {
              "internalType": "uint256",
              "name": "vipPrice",
              "type": "uint256"
            },
            {
              "internalType": "uint256",
              "name": "vipTickets",
              "type": "uint256"
            },
            {
              "internalType": "uint256",
              "name": "normalTickets",
              "type": "uint256"
            },
            {
              "internalType": "uint256",
              "name": "age",
              "type": "uint256"
            },
            {
              "internalType": "string",
              "name": "staffUsername",
              "type": "string"
            },
            {
              "internalType": "string",
              "name": "staffPassword",
              "type": "string"
            }
          ],
          "internalType": "struct Events.EventTicketsDetail[]",
          "name": "",
          "type": "tuple[]"
        }
      ],
      "stateMutability": "view",
      "type": "function",
      "constant": true
    },
    {
      "inputs": [],
      "name": "getOwnedEvents1Locked",
      "outputs": [
        {
          "components": [
            {
              "internalType": "string",
              "name": "eventId",
              "type": "string"
            },
            {
              "internalType": "address",
              "name": "owner",
              "type": "address"
            },
            {
              "internalType": "string",
              "name": "venueId",
              "type": "string"
            },
            {
              "internalType": "string",
              "name": "eventName",
              "type": "string"
            },
            {
              "internalType": "string",
              "name": "eventType",
              "type": "string"
            },
            {
              "internalType": "string",
              "name": "description",
              "type": "string"
            },
            {
              "internalType": "uint256",
              "name": "eventPhoneNo",
              "type": "uint256"
            },
            {
              "internalType": "string",
              "name": "status",
              "type": "string"
            },
            {
              "internalType": "string",
              "name": "eventPhotoAddress",
              "type": "string"
            },
            {
              "internalType": "uint256",
              "name": "eventDate",
              "type": "uint256"
            },
            {
              "internalType": "uint256",
              "name": "dateCreated",
              "type": "uint256"
            },
            {
              "internalType": "uint256",
              "name": "dateModified",
              "type": "uint256"
            }
          ],
          "internalType": "struct Events.EventLocked[]",
          "name": "",
          "type": "tuple[]"
        }
      ],
      "stateMutability": "view",
      "type": "function",
      "constant": true
    },
    {
      "inputs": [],
      "name": "getOwnedEvents2Locked",
      "outputs": [
        {
          "components": [
            {
              "internalType": "string",
              "name": "eventId",
              "type": "string"
            },
            {
              "internalType": "uint256",
              "name": "normalPrice",
              "type": "uint256"
            },
            {
              "internalType": "uint256",
              "name": "vipPrice",
              "type": "uint256"
            },
            {
              "internalType": "uint256",
              "name": "vipTickets",
              "type": "uint256"
            },
            {
              "internalType": "uint256",
              "name": "normalTickets",
              "type": "uint256"
            },
            {
              "internalType": "uint256",
              "name": "age",
              "type": "uint256"
            },
            {
              "internalType": "string",
              "name": "staffUsername",
              "type": "string"
            },
            {
              "internalType": "string",
              "name": "staffPassword",
              "type": "string"
            }
          ],
          "internalType": "struct Events.EventTicketsDetail[]",
          "name": "",
          "type": "tuple[]"
        }
      ],
      "stateMutability": "view",
      "type": "function",
      "constant": true
    },
    {
      "inputs": [],
      "name": "getOwnedEvents3Locked",
      "outputs": [
        {
          "components": [
            {
              "internalType": "string",
              "name": "eventId",
              "type": "string"
            },
            {
              "internalType": "address",
              "name": "owner",
              "type": "address"
            },
            {
              "internalType": "string",
              "name": "venueId",
              "type": "string"
            },
            {
              "internalType": "string",
              "name": "eventName",
              "type": "string"
            },
            {
              "internalType": "string",
              "name": "eventType",
              "type": "string"
            },
            {
              "internalType": "string",
              "name": "description",
              "type": "string"
            },
            {
              "internalType": "uint256",
              "name": "eventPhoneNo",
              "type": "uint256"
            },
            {
              "internalType": "string",
              "name": "status",
              "type": "string"
            },
            {
              "internalType": "string",
              "name": "eventPhotoAddress",
              "type": "string"
            },
            {
              "internalType": "uint256",
              "name": "eventDate",
              "type": "uint256"
            },
            {
              "internalType": "uint256",
              "name": "dateCreated",
              "type": "uint256"
            },
            {
              "internalType": "uint256",
              "name": "dateModified",
              "type": "uint256"
            }
          ],
          "internalType": "struct Events.EventLocked[]",
          "name": "",
          "type": "tuple[]"
        },
        {
          "components": [
            {
              "internalType": "string",
              "name": "eventId",
              "type": "string"
            },
            {
              "internalType": "uint256",
              "name": "normalPrice",
              "type": "uint256"
            },
            {
              "internalType": "uint256",
              "name": "vipPrice",
              "type": "uint256"
            },
            {
              "internalType": "uint256",
              "name": "vipTickets",
              "type": "uint256"
            },
            {
              "internalType": "uint256",
              "name": "normalTickets",
              "type": "uint256"
            },
            {
              "internalType": "uint256",
              "name": "age",
              "type": "uint256"
            },
            {
              "internalType": "string",
              "name": "staffUsername",
              "type": "string"
            },
            {
              "internalType": "string",
              "name": "staffPassword",
              "type": "string"
            }
          ],
          "internalType": "struct Events.EventTicketsDetail[]",
          "name": "",
          "type": "tuple[]"
        }
      ],
      "stateMutability": "view",
      "type": "function",
      "constant": true
    },
    {
      "inputs": [
        {
          "internalType": "string",
          "name": "_eventId",
          "type": "string"
        }
      ],
      "name": "returnEventAge",
      "outputs": [
        {
          "internalType": "uint256",
          "name": "",
          "type": "uint256"
        }
      ],
      "stateMutability": "view",
      "type": "function",
      "constant": true
    },
    {
      "inputs": [
        {
          "internalType": "string",
          "name": "tempEventID",
          "type": "string"
        }
      ],
      "name": "deleteEventLocked",
      "outputs": [],
      "stateMutability": "nonpayable",
      "type": "function"
    }
  ],
  "bytecode": "0x608060405234801561001057600080fd5b506153bf806100206000396000f3fe608060405234801561001057600080fd5b50600436106101165760003560e01c8063581bc764116100a25780638a61b4e0116100715780638a61b4e0146102f8578063ba9a2efc14610328578063d04ab62914610358578063f6e4f01c14610374578063ff8247c81461039057610116565b8063581bc7641461025d5780635ed5c2a51461028d578063613bce1c146102ac5780637461cb30146102dc57610116565b806337588dc7116100e957806337588dc7146101a557806337d5a6da146101d557806343f30681146101f15780634f3737031461020f578063526babe91461022d57610116565b80630d3b89a71461011b57806318b71e1a146101395780631ec37955146101695780632e800ca614610187575b600080fd5b6101236103c0565b6040516101309190614eef565b60405180910390f35b610153600480360381019061014e91906142e1565b610709565b6040516101609190614f11565b60405180910390f35b6101716107dd565b60405161017e9190614e96565b60405180910390f35b61018f610dba565b60405161019c9190614e96565b60405180910390f35b6101bf60048036038101906101ba91906145e2565b611548565b6040516101cc9190614f2c565b60405180910390f35b6101ef60048036038101906101ea919061438e565b611659565b005b6101f96116ca565b6040516102069190614e74565b60405180910390f35b6102176117a3565b6040516102249190614eef565b60405180910390f35b610247600480360381019061024291906142e1565b611ed7565b6040516102549190614ff4565b60405180910390f35b610277600480360381019061027291906142e1565b611f02565b6040516102849190614fb0565b60405180910390f35b610295612123565b6040516102a3929190614eb8565b60405180910390f35b6102c660048036038101906102c191906142e1565b612ef7565b6040516102d39190614e74565b60405180910390f35b6102f660048036038101906102f19190614567565b613111565b005b610312600480360381019061030d9190614425565b6133cc565b60405161031f9190614f2c565b60405180910390f35b610342600480360381019061033d91906142e1565b613615565b60405161034f9190614f8e565b60405180910390f35b610372600480360381019061036d91906142e1565b613aca565b005b61038e60048036038101906103899190614322565b613de3565b005b6103aa60048036038101906103a591906142e1565b613e1d565b6040516103b79190614fd2565b60405180910390f35b6060600060018054905067ffffffffffffffff811115610409577f4e487b7100000000000000000000000000000000000000000000000000000000600052604160045260246000fd5b60405190808252806020026020018201604052801561044257816020015b61042f613fc5565b8152602001906001900390816104275790505b50905060005b60018054905081101561070157600360018281548110610491577f4e487b7100000000000000000000000000000000000000000000000000000000600052603260045260246000fd5b906000526020600020016040516104a89190614e5d565b9081526020016040518091039020604051806101000160405290816000820180546104d290615242565b80601f01602080910402602001604051908101604052809291908181526020018280546104fe90615242565b801561054b5780601f106105205761010080835404028352916020019161054b565b820191906000526020600020905b81548152906001019060200180831161052e57829003601f168201915b50505050508152602001600182015481526020016002820154815260200160038201548152602001600482015481526020016005820154815260200160068201805461059690615242565b80601f01602080910402602001604051908101604052809291908181526020018280546105c290615242565b801561060f5780601f106105e45761010080835404028352916020019161060f565b820191906000526020600020905b8154815290600101906020018083116105f257829003601f168201915b5050505050815260200160078201805461062890615242565b80601f016020809104026020016040519081016040528092919081815260200182805461065490615242565b80156106a15780601f10610676576101008083540402835291602001916106a1565b820191906000526020600020905b81548152906001019060200180831161068457829003601f168201915b5050505050815250508282815181106106e3577f4e487b7100000000000000000000000000000000000000000000000000000000600052603260045260246000fd5b602002602001018190525080806106f990615274565b915050610448565b508091505090565b600080600090505b6001805490508110156107d25760018181548110610758577f4e487b7100000000000000000000000000000000000000000000000000000000600052603260045260246000fd5b906000526020600020016040516020016107729190614e5d565b60405160208183030381529060405280519060200120836040516020016107999190614e46565b6040516020818303038152906040528051906020012014156107bf5760019150506107d8565b80806107ca90615274565b915050610711565b50600090505b919050565b6060600060018054905067ffffffffffffffff811115610826577f4e487b7100000000000000000000000000000000000000000000000000000000600052604160045260246000fd5b60405190808252806020026020018201604052801561085f57816020015b61084c61400a565b8152602001906001900390816108445790505b50905060005b600180549050811015610db2576000600182815481106108ae577f4e487b7100000000000000000000000000000000000000000000000000000000600052603260045260246000fd5b906000526020600020016040516108c59190614e5d565b9081526020016040518091039020604051806101800160405290816000820180546108ef90615242565b80601f016020809104026020016040519081016040528092919081815260200182805461091b90615242565b80156109685780601f1061093d57610100808354040283529160200191610968565b820191906000526020600020905b81548152906001019060200180831161094b57829003601f168201915b505050505081526020016001820160009054906101000a900473ffffffffffffffffffffffffffffffffffffffff1673ffffffffffffffffffffffffffffffffffffffff1673ffffffffffffffffffffffffffffffffffffffff1681526020016002820180546109d790615242565b80601f0160208091040260200160405190810160405280929190818152602001828054610a0390615242565b8015610a505780601f10610a2557610100808354040283529160200191610a50565b820191906000526020600020905b815481529060010190602001808311610a3357829003601f168201915b50505050508152602001600382018054610a6990615242565b80601f0160208091040260200160405190810160405280929190818152602001828054610a9590615242565b8015610ae25780601f10610ab757610100808354040283529160200191610ae2565b820191906000526020600020905b815481529060010190602001808311610ac557829003601f168201915b50505050508152602001600482018054610afb90615242565b80601f0160208091040260200160405190810160405280929190818152602001828054610b2790615242565b8015610b745780601f10610b4957610100808354040283529160200191610b74565b820191906000526020600020905b815481529060010190602001808311610b5757829003601f168201915b50505050508152602001600582018054610b8d90615242565b80601f0160208091040260200160405190810160405280929190818152602001828054610bb990615242565b8015610c065780601f10610bdb57610100808354040283529160200191610c06565b820191906000526020600020905b815481529060010190602001808311610be957829003601f168201915b5050505050815260200160068201548152602001600782018054610c2990615242565b80601f0160208091040260200160405190810160405280929190818152602001828054610c5590615242565b8015610ca25780601f10610c7757610100808354040283529160200191610ca2565b820191906000526020600020905b815481529060010190602001808311610c8557829003601f168201915b50505050508152602001600882018054610cbb90615242565b80601f0160208091040260200160405190810160405280929190818152602001828054610ce790615242565b8015610d345780601f10610d0957610100808354040283529160200191610d34565b820191906000526020600020905b815481529060010190602001808311610d1757829003601f168201915b5050505050815260200160098201548152602001600a8201548152602001600b82015481525050828281518110610d94577f4e487b7100000000000000000000000000000000000000000000000000000000600052603260045260246000fd5b60200260200101819052508080610daa90615274565b915050610865565b508091505090565b60606000805b600180549050811015610ea7573373ffffffffffffffffffffffffffffffffffffffff16600060018381548110610e20577f4e487b7100000000000000000000000000000000000000000000000000000000600052603260045260246000fd5b90600052602060002001604051610e379190614e5d565b908152602001604051809103902060010160009054906101000a900473ffffffffffffffffffffffffffffffffffffffff1673ffffffffffffffffffffffffffffffffffffffff161415610e94578180610e9090615274565b9250505b8080610e9f90615274565b915050610dc0565b5060008167ffffffffffffffff811115610eea577f4e487b7100000000000000000000000000000000000000000000000000000000600052604160045260246000fd5b604051908082528060200260200182016040528015610f2357816020015b610f1061400a565b815260200190600190039081610f085790505b5090506000805b60018054905081101561153e573373ffffffffffffffffffffffffffffffffffffffff16600060018381548110610f8a577f4e487b7100000000000000000000000000000000000000000000000000000000600052603260045260246000fd5b90600052602060002001604051610fa19190614e5d565b908152602001604051809103902060010160009054906101000a900473ffffffffffffffffffffffffffffffffffffffff1673ffffffffffffffffffffffffffffffffffffffff16141561152b5760006001828154811061102b577f4e487b7100000000000000000000000000000000000000000000000000000000600052603260045260246000fd5b906000526020600020016040516110429190614e5d565b90815260200160405180910390206040518061018001604052908160008201805461106c90615242565b80601f016020809104026020016040519081016040528092919081815260200182805461109890615242565b80156110e55780601f106110ba576101008083540402835291602001916110e5565b820191906000526020600020905b8154815290600101906020018083116110c857829003601f168201915b505050505081526020016001820160009054906101000a900473ffffffffffffffffffffffffffffffffffffffff1673ffffffffffffffffffffffffffffffffffffffff1673ffffffffffffffffffffffffffffffffffffffff16815260200160028201805461115490615242565b80601f016020809104026020016040519081016040528092919081815260200182805461118090615242565b80156111cd5780601f106111a2576101008083540402835291602001916111cd565b820191906000526020600020905b8154815290600101906020018083116111b057829003601f168201915b505050505081526020016003820180546111e690615242565b80601f016020809104026020016040519081016040528092919081815260200182805461121290615242565b801561125f5780601f106112345761010080835404028352916020019161125f565b820191906000526020600020905b81548152906001019060200180831161124257829003601f168201915b5050505050815260200160048201805461127890615242565b80601f01602080910402602001604051908101604052809291908181526020018280546112a490615242565b80156112f15780601f106112c6576101008083540402835291602001916112f1565b820191906000526020600020905b8154815290600101906020018083116112d457829003601f168201915b5050505050815260200160058201805461130a90615242565b80601f016020809104026020016040519081016040528092919081815260200182805461133690615242565b80156113835780601f1061135857610100808354040283529160200191611383565b820191906000526020600020905b81548152906001019060200180831161136657829003601f168201915b50505050508152602001600682015481526020016007820180546113a690615242565b80601f01602080910402602001604051908101604052809291908181526020018280546113d290615242565b801561141f5780601f106113f45761010080835404028352916020019161141f565b820191906000526020600020905b81548152906001019060200180831161140257829003601f168201915b5050505050815260200160088201805461143890615242565b80601f016020809104026020016040519081016040528092919081815260200182805461146490615242565b80156114b15780601f10611486576101008083540402835291602001916114b1565b820191906000526020600020905b81548152906001019060200180831161149457829003601f168201915b5050505050815260200160098201548152602001600a8201548152602001600b82015481525050838381518110611511577f4e487b7100000000000000000000000000000000000000000000000000000000600052603260045260246000fd5b6020026020010181905250818061152790615274565b9250505b808061153690615274565b915050610f2a565b5081935050505090565b6060604051806101000160405280888152602001878152602001868152602001858152602001848152602001838152602001604051806020016040528060008152508152602001604051806020016040528060008152508152506003886040516115b29190614e46565b908152602001604051809103902060008201518160000190805190602001906115dc929190614081565b506020820151816001015560408201518160020155606082015181600301556080820151816004015560a0820151816005015560c082015181600601908051906020019061162b929190614081565b5060e0820151816007019080519060200190611648929190614081565b509050508690509695505050505050565b8160038460405161166a9190614e46565b9081526020016040518091039020600601908051906020019061168e929190614081565b50806003846040516116a09190614e46565b908152602001604051809103902060070190805190602001906116c4929190614081565b50505050565b60606001805480602002602001604051908101604052809291908181526020016000905b8282101561179a57838290600052602060002001805461170d90615242565b80601f016020809104026020016040519081016040528092919081815260200182805461173990615242565b80156117865780601f1061175b57610100808354040283529160200191611786565b820191906000526020600020905b81548152906001019060200180831161176957829003601f168201915b5050505050815260200190600101906116ee565b50505050905090565b60606000805b6001805490508110156119ad573373ffffffffffffffffffffffffffffffffffffffff16600060018381548110611809577f4e487b7100000000000000000000000000000000000000000000000000000000600052603260045260246000fd5b906000526020600020016040516118209190614e5d565b908152602001604051809103902060010160009054906101000a900473ffffffffffffffffffffffffffffffffffffffff1673ffffffffffffffffffffffffffffffffffffffff1614801561198657506003600182815481106118ac577f4e487b7100000000000000000000000000000000000000000000000000000000600052603260045260246000fd5b906000526020600020016040516118c39190614e5d565b90815260200160405180910390206000016040516020016118e49190614e5d565b60405160208183030381529060405280519060200120600060018381548110611936577f4e487b7100000000000000000000000000000000000000000000000000000000600052603260045260246000fd5b9060005260206000200160405161194d9190614e5d565b908152602001604051809103902060000160405160200161196e9190614e5d565b60405160208183030381529060405280519060200120145b1561199a57818061199690615274565b9250505b80806119a590615274565b9150506117a9565b506000808267ffffffffffffffff8111156119f1577f4e487b7100000000000000000000000000000000000000000000000000000000600052604160045260246000fd5b604051908082528060200260200182016040528015611a2a57816020015b611a17613fc5565b815260200190600190039081611a0f5790505b50905060005b600180549050811015611ecd573373ffffffffffffffffffffffffffffffffffffffff16600060018381548110611a90577f4e487b7100000000000000000000000000000000000000000000000000000000600052603260045260246000fd5b90600052602060002001604051611aa79190614e5d565b908152602001604051809103902060010160009054906101000a900473ffffffffffffffffffffffffffffffffffffffff1673ffffffffffffffffffffffffffffffffffffffff16148015611c0d5750600360018281548110611b33577f4e487b7100000000000000000000000000000000000000000000000000000000600052603260045260246000fd5b90600052602060002001604051611b4a9190614e5d565b9081526020016040518091039020600001604051602001611b6b9190614e5d565b60405160208183030381529060405280519060200120600060018381548110611bbd577f4e487b7100000000000000000000000000000000000000000000000000000000600052603260045260246000fd5b90600052602060002001604051611bd49190614e5d565b9081526020016040518091039020600001604051602001611bf59190614e5d565b60405160208183030381529060405280519060200120145b15611eba57600360018281548110611c4e577f4e487b7100000000000000000000000000000000000000000000000000000000600052603260045260246000fd5b90600052602060002001604051611c659190614e5d565b908152602001604051809103902060405180610100016040529081600082018054611c8f90615242565b80601f0160208091040260200160405190810160405280929190818152602001828054611cbb90615242565b8015611d085780601f10611cdd57610100808354040283529160200191611d08565b820191906000526020600020905b815481529060010190602001808311611ceb57829003601f168201915b505050505081526020016001820154815260200160028201548152602001600382015481526020016004820154815260200160058201548152602001600682018054611d5390615242565b80601f0160208091040260200160405190810160405280929190818152602001828054611d7f90615242565b8015611dcc5780601f10611da157610100808354040283529160200191611dcc565b820191906000526020600020905b815481529060010190602001808311611daf57829003601f168201915b50505050508152602001600782018054611de590615242565b80601f0160208091040260200160405190810160405280929190818152602001828054611e1190615242565b8015611e5e5780601f10611e3357610100808354040283529160200191611e5e565b820191906000526020600020905b815481529060010190602001808311611e4157829003601f168201915b505050505081525050828481518110611ea0577f4e487b7100000000000000000000000000000000000000000000000000000000600052603260045260246000fd5b60200260200101819052508280611eb690615274565b9350505b8080611ec590615274565b915050611a30565b5080935050505090565b6000600382604051611ee99190614e46565b9081526020016040518091039020600501549050919050565b611f0a613fc5565b600382604051611f1a9190614e46565b908152602001604051809103902060405180610100016040529081600082018054611f4490615242565b80601f0160208091040260200160405190810160405280929190818152602001828054611f7090615242565b8015611fbd5780601f10611f9257610100808354040283529160200191611fbd565b820191906000526020600020905b815481529060010190602001808311611fa057829003601f168201915b50505050508152602001600182015481526020016002820154815260200160038201548152602001600482015481526020016005820154815260200160068201805461200890615242565b80601f016020809104026020016040519081016040528092919081815260200182805461203490615242565b80156120815780601f1061205657610100808354040283529160200191612081565b820191906000526020600020905b81548152906001019060200180831161206457829003601f168201915b5050505050815260200160078201805461209a90615242565b80601f01602080910402602001604051908101604052809291908181526020018280546120c690615242565b80156121135780601f106120e857610100808354040283529160200191612113565b820191906000526020600020905b8154815290600101906020018083116120f657829003601f168201915b5050505050815250509050919050565b6060806000805b60018054905081101561232e573373ffffffffffffffffffffffffffffffffffffffff1660006001838154811061218a577f4e487b7100000000000000000000000000000000000000000000000000000000600052603260045260246000fd5b906000526020600020016040516121a19190614e5d565b908152602001604051809103902060010160009054906101000a900473ffffffffffffffffffffffffffffffffffffffff1673ffffffffffffffffffffffffffffffffffffffff16148015612307575060036001828154811061222d577f4e487b7100000000000000000000000000000000000000000000000000000000600052603260045260246000fd5b906000526020600020016040516122449190614e5d565b90815260200160405180910390206000016040516020016122659190614e5d565b604051602081830303815290604052805190602001206000600183815481106122b7577f4e487b7100000000000000000000000000000000000000000000000000000000600052603260045260246000fd5b906000526020600020016040516122ce9190614e5d565b90815260200160405180910390206000016040516020016122ef9190614e5d565b60405160208183030381529060405280519060200120145b1561231b57818061231790615274565b9250505b808061232690615274565b91505061212a565b5060008167ffffffffffffffff811115612371577f4e487b7100000000000000000000000000000000000000000000000000000000600052604160045260246000fd5b6040519080825280602002602001820160405280156123aa57816020015b61239761400a565b81526020019060019003908161238f5790505b5090506000805b6001805490508110156129c5573373ffffffffffffffffffffffffffffffffffffffff16600060018381548110612411577f4e487b7100000000000000000000000000000000000000000000000000000000600052603260045260246000fd5b906000526020600020016040516124289190614e5d565b908152602001604051809103902060010160009054906101000a900473ffffffffffffffffffffffffffffffffffffffff1673ffffffffffffffffffffffffffffffffffffffff1614156129b2576000600182815481106124b2577f4e487b7100000000000000000000000000000000000000000000000000000000600052603260045260246000fd5b906000526020600020016040516124c99190614e5d565b9081526020016040518091039020604051806101800160405290816000820180546124f390615242565b80601f016020809104026020016040519081016040528092919081815260200182805461251f90615242565b801561256c5780601f106125415761010080835404028352916020019161256c565b820191906000526020600020905b81548152906001019060200180831161254f57829003601f168201915b505050505081526020016001820160009054906101000a900473ffffffffffffffffffffffffffffffffffffffff1673ffffffffffffffffffffffffffffffffffffffff1673ffffffffffffffffffffffffffffffffffffffff1681526020016002820180546125db90615242565b80601f016020809104026020016040519081016040528092919081815260200182805461260790615242565b80156126545780601f1061262957610100808354040283529160200191612654565b820191906000526020600020905b81548152906001019060200180831161263757829003601f168201915b5050505050815260200160038201805461266d90615242565b80601f016020809104026020016040519081016040528092919081815260200182805461269990615242565b80156126e65780601f106126bb576101008083540402835291602001916126e6565b820191906000526020600020905b8154815290600101906020018083116126c957829003601f168201915b505050505081526020016004820180546126ff90615242565b80601f016020809104026020016040519081016040528092919081815260200182805461272b90615242565b80156127785780601f1061274d57610100808354040283529160200191612778565b820191906000526020600020905b81548152906001019060200180831161275b57829003601f168201915b5050505050815260200160058201805461279190615242565b80601f01602080910402602001604051908101604052809291908181526020018280546127bd90615242565b801561280a5780601f106127df5761010080835404028352916020019161280a565b820191906000526020600020905b8154815290600101906020018083116127ed57829003601f168201915b505050505081526020016006820154815260200160078201805461282d90615242565b80601f016020809104026020016040519081016040528092919081815260200182805461285990615242565b80156128a65780601f1061287b576101008083540402835291602001916128a6565b820191906000526020600020905b81548152906001019060200180831161288957829003601f168201915b505050505081526020016008820180546128bf90615242565b80601f01602080910402602001604051908101604052809291908181526020018280546128eb90615242565b80156129385780601f1061290d57610100808354040283529160200191612938565b820191906000526020600020905b81548152906001019060200180831161291b57829003601f168201915b5050505050815260200160098201548152602001600a8201548152602001600b82015481525050838381518110612998577f4e487b7100000000000000000000000000000000000000000000000000000000600052603260045260246000fd5b602002602001018190525081806129ae90615274565b9250505b80806129bd90615274565b9150506123b1565b506000905060008367ffffffffffffffff811115612a0c577f4e487b7100000000000000000000000000000000000000000000000000000000600052604160045260246000fd5b604051908082528060200260200182016040528015612a4557816020015b612a32613fc5565b815260200190600190039081612a2a5790505b50905060005b600180549050811015612ee8573373ffffffffffffffffffffffffffffffffffffffff16600060018381548110612aab577f4e487b7100000000000000000000000000000000000000000000000000000000600052603260045260246000fd5b90600052602060002001604051612ac29190614e5d565b908152602001604051809103902060010160009054906101000a900473ffffffffffffffffffffffffffffffffffffffff1673ffffffffffffffffffffffffffffffffffffffff16148015612c285750600360018281548110612b4e577f4e487b7100000000000000000000000000000000000000000000000000000000600052603260045260246000fd5b90600052602060002001604051612b659190614e5d565b9081526020016040518091039020600001604051602001612b869190614e5d565b60405160208183030381529060405280519060200120600060018381548110612bd8577f4e487b7100000000000000000000000000000000000000000000000000000000600052603260045260246000fd5b90600052602060002001604051612bef9190614e5d565b9081526020016040518091039020600001604051602001612c109190614e5d565b60405160208183030381529060405280519060200120145b15612ed557600360018281548110612c69577f4e487b7100000000000000000000000000000000000000000000000000000000600052603260045260246000fd5b90600052602060002001604051612c809190614e5d565b908152602001604051809103902060405180610100016040529081600082018054612caa90615242565b80601f0160208091040260200160405190810160405280929190818152602001828054612cd690615242565b8015612d235780601f10612cf857610100808354040283529160200191612d23565b820191906000526020600020905b815481529060010190602001808311612d0657829003601f168201915b505050505081526020016001820154815260200160028201548152602001600382015481526020016004820154815260200160058201548152602001600682018054612d6e90615242565b80601f0160208091040260200160405190810160405280929190818152602001828054612d9a90615242565b8015612de75780601f10612dbc57610100808354040283529160200191612de7565b820191906000526020600020905b815481529060010190602001808311612dca57829003601f168201915b50505050508152602001600782018054612e0090615242565b80601f0160208091040260200160405190810160405280929190818152602001828054612e2c90615242565b8015612e795780601f10612e4e57610100808354040283529160200191612e79565b820191906000526020600020905b815481529060010190602001808311612e5c57829003601f168201915b505050505081525050828481518110612ebb577f4e487b7100000000000000000000000000000000000000000000000000000000600052603260045260246000fd5b60200260200101819052508280612ed190615274565b9350505b8080612ee090615274565b915050612a4b565b50828195509550505050509091565b60608060005b6001805490508110156131075783604051602001612f1b9190614e46565b60405160208183030381529060405280519060200120600060018381548110612f6d577f4e487b7100000000000000000000000000000000000000000000000000000000600052603260045260246000fd5b90600052602060002001604051612f849190614e5d565b9081526020016040518091039020600201604051602001612fa59190614e5d565b6040516020818303038152906040528051906020012014156130f457600060018281548110612ffd577f4e487b7100000000000000000000000000000000000000000000000000000000600052603260045260246000fd5b906000526020600020016040516130149190614e5d565b9081526020016040518091039020600001805461303090615242565b80601f016020809104026020016040519081016040528092919081815260200182805461305c90615242565b80156130a95780601f1061307e576101008083540402835291602001916130a9565b820191906000526020600020905b81548152906001019060200180831161308c57829003601f168201915b5050505050828351815181106130e8577f4e487b7100000000000000000000000000000000000000000000000000000000600052603260045260246000fd5b60200260200101819052505b80806130ff90615274565b915050612efd565b5080915050919050565b836000816040516131229190614e46565b90815260200160405180910390206000016040516020016131439190614e5d565b604051602081830303815290604052805190602001208160405160200161316a9190614e46565b60405160208183030381529060405280519060200120146131c0576040517f08c379a00000000000000000000000000000000000000000000000000000000081526004016131b790614f6e565b60405180910390fd5b33858173ffffffffffffffffffffffffffffffffffffffff166000826040516131e99190614e46565b908152602001604051809103902060010160009054906101000a900473ffffffffffffffffffffffffffffffffffffffff1673ffffffffffffffffffffffffffffffffffffffff1614613271576040517f08c379a000000000000000000000000000000000000000000000000000000000815260040161326890614f4e565b60405180910390fd5b6040518060800160405280888152602001876fffffffffffffffffffffffffffffffff168152602001866fffffffffffffffffffffffffffffffff168152602001856fffffffffffffffffffffffffffffffff168152506002886040516132d89190614e46565b90815260200160405180910390206000820151816000019080519060200190613302929190614081565b5060208201518160010160006101000a8154816fffffffffffffffffffffffffffffffff02191690836fffffffffffffffffffffffffffffffff16021790555060408201518160010160106101000a8154816fffffffffffffffffffffffffffffffff02191690836fffffffffffffffffffffffffffffffff16021790555060608201518160020160006101000a8154816fffffffffffffffffffffffffffffffff02191690836fffffffffffffffffffffffffffffffff16021790555090505050505050505050565b60606040518061018001604052808a81526020013373ffffffffffffffffffffffffffffffffffffffff1681526020018981526020018881526020018781526020018681526020018581526020016040518060400160405280600b81526020017f556e617661696c61626c6500000000000000000000000000000000000000000081525081526020018381526020018481526020014281526020014281525060008a60405161347b9190614e46565b908152602001604051809103902060008201518160000190805190602001906134a5929190614081565b5060208201518160010160006101000a81548173ffffffffffffffffffffffffffffffffffffffff021916908373ffffffffffffffffffffffffffffffffffffffff1602179055506040820151816002019080519060200190613509929190614081565b506060820151816003019080519060200190613526929190614081565b506080820151816004019080519060200190613543929190614081565b5060a0820151816005019080519060200190613560929190614081565b5060c0820151816006015560e0820151816007019080519060200190613587929190614081565b506101008201518160080190805190602001906135a5929190614081565b50610120820151816009015561014082015181600a015561016082015181600b0155905050600189908060018154018082558091505060019003906000526020600020016000909190919091509080519060200190613605929190614081565b5088905098975050505050505050565b61361d61400a565b60008260405161362d9190614e46565b90815260200160405180910390206040518061018001604052908160008201805461365790615242565b80601f016020809104026020016040519081016040528092919081815260200182805461368390615242565b80156136d05780601f106136a5576101008083540402835291602001916136d0565b820191906000526020600020905b8154815290600101906020018083116136b357829003601f168201915b505050505081526020016001820160009054906101000a900473ffffffffffffffffffffffffffffffffffffffff1673ffffffffffffffffffffffffffffffffffffffff1673ffffffffffffffffffffffffffffffffffffffff16815260200160028201805461373f90615242565b80601f016020809104026020016040519081016040528092919081815260200182805461376b90615242565b80156137b85780601f1061378d576101008083540402835291602001916137b8565b820191906000526020600020905b81548152906001019060200180831161379b57829003601f168201915b505050505081526020016003820180546137d190615242565b80601f01602080910402602001604051908101604052809291908181526020018280546137fd90615242565b801561384a5780601f1061381f5761010080835404028352916020019161384a565b820191906000526020600020905b81548152906001019060200180831161382d57829003601f168201915b5050505050815260200160048201805461386390615242565b80601f016020809104026020016040519081016040528092919081815260200182805461388f90615242565b80156138dc5780601f106138b1576101008083540402835291602001916138dc565b820191906000526020600020905b8154815290600101906020018083116138bf57829003601f168201915b505050505081526020016005820180546138f590615242565b80601f016020809104026020016040519081016040528092919081815260200182805461392190615242565b801561396e5780601f106139435761010080835404028352916020019161396e565b820191906000526020600020905b81548152906001019060200180831161395157829003601f168201915b505050505081526020016006820154815260200160078201805461399190615242565b80601f01602080910402602001604051908101604052809291908181526020018280546139bd90615242565b8015613a0a5780601f106139df57610100808354040283529160200191613a0a565b820191906000526020600020905b8154815290600101906020018083116139ed57829003601f168201915b50505050508152602001600882018054613a2390615242565b80601f0160208091040260200160405190810160405280929190818152602001828054613a4f90615242565b8015613a9c5780601f10613a7157610100808354040283529160200191613a9c565b820191906000526020600020905b815481529060010190602001808311613a7f57829003601f168201915b5050505050815260200160098201548152602001600a8201548152602001600b820154815250509050919050565b600081604051613ada9190614e46565b908152602001604051809103902060008082016000613af99190614107565b6001820160006101000a81549073ffffffffffffffffffffffffffffffffffffffff0219169055600282016000613b309190614107565b600382016000613b409190614107565b600482016000613b509190614107565b600582016000613b609190614107565b6006820160009055600782016000613b789190614107565b600882016000613b889190614107565b6009820160009055600a820160009055600b8201600090555050600381604051613bb29190614e46565b908152602001604051809103902060008082016000613bd19190614107565b60018201600090556002820160009055600382016000905560048201600090556005820160009055600682016000613c099190614107565b600782016000613c199190614107565b505060005b600180549050811015613ddf5760018181548110613c65577f4e487b7100000000000000000000000000000000000000000000000000000000600052603260045260246000fd5b90600052602060002001604051602001613c7f9190614e5d565b6040516020818303038152906040528051906020012082604051602001613ca69190614e46565b604051602081830303815290604052805190602001201415613dcc576001808080549050613cd49190615168565b81548110613d0b577f4e487b7100000000000000000000000000000000000000000000000000000000600052603260045260246000fd5b9060005260206000200160018281548110613d4f577f4e487b7100000000000000000000000000000000000000000000000000000000600052603260045260246000fd5b90600052602060002001908054613d6590615242565b613d70929190614147565b506001805480613da9577f4e487b7100000000000000000000000000000000000000000000000000000000600052603160045260246000fd5b600190038181906000526020600020016000613dc59190614107565b9055613ddf565b8080613dd790615274565b915050613c1e565b5050565b80600083604051613df49190614e46565b90815260200160405180910390206007019080519060200190613e18929190614081565b505050565b613e256141d4565b600282604051613e359190614e46565b9081526020016040518091039020604051806080016040529081600082018054613e5e90615242565b80601f0160208091040260200160405190810160405280929190818152602001828054613e8a90615242565b8015613ed75780601f10613eac57610100808354040283529160200191613ed7565b820191906000526020600020905b815481529060010190602001808311613eba57829003601f168201915b505050505081526020016001820160009054906101000a90046fffffffffffffffffffffffffffffffff166fffffffffffffffffffffffffffffffff166fffffffffffffffffffffffffffffffff1681526020016001820160109054906101000a90046fffffffffffffffffffffffffffffffff166fffffffffffffffffffffffffffffffff166fffffffffffffffffffffffffffffffff1681526020016002820160009054906101000a90046fffffffffffffffffffffffffffffffff166fffffffffffffffffffffffffffffffff166fffffffffffffffffffffffffffffffff16815250509050919050565b60405180610100016040528060608152602001600081526020016000815260200160008152602001600081526020016000815260200160608152602001606081525090565b60405180610180016040528060608152602001600073ffffffffffffffffffffffffffffffffffffffff168152602001606081526020016060815260200160608152602001606081526020016000815260200160608152602001606081526020016000815260200160008152602001600081525090565b82805461408d90615242565b90600052602060002090601f0160209004810192826140af57600085556140f6565b82601f106140c857805160ff19168380011785556140f6565b828001600101855582156140f6579182015b828111156140f55782518255916020019190600101906140da565b5b5090506141039190614232565b5090565b50805461411390615242565b6000825580601f106141255750614144565b601f0160209004906000526020600020908101906141439190614232565b5b50565b82805461415390615242565b90600052602060002090601f01602090048101928261417557600085556141c3565b82601f1061418657805485556141c3565b828001600101855582156141c357600052602060002091601f016020900482015b828111156141c25782548255916001019190600101906141a7565b5b5090506141d09190614232565b5090565b60405180608001604052806060815260200160006fffffffffffffffffffffffffffffffff16815260200160006fffffffffffffffffffffffffffffffff16815260200160006fffffffffffffffffffffffffffffffff1681525090565b5b8082111561424b576000816000905550600101614233565b5090565b600061426261425d84615040565b61500f565b90508281526020810184848401111561427a57600080fd5b614285848285615200565b509392505050565b600082601f83011261429e57600080fd5b81356142ae84826020860161424f565b91505092915050565b6000813590506142c68161535b565b92915050565b6000813590506142db81615372565b92915050565b6000602082840312156142f357600080fd5b600082013567ffffffffffffffff81111561430d57600080fd5b6143198482850161428d565b91505092915050565b6000806040838503121561433557600080fd5b600083013567ffffffffffffffff81111561434f57600080fd5b61435b8582860161428d565b925050602083013567ffffffffffffffff81111561437857600080fd5b6143848582860161428d565b9150509250929050565b6000806000606084860312156143a357600080fd5b600084013567ffffffffffffffff8111156143bd57600080fd5b6143c98682870161428d565b935050602084013567ffffffffffffffff8111156143e657600080fd5b6143f28682870161428d565b925050604084013567ffffffffffffffff81111561440f57600080fd5b61441b8682870161428d565b9150509250925092565b600080600080600080600080610100898b03121561444257600080fd5b600089013567ffffffffffffffff81111561445c57600080fd5b6144688b828c0161428d565b985050602089013567ffffffffffffffff81111561448557600080fd5b6144918b828c0161428d565b975050604089013567ffffffffffffffff8111156144ae57600080fd5b6144ba8b828c0161428d565b965050606089013567ffffffffffffffff8111156144d757600080fd5b6144e38b828c0161428d565b955050608089013567ffffffffffffffff81111561450057600080fd5b61450c8b828c0161428d565b94505060a061451d8b828c016142cc565b93505060c061452e8b828c016142cc565b92505060e089013567ffffffffffffffff81111561454b57600080fd5b6145578b828c0161428d565b9150509295985092959890939650565b6000806000806080858703121561457d57600080fd5b600085013567ffffffffffffffff81111561459757600080fd5b6145a38782880161428d565b94505060206145b4878288016142b7565b93505060406145c5878288016142b7565b92505060606145d6878288016142b7565b91505092959194509250565b60008060008060008060c087890312156145fb57600080fd5b600087013567ffffffffffffffff81111561461557600080fd5b61462189828a0161428d565b965050602061463289828a016142cc565b955050604061464389828a016142cc565b945050606061465489828a016142cc565b935050608061466589828a016142cc565b92505060a061467689828a016142cc565b9150509295509295509295565b600061468f838361483c565b905092915050565b60006146a383836149de565b905092915050565b60006146b78383614c3a565b905092915050565b6146c88161519c565b82525050565b60006146d9826150b5565b6146e38185615108565b9350836020820285016146f585615070565b8060005b8581101561473157848403895281516147128582614683565b945061471d836150e1565b925060208a019950506001810190506146f9565b50829750879550505050505092915050565b600061474e826150c0565b6147588185615119565b93508360208202850161476a85615080565b8060005b858110156147a657848403895281516147878582614697565b9450614792836150ee565b925060208a0199505060018101905061476e565b50829750879550505050505092915050565b60006147c3826150cb565b6147cd818561512a565b9350836020820285016147df85615090565b8060005b8581101561481b57848403895281516147fc85826146ab565b9450614807836150fb565b925060208a019950506001810190506147e3565b50829750879550505050505092915050565b614836816151ae565b82525050565b6000614847826150d6565b614851818561513b565b935061486181856020860161520f565b61486a8161534a565b840191505092915050565b6000614880826150d6565b61488a818561514c565b935061489a81856020860161520f565b6148a38161534a565b840191505092915050565b60006148b9826150d6565b6148c3818561515d565b93506148d381856020860161520f565b80840191505092915050565b600081546148ec81615242565b6148f6818661515d565b94506001821660008114614911576001811461492257614955565b60ff19831686528186019350614955565b61492b856150a0565b60005b8381101561494d5781548189015260018201915060208101905061492e565b838801955050505b50505092915050565b600061496b60198361514c565b91507f546865206f776e6572206973206e6f74207468652073616d65000000000000006000830152602082019050919050565b60006149ab60158361514c565b91507f4163636f756e7420646f65736e742065786973747300000000000000000000006000830152602082019050919050565b60006101808301600083015184820360008601526149fc828261483c565b9150506020830151614a1160208601826146bf565b5060408301518482036040860152614a29828261483c565b91505060608301518482036060860152614a43828261483c565b91505060808301518482036080860152614a5d828261483c565b91505060a083015184820360a0860152614a77828261483c565b91505060c0830151614a8c60c0860182614e28565b5060e083015184820360e0860152614aa4828261483c565b915050610100830151848203610100860152614ac0828261483c565b915050610120830151614ad7610120860182614e28565b50610140830151614aec610140860182614e28565b50610160830151614b01610160860182614e28565b508091505092915050565b6000610180830160008301518482036000860152614b2a828261483c565b9150506020830151614b3f60208601826146bf565b5060408301518482036040860152614b57828261483c565b91505060608301518482036060860152614b71828261483c565b91505060808301518482036080860152614b8b828261483c565b91505060a083015184820360a0860152614ba5828261483c565b91505060c0830151614bba60c0860182614e28565b5060e083015184820360e0860152614bd2828261483c565b915050610100830151848203610100860152614bee828261483c565b915050610120830151614c05610120860182614e28565b50610140830151614c1a610140860182614e28565b50610160830151614c2f610160860182614e28565b508091505092915050565b6000610100830160008301518482036000860152614c58828261483c565b9150506020830151614c6d6020860182614e28565b506040830151614c806040860182614e28565b506060830151614c936060860182614e28565b506080830151614ca66080860182614e28565b5060a0830151614cb960a0860182614e28565b5060c083015184820360c0860152614cd1828261483c565b91505060e083015184820360e0860152614ceb828261483c565b9150508091505092915050565b6000610100830160008301518482036000860152614d16828261483c565b9150506020830151614d2b6020860182614e28565b506040830151614d3e6040860182614e28565b506060830151614d516060860182614e28565b506080830151614d646080860182614e28565b5060a0830151614d7760a0860182614e28565b5060c083015184820360c0860152614d8f828261483c565b91505060e083015184820360e0860152614da9828261483c565b9150508091505092915050565b60006080830160008301518482036000860152614dd3828261483c565b9150506020830151614de86020860182614e19565b506040830151614dfb6040860182614e19565b506060830151614e0e6060860182614e19565b508091505092915050565b614e22816151ba565b82525050565b614e31816151f6565b82525050565b614e40816151f6565b82525050565b6000614e5282846148ae565b915081905092915050565b6000614e6982846148df565b915081905092915050565b60006020820190508181036000830152614e8e81846146ce565b905092915050565b60006020820190508181036000830152614eb08184614743565b905092915050565b60006040820190508181036000830152614ed28185614743565b90508181036020830152614ee681846147b8565b90509392505050565b60006020820190508181036000830152614f0981846147b8565b905092915050565b6000602082019050614f26600083018461482d565b92915050565b60006020820190508181036000830152614f468184614875565b905092915050565b60006020820190508181036000830152614f678161495e565b9050919050565b60006020820190508181036000830152614f878161499e565b9050919050565b60006020820190508181036000830152614fa88184614b0c565b905092915050565b60006020820190508181036000830152614fca8184614cf8565b905092915050565b60006020820190508181036000830152614fec8184614db6565b905092915050565b60006020820190506150096000830184614e37565b92915050565b6000604051905081810181811067ffffffffffffffff821117156150365761503561531b565b5b8060405250919050565b600067ffffffffffffffff82111561505b5761505a61531b565b5b601f19601f8301169050602081019050919050565b6000819050602082019050919050565b6000819050602082019050919050565b6000819050602082019050919050565b60008190508160005260206000209050919050565b600081519050919050565b600081519050919050565b600081519050919050565b600081519050919050565b6000602082019050919050565b6000602082019050919050565b6000602082019050919050565b600082825260208201905092915050565b600082825260208201905092915050565b600082825260208201905092915050565b600082825260208201905092915050565b600082825260208201905092915050565b600081905092915050565b6000615173826151f6565b915061517e836151f6565b925082821015615191576151906152bd565b5b828203905092915050565b60006151a7826151d6565b9050919050565b60008115159050919050565b60006fffffffffffffffffffffffffffffffff82169050919050565b600073ffffffffffffffffffffffffffffffffffffffff82169050919050565b6000819050919050565b82818337600083830152505050565b60005b8381101561522d578082015181840152602081019050615212565b8381111561523c576000848401525b50505050565b6000600282049050600182168061525a57607f821691505b6020821081141561526e5761526d6152ec565b5b50919050565b600061527f826151f6565b91507fffffffffffffffffffffffffffffffffffffffffffffffffffffffffffffffff8214156152b2576152b16152bd565b5b600182019050919050565b7f4e487b7100000000000000000000000000000000000000000000000000000000600052601160045260246000fd5b7f4e487b7100000000000000000000000000000000000000000000000000000000600052602260045260246000fd5b7f4e487b7100000000000000000000000000000000000000000000000000000000600052604160045260246000fd5b6000601f19601f8301169050919050565b615364816151ba565b811461536f57600080fd5b50565b61537b816151f6565b811461538657600080fd5b5056fea26469706673582212202d97b0fe5953d8d4622ab17f06f08def7211e4b4826e1fbded2bce831fca436264736f6c63430008000033",
  "immutableReferences": {},
  "source": "//SPDX-License-Identifier: MIT\r\npragma solidity ^0.8.0;\r\n\r\ncontract Events{\r\n\r\n    struct EventLocked{\r\n        string eventId;\r\n        address owner;\r\n        string venueId;\r\n        string eventName;\r\n        string eventType;\r\n        string description;\r\n        uint eventPhoneNo;\r\n        string status; // available,unavailable, accepted\r\n        string eventPhotoAddress;\r\n        uint eventDate;\r\n        uint256 dateCreated;\r\n        uint256 dateModified;\r\n    }\r\n\r\n    struct EventTicketsDetail{\r\n        string eventId;\r\n        uint256 normalPrice;\r\n        uint256 vipPrice;\r\n        uint256 vipTickets; //add normal tickets\r\n        uint256 normalTickets;\r\n        uint256 age;\r\n        string staffUsername;\r\n        string staffPassword;\r\n    }\r\n\r\n    struct PaymentDetails{\r\n        string eventId;\r\n        uint128 telebirrAccount;\r\n        uint128 chapaAccount;\r\n        uint128 cbeAccount;\r\n    }\r\n\r\n//maps for the structs\r\n    mapping (string => EventLocked) private events;\r\n    string[] private eventAccounts;\r\n\r\n    mapping (string => PaymentDetails) private paymentDetails;\r\n\r\n    mapping (string => EventTicketsDetail) private eventTicket;\r\n    \r\n    //EventStaff private temp2= EventStaff(\"\",\"\",\"\");\r\n    //EventTicketsLocked private temp1= EventTicketsLocked(tempForArray,0,0,0,0,0,temp2);\r\n\r\n//modifiers\r\n\r\n///////////////////////////////////////////////////////////////////////////edit event types\r\n    modifier checkEventType(string memory _eventType) {\r\n        require(\r\n            keccak256(abi.encodePacked(_eventType)) ==\r\n                keccak256(abi.encodePacked(\"Hotel\")) ||\r\n                keccak256(abi.encodePacked(_eventType)) ==\r\n                keccak256(abi.encodePacked(\"Stadium\")) ||\r\n                keccak256(abi.encodePacked(_eventType)) ==\r\n                keccak256(abi.encodePacked(\"Outdoor Venue\")) ||\r\n                keccak256(abi.encodePacked(_eventType)) ==\r\n                keccak256(abi.encodePacked(\"Concert Hall\")) ||\r\n                keccak256(abi.encodePacked(_eventType)) ==\r\n                keccak256(abi.encodePacked(\"Theater\")) ||\r\n                keccak256(abi.encodePacked(_eventType)) ==\r\n                keccak256(abi.encodePacked(\"Confrence Center\")),\r\n            \"Wrong event type\"\r\n        );\r\n        _;\r\n    }\r\n\r\n    modifier isAccountExist(string memory _eventId){\r\n        require(keccak256(abi.encodePacked(events[_eventId].eventId)) != keccak256(abi.encodePacked(_eventId)),\"Account already exists\");\r\n        _;\r\n    }\r\n\r\n    modifier checkTheOwner(address _owner,string memory _eventId){\r\n        require(events[_eventId].owner == _owner,\"The owner is not the same\");\r\n        _;\r\n    }\r\n\r\n    modifier isAccountAvailable(string memory _eventId){\r\n        require(keccak256(abi.encodePacked(_eventId)) == keccak256(abi.encodePacked(events[_eventId].eventId)),\"Account doesnt exists\");\r\n            _;\r\n    }\r\n\r\n\r\n// function to get all the event IDs list\r\n    function getEventIDList() public view returns(string[] memory) {\r\n        return eventAccounts;\r\n    }\r\n\r\n// function to check event existance\r\n    function checkEventIDExistance(string memory tempEventID)\r\n    public view returns(bool){\r\n        for (uint256 i=0; i<eventAccounts.length; i++){\r\n            if (keccak256(abi.encodePacked(tempEventID))==keccak256(abi.encodePacked(eventAccounts[i])))\r\n            return true;\r\n        }\r\n        return false;\r\n    }\r\n\r\n//create an event function one\r\n    function createEventLocked(\r\n        string memory _eventId,\r\n        string memory _venueId,\r\n        string memory _eventName,\r\n        string memory _eventType,\r\n        string memory _description,\r\n        uint _eventPhoneNo,\r\n        uint _eventDate,\r\n        string memory _eventPhotoAddress\r\n    )  public returns(string memory){\r\n        \r\n        events[_eventId]=EventLocked(\r\n        _eventId,\r\n        msg.sender,\r\n        _venueId,\r\n        _eventName,\r\n        _eventType,\r\n        _description,\r\n        _eventPhoneNo,\r\n        \"Unavailable\",\r\n        _eventPhotoAddress,\r\n        _eventDate,\r\n        block.timestamp,\r\n        block.timestamp\r\n        );\r\n        \r\n        eventAccounts.push(_eventId);\r\n        return _eventId;\r\n    }\r\n\r\n// create event function two\r\n    function createEvent2Locked(\r\n        string memory _eventId,\r\n        uint256 _normalPrice,\r\n        uint256 _vipPrice,\r\n        uint256 _vipTickets,\r\n        uint256 _normaltickets,\r\n        uint256 _age\r\n    )  public returns(string memory){\r\n        \r\n        eventTicket[_eventId]=EventTicketsDetail(\r\n        _eventId,\r\n        _normalPrice,\r\n        _vipPrice,\r\n        _vipTickets,\r\n        _normaltickets,\r\n        _age,\r\n        \"\",\r\n        \"\"\r\n        );\r\n        \r\n        return _eventId;\r\n    }\r\n\r\n//this function will add the payment informations of the event\r\n    function addPaymentDetails(\r\n        string memory _eventId, \r\n        uint128 _telebirrAccount,\r\n        uint128 _chapaAccount,\r\n        uint128 _cbeAccount\r\n    )isAccountAvailable(_eventId) checkTheOwner(msg.sender,_eventId) public {\r\n        paymentDetails[_eventId]=PaymentDetails(\r\n            _eventId,\r\n            _telebirrAccount,\r\n            _chapaAccount,\r\n            _cbeAccount\r\n        );\r\n    }\r\n\r\n//create staff \r\n    function createStaff(\r\n        string memory _eventId,\r\n        string memory _staffUsername,\r\n        string memory _staffPassword\r\n    ) public{\r\n        eventTicket[_eventId].staffUsername=_staffUsername;\r\n        eventTicket[_eventId].staffPassword=_staffPassword;\r\n    } \r\n\r\n//return the events Id of the events that are hosted at this venue \r\n    function checkVenueRequest(string memory _venueId)public view returns(string[] memory){\r\n        string[] memory tempIdHolder;\r\n        for (uint256 i=0; i<eventAccounts.length; i++){\r\n            if (keccak256(abi.encodePacked(events[eventAccounts[i]].venueId))==keccak256(abi.encodePacked(_venueId))){\r\n                tempIdHolder[tempIdHolder.length]=events[eventAccounts[i]].eventId;\r\n            }\r\n        }\r\n        return tempIdHolder;\r\n    }\r\n\r\n//change the status of the event to available when the event paid the money\r\n    function eventPay(\r\n        string memory _eventId,\r\n        string memory _status\r\n    )public {\r\n        events[_eventId].status=_status;\r\n    } \r\n\r\n//return all information about a certain event\r\n    function getEvent1Locked(string memory tempEventID)  \r\n    public view \r\n    returns(EventLocked memory){ \r\n        return events[tempEventID]; \r\n    } \r\n    function getEvent2Locked(string memory tempEventID)  \r\n    public view \r\n    returns(EventTicketsDetail memory){ \r\n        return eventTicket[tempEventID]; \r\n    } \r\n    \r\n  function getEvent3Locked(string memory tempEventID)  \r\n    public view \r\n    returns(PaymentDetails memory){ \r\n        return paymentDetails[tempEventID]; \r\n    } \r\n//return all information about all events\r\n    function getAllEvents1Locked() public view  \r\n    returns(EventLocked[] memory){\r\n        EventLocked[] memory tempEvents = new EventLocked[](eventAccounts.length);\r\n        for (uint256 i=0; i<eventAccounts.length; i++){\r\n            tempEvents[i]= events[eventAccounts[i]];\r\n        } \r\n        return tempEvents;\r\n    }\r\n\r\n    function getAllEvents2Locked() public view  \r\n    returns(EventTicketsDetail[] memory){\r\n        EventTicketsDetail[] memory tempEvents = new EventTicketsDetail[](eventAccounts.length);\r\n        for (uint256 i=0; i<eventAccounts.length; i++){\r\n            tempEvents[i]= eventTicket[eventAccounts[i]];\r\n        } \r\n        return tempEvents;\r\n    }\r\n\r\n//gets the events the owner owns\r\n    function getOwnedEvents1Locked() view public   \r\n    returns(EventLocked[] memory){\r\n        uint256 temp=0;\r\n        for (uint256 i=0; i<eventAccounts.length; i++){\r\n            if (events[eventAccounts[i]].owner==msg.sender){\r\n                temp++;\r\n            }\r\n        }\r\n        EventLocked[] memory tempEvents = new EventLocked[](temp);\r\n        uint256 temp3=0;\r\n        for (uint256 i=0; i<eventAccounts.length; i++){\r\n            if (events[eventAccounts[i]].owner==msg.sender){\r\n                tempEvents[temp3]= events[eventAccounts[i]];\r\n                temp3++;\r\n            }\r\n        } \r\n        return tempEvents;\r\n    }\r\n\r\n\r\n    function getOwnedEvents2Locked() view public   \r\n    returns(EventTicketsDetail[] memory){\r\n        uint256 temp=0;\r\n        for (uint256 i=0; i<eventAccounts.length; i++){\r\n            if (events[eventAccounts[i]].owner==msg.sender && \r\n            keccak256(abi.encodePacked(events[eventAccounts[i]].eventId))==\r\n            keccak256(abi.encodePacked(eventTicket[eventAccounts[i]].eventId))){\r\n                temp++;\r\n            }\r\n        }\r\n\r\n        uint256 temp3=0;\r\n        EventTicketsDetail[] memory tempEvents = new EventTicketsDetail[](temp);\r\n        for (uint256 i=0; i<eventAccounts.length; i++){\r\n            if (events[eventAccounts[i]].owner==msg.sender && \r\n            keccak256(abi.encodePacked(events[eventAccounts[i]].eventId))==\r\n            keccak256(abi.encodePacked(eventTicket[eventAccounts[i]].eventId))){\r\n                tempEvents[temp3]= eventTicket[eventAccounts[i]];\r\n                temp3++;\r\n            }\r\n        } \r\n        \r\n        return tempEvents;\r\n    }\r\n\r\n    function getOwnedEvents3Locked() view public   \r\n    returns(EventLocked[] memory,EventTicketsDetail[] memory){\r\n        uint256 temp=0;\r\n        for (uint256 i=0; i<eventAccounts.length; i++){\r\n            if (events[eventAccounts[i]].owner==msg.sender && \r\n            keccak256(abi.encodePacked(events[eventAccounts[i]].eventId))==\r\n            keccak256(abi.encodePacked(eventTicket[eventAccounts[i]].eventId))){\r\n                temp++;\r\n            }\r\n        }\r\n        EventLocked[] memory tempEvents1 = new EventLocked[](temp);\r\n        uint256 temp3=0;\r\n        for (uint256 i=0; i<eventAccounts.length; i++){\r\n            if (events[eventAccounts[i]].owner==msg.sender){\r\n                tempEvents1[temp3]= events[eventAccounts[i]];\r\n                temp3++;\r\n            }\r\n        }\r\n        temp3=0;\r\n        EventTicketsDetail[] memory tempEvents2 = new EventTicketsDetail[](temp);\r\n        for (uint256 i=0; i<eventAccounts.length; i++){\r\n            if (events[eventAccounts[i]].owner==msg.sender && \r\n            keccak256(abi.encodePacked(events[eventAccounts[i]].eventId))==\r\n            keccak256(abi.encodePacked(eventTicket[eventAccounts[i]].eventId))){\r\n                tempEvents2[temp3]= eventTicket[eventAccounts[i]];\r\n                temp3++;\r\n            }\r\n        } \r\n        \r\n        return (tempEvents1,tempEvents2);\r\n    }\r\n\r\n    function returnEventAge(string memory _eventId)public view returns(uint){\r\n        return eventTicket[_eventId].age;\r\n    }\r\n\r\n//delete a certain event\r\n    function deleteEventLocked(\r\n        string memory tempEventID \r\n        )public {\r\n        delete events[tempEventID];\r\n        delete eventTicket[tempEventID];\r\n        for (uint256 i=0; i<eventAccounts.length; i++){\r\n            if (keccak256(abi.encodePacked(tempEventID))==keccak256(abi.encodePacked(eventAccounts[i]))){\r\n            eventAccounts[i]=eventAccounts[eventAccounts.length-1];\r\n            eventAccounts.pop();\r\n            break; \r\n            }\r\n        }\r\n    }\r\n}\r\n\r\n",
  "sourcePath": "C:\\Users\\hello\\Downloads\\Telegram Desktop\\test(12) - Copy (3)\\test(12) - Copy\\contracts\\Event2 (2) (2).sol",
  "compiler": {
    "name": "solc",
    "version": "0.8.0+commit.c7dfd78e.Emscripten.clang"
  },
  "schemaVersion": "3.4.16",
  "updatedAt": "2024-04-18T12:15:04.157Z",
  "networkType": "ethereum",
  "devdoc": {
    "kind": "dev",
    "methods": {},
    "version": 1
  },
  "userdoc": {
    "kind": "user",
    "methods": {},
    "version": 1
  }
}