{
  "contractName": "Tickets",
  "abi": [
    {
      "inputs": [],
      "name": "getTicketIDList",
      "outputs": [
        {
          "internalType": "string[]",
          "name": "",
          "type": "string[]"
        }
      ],
      "stateMutability": "view",
      "type": "function",
      "constant": true
    },
    {
      "inputs": [
        {
          "internalType": "string",
          "name": "tempTicketID",
          "type": "string"
        }
      ],
      "name": "checkTicketIDExistance",
      "outputs": [
        {
          "internalType": "bool",
          "name": "",
          "type": "bool"
        }
      ],
      "stateMutability": "view",
      "type": "function",
      "constant": true
    },
    {
      "inputs": [
        {
          "internalType": "string",
          "name": "tempTicketId",
          "type": "string"
        }
      ],
      "name": "getTicketLocked",
      "outputs": [
        {
          "components": [
            {
              "internalType": "string",
              "name": "ticketId",
              "type": "string"
            },
            {
              "internalType": "string",
              "name": "ticketIdentifier",
              "type": "string"
            },
            {
              "internalType": "address",
              "name": "owner",
              "type": "address"
            },
            {
              "internalType": "string",
              "name": "eventId",
              "type": "string"
            },
            {
              "internalType": "string",
              "name": "ticketLevel",
              "type": "string"
            },
            {
              "internalType": "bool",
              "name": "isScanned",
              "type": "bool"
            },
            {
              "internalType": "uint256",
              "name": "resellPrice",
              "type": "uint256"
            },
            {
              "internalType": "uint256",
              "name": "dateCreated",
              "type": "uint256"
            },
            {
              "internalType": "uint256",
              "name": "dateModified",
              "type": "uint256"
            }
          ],
          "internalType": "struct Tickets.TicketLocked",
          "name": "",
          "type": "tuple"
        }
      ],
      "stateMutability": "view",
      "type": "function",
      "constant": true
    },
    {
      "inputs": [
        {
          "internalType": "string",
          "name": "_ticketId",
          "type": "string"
        },
        {
          "internalType": "uint256",
          "name": "_ticketPrice",
          "type": "uint256"
        },
        {
          "internalType": "uint256",
          "name": "_resellPercent",
          "type": "uint256"
        }
      ],
      "name": "setTicketResellPrice",
      "outputs": [],
      "stateMutability": "nonpayable",
      "type": "function"
    },
    {
      "inputs": [],
      "name": "getEveryTicketsLocked",
      "outputs": [
        {
          "components": [
            {
              "internalType": "string",
              "name": "ticketId",
              "type": "string"
            },
            {
              "internalType": "string",
              "name": "ticketIdentifier",
              "type": "string"
            },
            {
              "internalType": "address",
              "name": "owner",
              "type": "address"
            },
            {
              "internalType": "string",
              "name": "eventId",
              "type": "string"
            },
            {
              "internalType": "string",
              "name": "ticketLevel",
              "type": "string"
            },
            {
              "internalType": "bool",
              "name": "isScanned",
              "type": "bool"
            },
            {
              "internalType": "uint256",
              "name": "resellPrice",
              "type": "uint256"
            },
            {
              "internalType": "uint256",
              "name": "dateCreated",
              "type": "uint256"
            },
            {
              "internalType": "uint256",
              "name": "dateModified",
              "type": "uint256"
            }
          ],
          "internalType": "struct Tickets.TicketLocked[]",
          "name": "",
          "type": "tuple[]"
        }
      ],
      "stateMutability": "view",
      "type": "function",
      "constant": true
    },
    {
      "inputs": [
        {
          "internalType": "address",
          "name": "_owner",
          "type": "address"
        }
      ],
      "name": "getAllTicketsLocked",
      "outputs": [
        {
          "components": [
            {
              "internalType": "string",
              "name": "ticketId",
              "type": "string"
            },
            {
              "internalType": "string",
              "name": "ticketIdentifier",
              "type": "string"
            },
            {
              "internalType": "address",
              "name": "owner",
              "type": "address"
            },
            {
              "internalType": "string",
              "name": "eventId",
              "type": "string"
            },
            {
              "internalType": "string",
              "name": "ticketLevel",
              "type": "string"
            },
            {
              "internalType": "bool",
              "name": "isScanned",
              "type": "bool"
            },
            {
              "internalType": "uint256",
              "name": "resellPrice",
              "type": "uint256"
            },
            {
              "internalType": "uint256",
              "name": "dateCreated",
              "type": "uint256"
            },
            {
              "internalType": "uint256",
              "name": "dateModified",
              "type": "uint256"
            }
          ],
          "internalType": "struct Tickets.TicketLocked[]",
          "name": "",
          "type": "tuple[]"
        }
      ],
      "stateMutability": "view",
      "type": "function",
      "constant": true
    },
    {
      "inputs": [
        {
          "internalType": "string",
          "name": "_ticketId",
          "type": "string"
        },
        {
          "internalType": "string",
          "name": "_ticketIdentifier",
          "type": "string"
        },
        {
          "internalType": "string",
          "name": "_eventId",
          "type": "string"
        },
        {
          "internalType": "string",
          "name": "_ticketLevel",
          "type": "string"
        }
      ],
      "name": "createTicketLocked",
      "outputs": [],
      "stateMutability": "nonpayable",
      "type": "function"
    },
    {
      "inputs": [
        {
          "internalType": "string",
          "name": "tempTicketID",
          "type": "string"
        }
      ],
      "name": "scanTicketLocked",
      "outputs": [],
      "stateMutability": "nonpayable",
      "type": "function"
    },
    {
      "inputs": [
        {
          "internalType": "address",
          "name": "buyer",
          "type": "address"
        },
        {
          "internalType": "string",
          "name": "tempTicketID",
          "type": "string"
        }
      ],
      "name": "resellTicketLocked",
      "outputs": [],
      "stateMutability": "nonpayable",
      "type": "function"
    },
    {
      "inputs": [
        {
          "internalType": "string",
          "name": "tempTicketID",
          "type": "string"
        }
      ],
      "name": "deleteTicketLocked",
      "outputs": [],
      "stateMutability": "nonpayable",
      "type": "function"
    }
  ],
  "bytecode": "0x608060405234801561001057600080fd5b506125ca806100206000396000f3fe608060405234801561001057600080fd5b506004361061009e5760003560e01c80639b62b13d116100665780639b62b13d14610133578063a685c1431461014f578063b8724bfa1461017f578063e3f42754146101af578063fc6ce78e146101cb5761009e565b80630719440f146100a3578063493b5375146100bf578063676d0d54146100db5780636dd614fd146100f95780637bccc47c14610115575b600080fd5b6100bd60048036038101906100b89190611bc1565b6101fb565b005b6100d960048036038101906100d49190611c02565b61045f565b005b6100e3610616565b6040516100f09190612145565b60405180910390f35b610113600480360381019061010e9190611cc5565b6106ef565b005b61011d6107f7565b60405161012a9190612167565b60405180910390f35b61014d60048036038101906101489190611b6d565b610c2f565b005b61016960048036038101906101649190611bc1565b610c93565b6040516101769190612189565b60405180910390f35b61019960048036038101906101949190611bc1565b610d67565b6040516101a691906121a4565b60405180910390f35b6101c960048036038101906101c49190611bc1565b611077565b005b6101e560048036038101906101e09190611b44565b6112f3565b6040516101f29190612167565b60405180910390f35b6002819080600181540180825580915050600190039060005260206000200160009091909190915090805190602001906102369291906118de565b5060016000826040516102499190612117565b908152602001604051809103902060050160006101000a81548160ff021916908315150217905550426000826040516102829190612117565b90815260200160405180910390206008018190555060005b60018054905081101561045b57600181815481106102e1577f4e487b7100000000000000000000000000000000000000000000000000000000600052603260045260246000fd5b906000526020600020016040516020016102fb919061212e565b60405160208183030381529060405280519060200120826040516020016103229190612117565b6040516020818303038152906040528051906020012014156104485760018080805490506103509190612360565b81548110610387577f4e487b7100000000000000000000000000000000000000000000000000000000600052603260045260246000fd5b90600052602060002001600182815481106103cb577f4e487b7100000000000000000000000000000000000000000000000000000000600052603260045260246000fd5b906000526020600020019080546103e19061241e565b6103ec929190611964565b506001805480610425577f4e487b7100000000000000000000000000000000000000000000000000000000600052603160045260246000fd5b60019003818190600052602060002001600061044191906119f1565b905561045b565b808061045390612450565b91505061029a565b5050565b6040518061012001604052808581526020018481526020013373ffffffffffffffffffffffffffffffffffffffff16815260200183815260200182815260200160001515815260200160008152602001428152602001428152506000856040516104c99190612117565b908152602001604051809103902060008201518160000190805190602001906104f39291906118de565b5060208201518160010190805190602001906105109291906118de565b5060408201518160020160006101000a81548173ffffffffffffffffffffffffffffffffffffffff021916908373ffffffffffffffffffffffffffffffffffffffff16021790555060608201518160030190805190602001906105749291906118de565b5060808201518160040190805190602001906105919291906118de565b5060a08201518160050160006101000a81548160ff02191690831515021790555060c0820151816006015560e08201518160070155610100820151816008015590505060018490806001815401808255809150506001900390600052602060002001600090919091909150908051906020019061060f9291906118de565b5050505050565b60606001805480602002602001604051908101604052809291908181526020016000905b828210156106e65783829060005260206000200180546106599061241e565b80601f01602080910402602001604051908101604052809291908181526020018280546106859061241e565b80156106d25780601f106106a7576101008083540402835291602001916106d2565b820191906000526020600020905b8154815290600101906020018083116106b557829003601f168201915b50505050508152602001906001019061063a565b50505050905090565b60058114156107465760646005836107079190612306565b61071191906122d5565b8261071c9190612360565b60008460405161072c9190612117565b9081526020016040518091039020600601819055506107f2565b600a81141561079d576064600a8361075e9190612306565b61076891906122d5565b826107739190612360565b6000846040516107839190612117565b9081526020016040518091039020600601819055506107f1565b600f8114156107f0576064600f836107b59190612306565b6107bf91906122d5565b826107ca9190612360565b6000846040516107da9190612117565b9081526020016040518091039020600601819055505b5b5b505050565b6060600060018054905067ffffffffffffffff811115610840577f4e487b7100000000000000000000000000000000000000000000000000000000600052604160045260246000fd5b60405190808252806020026020018201604052801561087957816020015b610866611a31565b81526020019060019003908161085e5790505b50905060005b600180549050811015610c27576000600182815481106108c8577f4e487b7100000000000000000000000000000000000000000000000000000000600052603260045260246000fd5b906000526020600020016040516108df919061212e565b9081526020016040518091039020604051806101200160405290816000820180546109099061241e565b80601f01602080910402602001604051908101604052809291908181526020018280546109359061241e565b80156109825780601f1061095757610100808354040283529160200191610982565b820191906000526020600020905b81548152906001019060200180831161096557829003601f168201915b5050505050815260200160018201805461099b9061241e565b80601f01602080910402602001604051908101604052809291908181526020018280546109c79061241e565b8015610a145780601f106109e957610100808354040283529160200191610a14565b820191906000526020600020905b8154815290600101906020018083116109f757829003601f168201915b505050505081526020016002820160009054906101000a900473ffffffffffffffffffffffffffffffffffffffff1673ffffffffffffffffffffffffffffffffffffffff1673ffffffffffffffffffffffffffffffffffffffff168152602001600382018054610a839061241e565b80601f0160208091040260200160405190810160405280929190818152602001828054610aaf9061241e565b8015610afc5780601f10610ad157610100808354040283529160200191610afc565b820191906000526020600020905b815481529060010190602001808311610adf57829003601f168201915b50505050508152602001600482018054610b159061241e565b80601f0160208091040260200160405190810160405280929190818152602001828054610b419061241e565b8015610b8e5780601f10610b6357610100808354040283529160200191610b8e565b820191906000526020600020905b815481529060010190602001808311610b7157829003601f168201915b505050505081526020016005820160009054906101000a900460ff161515151581526020016006820154815260200160078201548152602001600882015481525050828281518110610c09577f4e487b7100000000000000000000000000000000000000000000000000000000600052603260045260246000fd5b60200260200101819052508080610c1f90612450565b91505061087f565b508091505090565b81600082604051610c409190612117565b908152602001604051809103902060020160006101000a81548173ffffffffffffffffffffffffffffffffffffffff021916908373ffffffffffffffffffffffffffffffffffffffff1602179055505050565b600080600090505b600180549050811015610d5c5760018181548110610ce2577f4e487b7100000000000000000000000000000000000000000000000000000000600052603260045260246000fd5b90600052602060002001604051602001610cfc919061212e565b6040516020818303038152906040528051906020012083604051602001610d239190612117565b604051602081830303815290604052805190602001201415610d49576001915050610d62565b8080610d5490612450565b915050610c9b565b50600090505b919050565b610d6f611a31565b600082604051610d7f9190612117565b908152602001604051809103902060405180610120016040529081600082018054610da99061241e565b80601f0160208091040260200160405190810160405280929190818152602001828054610dd59061241e565b8015610e225780601f10610df757610100808354040283529160200191610e22565b820191906000526020600020905b815481529060010190602001808311610e0557829003601f168201915b50505050508152602001600182018054610e3b9061241e565b80601f0160208091040260200160405190810160405280929190818152602001828054610e679061241e565b8015610eb45780601f10610e8957610100808354040283529160200191610eb4565b820191906000526020600020905b815481529060010190602001808311610e9757829003601f168201915b505050505081526020016002820160009054906101000a900473ffffffffffffffffffffffffffffffffffffffff1673ffffffffffffffffffffffffffffffffffffffff1673ffffffffffffffffffffffffffffffffffffffff168152602001600382018054610f239061241e565b80601f0160208091040260200160405190810160405280929190818152602001828054610f4f9061241e565b8015610f9c5780601f10610f7157610100808354040283529160200191610f9c565b820191906000526020600020905b815481529060010190602001808311610f7f57829003601f168201915b50505050508152602001600482018054610fb59061241e565b80601f0160208091040260200160405190810160405280929190818152602001828054610fe19061241e565b801561102e5780601f106110035761010080835404028352916020019161102e565b820191906000526020600020905b81548152906001019060200180831161101157829003601f168201915b505050505081526020016005820160009054906101000a900460ff1615151515815260200160068201548152602001600782015481526020016008820154815250509050919050565b6000816040516110879190612117565b9081526020016040518091039020600080820160006110a691906119f1565b6001820160006110b691906119f1565b6002820160006101000a81549073ffffffffffffffffffffffffffffffffffffffff02191690556003820160006110ed91906119f1565b6004820160006110fd91906119f1565b6005820160006101000a81549060ff0219169055600682016000905560078201600090556008820160009055505060005b6001805490508110156112ef5760018181548110611175577f4e487b7100000000000000000000000000000000000000000000000000000000600052603260045260246000fd5b9060005260206000200160405160200161118f919061212e565b60405160208183030381529060405280519060200120826040516020016111b69190612117565b6040516020818303038152906040528051906020012014156112dc5760018080805490506111e49190612360565b8154811061121b577f4e487b7100000000000000000000000000000000000000000000000000000000600052603260045260246000fd5b906000526020600020016001828154811061125f577f4e487b7100000000000000000000000000000000000000000000000000000000600052603260045260246000fd5b906000526020600020019080546112759061241e565b611280929190611964565b5060018054806112b9577f4e487b7100000000000000000000000000000000000000000000000000000000600052603160045260246000fd5b6001900381819060005260206000200160006112d591906119f1565b90556112ef565b80806112e790612450565b91505061112e565b5050565b60606000805b6001805490508110156113e0578373ffffffffffffffffffffffffffffffffffffffff16600060018381548110611359577f4e487b7100000000000000000000000000000000000000000000000000000000600052603260045260246000fd5b90600052602060002001604051611370919061212e565b908152602001604051809103902060020160009054906101000a900473ffffffffffffffffffffffffffffffffffffffff1673ffffffffffffffffffffffffffffffffffffffff1614156113cd5781806113c990612450565b9250505b80806113d890612450565b9150506112f9565b5060008167ffffffffffffffff811115611423577f4e487b7100000000000000000000000000000000000000000000000000000000600052604160045260246000fd5b60405190808252806020026020018201604052801561145c57816020015b611449611a31565b8152602001906001900390816114415790505b5090506000805b6001805490508110156118d2578573ffffffffffffffffffffffffffffffffffffffff166000600183815481106114c3577f4e487b7100000000000000000000000000000000000000000000000000000000600052603260045260246000fd5b906000526020600020016040516114da919061212e565b908152602001604051809103902060020160009054906101000a900473ffffffffffffffffffffffffffffffffffffffff1673ffffffffffffffffffffffffffffffffffffffff1614156118bf57600060018281548110611564577f4e487b7100000000000000000000000000000000000000000000000000000000600052603260045260246000fd5b9060005260206000200160405161157b919061212e565b9081526020016040518091039020604051806101200160405290816000820180546115a59061241e565b80601f01602080910402602001604051908101604052809291908181526020018280546115d19061241e565b801561161e5780601f106115f35761010080835404028352916020019161161e565b820191906000526020600020905b81548152906001019060200180831161160157829003601f168201915b505050505081526020016001820180546116379061241e565b80601f01602080910402602001604051908101604052809291908181526020018280546116639061241e565b80156116b05780601f10611685576101008083540402835291602001916116b0565b820191906000526020600020905b81548152906001019060200180831161169357829003601f168201915b505050505081526020016002820160009054906101000a900473ffffffffffffffffffffffffffffffffffffffff1673ffffffffffffffffffffffffffffffffffffffff1673ffffffffffffffffffffffffffffffffffffffff16815260200160038201805461171f9061241e565b80601f016020809104026020016040519081016040528092919081815260200182805461174b9061241e565b80156117985780601f1061176d57610100808354040283529160200191611798565b820191906000526020600020905b81548152906001019060200180831161177b57829003601f168201915b505050505081526020016004820180546117b19061241e565b80601f01602080910402602001604051908101604052809291908181526020018280546117dd9061241e565b801561182a5780601f106117ff5761010080835404028352916020019161182a565b820191906000526020600020905b81548152906001019060200180831161180d57829003601f168201915b505050505081526020016005820160009054906101000a900460ff1615151515815260200160068201548152602001600782015481526020016008820154815250508383815181106118a5577f4e487b7100000000000000000000000000000000000000000000000000000000600052603260045260246000fd5b602002602001018190525081806118bb90612450565b9250505b80806118ca90612450565b915050611463565b50819350505050919050565b8280546118ea9061241e565b90600052602060002090601f01602090048101928261190c5760008555611953565b82601f1061192557805160ff1916838001178555611953565b82800160010185558215611953579182015b82811115611952578251825591602001919060010190611937565b5b5090506119609190611a95565b5090565b8280546119709061241e565b90600052602060002090601f01602090048101928261199257600085556119e0565b82601f106119a357805485556119e0565b828001600101855582156119e057600052602060002091601f016020900482015b828111156119df5782548255916001019190600101906119c4565b5b5090506119ed9190611a95565b5090565b5080546119fd9061241e565b6000825580601f10611a0f5750611a2e565b601f016020900490600052602060002090810190611a2d9190611a95565b5b50565b6040518061012001604052806060815260200160608152602001600073ffffffffffffffffffffffffffffffffffffffff16815260200160608152602001606081526020016000151581526020016000815260200160008152602001600081525090565b5b80821115611aae576000816000905550600101611a96565b5090565b6000611ac5611ac0846121f7565b6121c6565b905082815260208101848484011115611add57600080fd5b611ae88482856123dc565b509392505050565b600081359050611aff81612566565b92915050565b600082601f830112611b1657600080fd5b8135611b26848260208601611ab2565b91505092915050565b600081359050611b3e8161257d565b92915050565b600060208284031215611b5657600080fd5b6000611b6484828501611af0565b91505092915050565b60008060408385031215611b8057600080fd5b6000611b8e85828601611af0565b925050602083013567ffffffffffffffff811115611bab57600080fd5b611bb785828601611b05565b9150509250929050565b600060208284031215611bd357600080fd5b600082013567ffffffffffffffff811115611bed57600080fd5b611bf984828501611b05565b91505092915050565b60008060008060808587031215611c1857600080fd5b600085013567ffffffffffffffff811115611c3257600080fd5b611c3e87828801611b05565b945050602085013567ffffffffffffffff811115611c5b57600080fd5b611c6787828801611b05565b935050604085013567ffffffffffffffff811115611c8457600080fd5b611c9087828801611b05565b925050606085013567ffffffffffffffff811115611cad57600080fd5b611cb987828801611b05565b91505092959194509250565b600080600060608486031215611cda57600080fd5b600084013567ffffffffffffffff811115611cf457600080fd5b611d0086828701611b05565b9350506020611d1186828701611b2f565b9250506040611d2286828701611b2f565b9150509250925092565b6000611d388383611e6b565b905092915050565b6000611d4c8383611f54565b905092915050565b611d5d81612394565b82525050565b6000611d6e8261225c565b611d788185612297565b935083602082028501611d8a85612227565b8060005b85811015611dc65784840389528151611da78582611d2c565b9450611db28361227d565b925060208a01995050600181019050611d8e565b50829750879550505050505092915050565b6000611de382612267565b611ded81856122a8565b935083602082028501611dff85612237565b8060005b85811015611e3b5784840389528151611e1c8582611d40565b9450611e278361228a565b925060208a01995050600181019050611e03565b50829750879550505050505092915050565b611e56816123a6565b82525050565b611e65816123a6565b82525050565b6000611e7682612272565b611e8081856122b9565b9350611e908185602086016123eb565b611e9981612555565b840191505092915050565b6000611eaf82612272565b611eb981856122ca565b9350611ec98185602086016123eb565b80840191505092915050565b60008154611ee28161241e565b611eec81866122ca565b94506001821660008114611f075760018114611f1857611f4b565b60ff19831686528186019350611f4b565b611f2185612247565b60005b83811015611f4357815481890152600182019150602081019050611f24565b838801955050505b50505092915050565b6000610120830160008301518482036000860152611f728282611e6b565b91505060208301518482036020860152611f8c8282611e6b565b9150506040830151611fa16040860182611d54565b5060608301518482036060860152611fb98282611e6b565b91505060808301518482036080860152611fd38282611e6b565b91505060a0830151611fe860a0860182611e4d565b5060c0830151611ffb60c0860182612108565b5060e083015161200e60e0860182612108565b50610100830151612023610100860182612108565b508091505092915050565b600061012083016000830151848203600086015261204c8282611e6b565b915050602083015184820360208601526120668282611e6b565b915050604083015161207b6040860182611d54565b50606083015184820360608601526120938282611e6b565b915050608083015184820360808601526120ad8282611e6b565b91505060a08301516120c260a0860182611e4d565b5060c08301516120d560c0860182612108565b5060e08301516120e860e0860182612108565b506101008301516120fd610100860182612108565b508091505092915050565b612111816123d2565b82525050565b60006121238284611ea4565b915081905092915050565b600061213a8284611ed5565b915081905092915050565b6000602082019050818103600083015261215f8184611d63565b905092915050565b600060208201905081810360008301526121818184611dd8565b905092915050565b600060208201905061219e6000830184611e5c565b92915050565b600060208201905081810360008301526121be818461202e565b905092915050565b6000604051905081810181811067ffffffffffffffff821117156121ed576121ec612526565b5b8060405250919050565b600067ffffffffffffffff82111561221257612211612526565b5b601f19601f8301169050602081019050919050565b6000819050602082019050919050565b6000819050602082019050919050565b60008190508160005260206000209050919050565b600081519050919050565b600081519050919050565b600081519050919050565b6000602082019050919050565b6000602082019050919050565b600082825260208201905092915050565b600082825260208201905092915050565b600082825260208201905092915050565b600081905092915050565b60006122e0826123d2565b91506122eb836123d2565b9250826122fb576122fa6124c8565b5b828204905092915050565b6000612311826123d2565b915061231c836123d2565b9250817fffffffffffffffffffffffffffffffffffffffffffffffffffffffffffffffff048311821515161561235557612354612499565b5b828202905092915050565b600061236b826123d2565b9150612376836123d2565b92508282101561238957612388612499565b5b828203905092915050565b600061239f826123b2565b9050919050565b60008115159050919050565b600073ffffffffffffffffffffffffffffffffffffffff82169050919050565b6000819050919050565b82818337600083830152505050565b60005b838110156124095780820151818401526020810190506123ee565b83811115612418576000848401525b50505050565b6000600282049050600182168061243657607f821691505b6020821081141561244a576124496124f7565b5b50919050565b600061245b826123d2565b91507fffffffffffffffffffffffffffffffffffffffffffffffffffffffffffffffff82141561248e5761248d612499565b5b600182019050919050565b7f4e487b7100000000000000000000000000000000000000000000000000000000600052601160045260246000fd5b7f4e487b7100000000000000000000000000000000000000000000000000000000600052601260045260246000fd5b7f4e487b7100000000000000000000000000000000000000000000000000000000600052602260045260246000fd5b7f4e487b7100000000000000000000000000000000000000000000000000000000600052604160045260246000fd5b6000601f19601f8301169050919050565b61256f81612394565b811461257a57600080fd5b50565b612586816123d2565b811461259157600080fd5b5056fea2646970667358221220535802963967fa88ca2b45df1aa5389b80bd1a105fb60a798133fd1b84b4934064736f6c63430008000033",
  "immutableReferences": {},
  "source": "//SPDX-License-Identifier: MIT\r\npragma solidity ^0.8.0;\r\n\r\ncontract Tickets{\r\n    \r\n    struct TicketLocked{\r\n        string ticketId;\r\n        string ticketIdentifier;\r\n        address owner;\r\n        string eventId;\r\n        string ticketLevel; //normal or vip\r\n        bool isScanned; // scanned or not scanned\r\n        uint resellPrice;\r\n        uint256 dateCreated;\r\n        uint256 dateModified;\r\n    }\r\n\r\n    mapping (string => TicketLocked) private tickets;\r\n    string[] private ticketAccounts;\r\n    string[] private ticketsScanned;\r\n    \r\n\r\n    function getTicketIDList() public view returns(string[] memory) {\r\n        return ticketAccounts;\r\n    }\r\n\r\n    function checkTicketIDExistance(string memory tempTicketID)\r\n    public view returns(bool){\r\n        for (uint256 i=0; i<ticketAccounts.length; i++){\r\n            if (keccak256(abi.encodePacked(tempTicketID))==keccak256(abi.encodePacked(ticketAccounts[i])))\r\n            return true;\r\n        }\r\n        return false;\r\n    }\r\n\r\n//return all information about a certain ticket\r\n    function getTicketLocked(string memory tempTicketId) public view  \r\n    returns(TicketLocked memory){ \r\n        return tickets[tempTicketId]; \r\n    }\r\n\r\n//return set the resell price of the ticket\r\n    function setTicketResellPrice(string memory _ticketId,uint _ticketPrice, uint _resellPercent) public  \r\n    { \r\n        if (_resellPercent == 5){\r\n            tickets[_ticketId].resellPrice=(_ticketPrice-((_ticketPrice * 5)/100));\r\n        }else if (_resellPercent == 10){\r\n            tickets[_ticketId].resellPrice=(_ticketPrice-((_ticketPrice * 10)/100));\r\n        }else if (_resellPercent == 15){\r\n            tickets[_ticketId].resellPrice=(_ticketPrice-((_ticketPrice * 15)/100));\r\n        }\r\n    }\r\n    //\r\nfunction getEveryTicketsLocked() view public returns (TicketLocked[] memory) {\r\n    TicketLocked[] memory tempTickets = new TicketLocked[](ticketAccounts.length);\r\n\r\n    for (uint256 i = 0; i < ticketAccounts.length; i++) {\r\n        tempTickets[i] = tickets[ticketAccounts[i]];\r\n    }\r\n\r\n    return tempTickets;\r\n}\r\n//return all information about all tickets the user owns\r\nfunction getAllTicketsLocked(address _owner) public view returns (TicketLocked[] memory) {\r\n    uint256 temp = 0;\r\n    for (uint256 i = 0; i < ticketAccounts.length; i++) {\r\n        if (tickets[ticketAccounts[i]].owner == _owner) {\r\n            temp++;\r\n        }\r\n    }\r\n\r\n    TicketLocked[] memory tempTickets = new TicketLocked[](temp);\r\n    uint256 index = 0;\r\n    for (uint256 i = 0; i < ticketAccounts.length; i++) {\r\n        if (tickets[ticketAccounts[i]].owner == _owner) {\r\n            tempTickets[index] = tickets[ticketAccounts[i]];\r\n            index++;\r\n        }\r\n    }\r\n\r\n    return tempTickets;\r\n}\r\n\r\n\r\n//generate a ticket\r\n    function createTicketLocked(\r\n        string memory _ticketId,\r\n        string memory _ticketIdentifier,\r\n        string memory _eventId,\r\n        string memory _ticketLevel //normal or vip\r\n    )public {\r\n        //string venueAddress= keccak256(abi.encodePacked(_venueID));\r\n        tickets[_ticketId]=TicketLocked(\r\n        _ticketId,\r\n        _ticketIdentifier,\r\n        msg.sender,\r\n        _eventId,\r\n        _ticketLevel,\r\n        //_qrAddress,\r\n        false,\r\n        0,\r\n        block.timestamp,\r\n        block.timestamp\r\n        );\r\n        ticketAccounts.push(_ticketId);\r\n    }\r\n\r\n\r\n    \r\n//\r\n//    function getQRAddress(\r\n//        string memory tempTicketId\r\n//        )public view returns(string memory){\r\n//            return(tickets[tempTicketId].qrAddress);\r\n//    }\r\n\r\n//scan a ticket\r\n    function scanTicketLocked(string memory tempTicketID)public {\r\n        ticketsScanned.push(tempTicketID);\r\n        tickets[tempTicketID].isScanned=true;\r\n        tickets[tempTicketID].dateModified= block.timestamp;\r\n        for (uint256 i=0; i<ticketAccounts.length; i++){\r\n            if (keccak256(abi.encodePacked(tempTicketID))==keccak256(abi.encodePacked(ticketAccounts[i]))){\r\n            ticketAccounts[i]=ticketAccounts[ticketAccounts.length-1];\r\n            ticketAccounts.pop();\r\n            break;\r\n            }\r\n        }\r\n    }\r\n\r\n//resell a ticket\r\n    function resellTicketLocked(\r\n        address buyer, \r\n        string memory tempTicketID\r\n        )public {\r\n        tickets[tempTicketID].owner= buyer;\r\n    }\r\n\r\n//delete a ticket\r\n    function deleteTicketLocked(\r\n        string memory tempTicketID\r\n        )public {//should first be scanned //all the tickets\r\n        delete tickets[tempTicketID];\r\n        for (uint256 i=0; i<ticketAccounts.length; i++){\r\n            if (keccak256(abi.encodePacked(tempTicketID))==keccak256(abi.encodePacked(ticketAccounts[i]))){\r\n            ticketAccounts[i]=ticketAccounts[ticketAccounts.length-1];\r\n            ticketAccounts.pop();\r\n            break; \r\n            }\r\n        }\r\n    }\r\n}",
  "sourcePath": "C:\\Users\\hello\\Downloads\\Telegram Desktop\\test(12) - Copy (3)\\test(12) - Copy\\contracts\\Ticket (3).sol",
  "compiler": {
    "name": "solc",
    "version": "0.8.0+commit.c7dfd78e.Emscripten.clang"
  },
  "schemaVersion": "3.4.16",
  "updatedAt": "2024-03-30T08:45:19.343Z",
  "networkType": "ethereum",
  "devdoc": {
    "kind": "dev",
    "methods": {},
    "version": 1
  },
  "userdoc": {
    "kind": "user",
    "methods": {},
    "version": 1
  }
}