{
  "contractName": "Venues",
  "abi": [
    {
      "inputs": [],
      "name": "getVenueIDList",
      "outputs": [
        {
          "internalType": "string[]",
          "name": "",
          "type": "string[]"
        }
      ],
      "stateMutability": "view",
      "type": "function",
      "constant": true
    },
    {
      "inputs": [],
      "name": "getBookedId",
      "outputs": [
        {
          "internalType": "uint256[]",
          "name": "",
          "type": "uint256[]"
        }
      ],
      "stateMutability": "view",
      "type": "function",
      "constant": true
    },
    {
      "inputs": [],
      "name": "getAllBookedDates",
      "outputs": [
        {
          "components": [
            {
              "internalType": "string",
              "name": "venueId",
              "type": "string"
            },
            {
              "internalType": "uint256",
              "name": "date",
              "type": "uint256"
            }
          ],
          "internalType": "struct Venues.BookedDates[]",
          "name": "",
          "type": "tuple[]"
        }
      ],
      "stateMutability": "view",
      "type": "function",
      "constant": true
    },
    {
      "inputs": [
        {
          "internalType": "string",
          "name": "tempVenueID",
          "type": "string"
        }
      ],
      "name": "checkVenueIDExistance",
      "outputs": [
        {
          "internalType": "bool",
          "name": "",
          "type": "bool"
        }
      ],
      "stateMutability": "view",
      "type": "function",
      "constant": true
    },
    {
      "inputs": [
        {
          "internalType": "string",
          "name": "_venueID",
          "type": "string"
        },
        {
          "internalType": "string",
          "name": "_venueName",
          "type": "string"
        },
        {
          "internalType": "string",
          "name": "_venueType",
          "type": "string"
        },
        {
          "internalType": "string",
          "name": "_location",
          "type": "string"
        },
        {
          "internalType": "string",
          "name": "_description",
          "type": "string"
        },
        {
          "internalType": "uint64",
          "name": "_venuePhoneNo",
          "type": "uint64"
        },
        {
          "internalType": "uint32",
          "name": "_maxCapacity",
          "type": "uint32"
        }
      ],
      "name": "createVenueLocked",
      "outputs": [],
      "stateMutability": "nonpayable",
      "type": "function"
    },
    {
      "inputs": [
        {
          "internalType": "string",
          "name": "_venueId",
          "type": "string"
        },
        {
          "internalType": "string",
          "name": "_venuePhotoAddress1",
          "type": "string"
        },
        {
          "internalType": "string",
          "name": "_venuePhotoAddress2",
          "type": "string"
        },
        {
          "internalType": "string",
          "name": "_venuePhotoAddress3",
          "type": "string"
        }
      ],
      "name": "addVenuePhotoLocked",
      "outputs": [],
      "stateMutability": "nonpayable",
      "type": "function"
    },
    {
      "inputs": [
        {
          "internalType": "string",
          "name": "_venueId",
          "type": "string"
        },
        {
          "internalType": "uint32",
          "name": "_price",
          "type": "uint32"
        },
        {
          "internalType": "uint128",
          "name": "_telebirrAccount",
          "type": "uint128"
        },
        {
          "internalType": "uint128",
          "name": "_chapaAccount",
          "type": "uint128"
        },
        {
          "internalType": "uint128",
          "name": "_cbeAccount",
          "type": "uint128"
        }
      ],
      "name": "addPaymentDetails",
      "outputs": [],
      "stateMutability": "nonpayable",
      "type": "function"
    },
    {
      "inputs": [
        {
          "internalType": "string",
          "name": "_venueId",
          "type": "string"
        },
        {
          "internalType": "string",
          "name": "_catering",
          "type": "string"
        },
        {
          "internalType": "string",
          "name": "_parking",
          "type": "string"
        },
        {
          "internalType": "string",
          "name": "_bar",
          "type": "string"
        },
        {
          "internalType": "string",
          "name": "_staffing",
          "type": "string"
        },
        {
          "internalType": "string",
          "name": "_decore",
          "type": "string"
        },
        {
          "internalType": "string",
          "name": "_audiovisual",
          "type": "string"
        }
      ],
      "name": "addVenueService",
      "outputs": [],
      "stateMutability": "nonpayable",
      "type": "function"
    },
    {
      "inputs": [
        {
          "internalType": "string",
          "name": "_venueId",
          "type": "string"
        },
        {
          "internalType": "uint256",
          "name": "_date",
          "type": "uint256"
        }
      ],
      "name": "checkIsDateBooked",
      "outputs": [
        {
          "internalType": "bool",
          "name": "",
          "type": "bool"
        }
      ],
      "stateMutability": "view",
      "type": "function",
      "constant": true
    },
    {
      "inputs": [
        {
          "internalType": "string",
          "name": "_venueId",
          "type": "string"
        },
        {
          "internalType": "uint256",
          "name": "_date",
          "type": "uint256"
        }
      ],
      "name": "addBookedDate",
      "outputs": [],
      "stateMutability": "nonpayable",
      "type": "function"
    },
    {
      "inputs": [
        {
          "internalType": "string",
          "name": "_venueId",
          "type": "string"
        }
      ],
      "name": "getBookedDates",
      "outputs": [
        {
          "components": [
            {
              "internalType": "string",
              "name": "venueId",
              "type": "string"
            },
            {
              "internalType": "uint256",
              "name": "date",
              "type": "uint256"
            }
          ],
          "internalType": "struct Venues.BookedDates[]",
          "name": "",
          "type": "tuple[]"
        }
      ],
      "stateMutability": "view",
      "type": "function",
      "constant": true
    },
    {
      "inputs": [
        {
          "internalType": "string",
          "name": "_venueId",
          "type": "string"
        },
        {
          "internalType": "string",
          "name": "_status",
          "type": "string"
        }
      ],
      "name": "updateStatusVenueLocked",
      "outputs": [],
      "stateMutability": "nonpayable",
      "type": "function"
    },
    {
      "inputs": [
        {
          "internalType": "string",
          "name": "_venueId",
          "type": "string"
        }
      ],
      "name": "getVenueLocked",
      "outputs": [
        {
          "components": [
            {
              "internalType": "string",
              "name": "venueId",
              "type": "string"
            },
            {
              "internalType": "address",
              "name": "owner",
              "type": "address"
            },
            {
              "internalType": "string",
              "name": "venueName",
              "type": "string"
            },
            {
              "internalType": "string",
              "name": "venueType",
              "type": "string"
            },
            {
              "internalType": "string",
              "name": "location",
              "type": "string"
            },
            {
              "internalType": "string",
              "name": "description",
              "type": "string"
            },
            {
              "internalType": "uint64",
              "name": "venuePhoneNo",
              "type": "uint64"
            },
            {
              "internalType": "uint32",
              "name": "maxCapacity",
              "type": "uint32"
            },
            {
              "internalType": "string",
              "name": "status",
              "type": "string"
            },
            {
              "internalType": "uint256",
              "name": "dateCreated",
              "type": "uint256"
            },
            {
              "internalType": "uint256",
              "name": "dateModified",
              "type": "uint256"
            }
          ],
          "internalType": "struct Venues.VenueLocked",
          "name": "",
          "type": "tuple"
        }
      ],
      "stateMutability": "view",
      "type": "function",
      "constant": true
    },
    {
      "inputs": [
        {
          "internalType": "string",
          "name": "_venueId",
          "type": "string"
        }
      ],
      "name": "getPaymentDetails",
      "outputs": [
        {
          "components": [
            {
              "internalType": "string",
              "name": "venueId",
              "type": "string"
            },
            {
              "internalType": "uint32",
              "name": "price",
              "type": "uint32"
            },
            {
              "internalType": "uint128",
              "name": "telebirrAccount",
              "type": "uint128"
            },
            {
              "internalType": "uint128",
              "name": "chapaAccount",
              "type": "uint128"
            },
            {
              "internalType": "uint128",
              "name": "cbeAccount",
              "type": "uint128"
            }
          ],
          "internalType": "struct Venues.PaymentDetails",
          "name": "",
          "type": "tuple"
        }
      ],
      "stateMutability": "view",
      "type": "function",
      "constant": true
    },
    {
      "inputs": [
        {
          "internalType": "string",
          "name": "_venueId",
          "type": "string"
        }
      ],
      "name": "getVenueService",
      "outputs": [
        {
          "components": [
            {
              "internalType": "string",
              "name": "venueId",
              "type": "string"
            },
            {
              "internalType": "string",
              "name": "catering",
              "type": "string"
            },
            {
              "internalType": "string",
              "name": "parking",
              "type": "string"
            },
            {
              "internalType": "string",
              "name": "bar",
              "type": "string"
            },
            {
              "internalType": "string",
              "name": "staffing",
              "type": "string"
            },
            {
              "internalType": "string",
              "name": "decore",
              "type": "string"
            },
            {
              "internalType": "string",
              "name": "audiovisual",
              "type": "string"
            }
          ],
          "internalType": "struct Venues.VenueService",
          "name": "",
          "type": "tuple"
        }
      ],
      "stateMutability": "view",
      "type": "function",
      "constant": true
    },
    {
      "inputs": [
        {
          "internalType": "string",
          "name": "_venueId",
          "type": "string"
        }
      ],
      "name": "getPhotoAddress",
      "outputs": [
        {
          "components": [
            {
              "internalType": "string",
              "name": "venueId",
              "type": "string"
            },
            {
              "internalType": "string",
              "name": "photo1",
              "type": "string"
            },
            {
              "internalType": "string",
              "name": "photo2",
              "type": "string"
            },
            {
              "internalType": "string",
              "name": "photo3",
              "type": "string"
            }
          ],
          "internalType": "struct Venues.VenuePhotoAddress",
          "name": "",
          "type": "tuple"
        }
      ],
      "stateMutability": "view",
      "type": "function",
      "constant": true
    },
    {
      "inputs": [],
      "name": "getAllPhotoAddress",
      "outputs": [
        {
          "components": [
            {
              "internalType": "string",
              "name": "venueId",
              "type": "string"
            },
            {
              "internalType": "string",
              "name": "photo1",
              "type": "string"
            },
            {
              "internalType": "string",
              "name": "photo2",
              "type": "string"
            },
            {
              "internalType": "string",
              "name": "photo3",
              "type": "string"
            }
          ],
          "internalType": "struct Venues.VenuePhotoAddress[]",
          "name": "",
          "type": "tuple[]"
        }
      ],
      "stateMutability": "view",
      "type": "function",
      "constant": true
    },
    {
      "inputs": [],
      "name": "getAllVenuesLocked",
      "outputs": [
        {
          "components": [
            {
              "internalType": "string",
              "name": "venueId",
              "type": "string"
            },
            {
              "internalType": "address",
              "name": "owner",
              "type": "address"
            },
            {
              "internalType": "string",
              "name": "venueName",
              "type": "string"
            },
            {
              "internalType": "string",
              "name": "venueType",
              "type": "string"
            },
            {
              "internalType": "string",
              "name": "location",
              "type": "string"
            },
            {
              "internalType": "string",
              "name": "description",
              "type": "string"
            },
            {
              "internalType": "uint64",
              "name": "venuePhoneNo",
              "type": "uint64"
            },
            {
              "internalType": "uint32",
              "name": "maxCapacity",
              "type": "uint32"
            },
            {
              "internalType": "string",
              "name": "status",
              "type": "string"
            },
            {
              "internalType": "uint256",
              "name": "dateCreated",
              "type": "uint256"
            },
            {
              "internalType": "uint256",
              "name": "dateModified",
              "type": "uint256"
            }
          ],
          "internalType": "struct Venues.VenueLocked[]",
          "name": "",
          "type": "tuple[]"
        }
      ],
      "stateMutability": "view",
      "type": "function",
      "constant": true
    },
    {
      "inputs": [],
      "name": "getOwnedVenues",
      "outputs": [
        {
          "components": [
            {
              "internalType": "string",
              "name": "venueId",
              "type": "string"
            },
            {
              "internalType": "address",
              "name": "owner",
              "type": "address"
            },
            {
              "internalType": "string",
              "name": "venueName",
              "type": "string"
            },
            {
              "internalType": "string",
              "name": "venueType",
              "type": "string"
            },
            {
              "internalType": "string",
              "name": "location",
              "type": "string"
            },
            {
              "internalType": "string",
              "name": "description",
              "type": "string"
            },
            {
              "internalType": "uint64",
              "name": "venuePhoneNo",
              "type": "uint64"
            },
            {
              "internalType": "uint32",
              "name": "maxCapacity",
              "type": "uint32"
            },
            {
              "internalType": "string",
              "name": "status",
              "type": "string"
            },
            {
              "internalType": "uint256",
              "name": "dateCreated",
              "type": "uint256"
            },
            {
              "internalType": "uint256",
              "name": "dateModified",
              "type": "uint256"
            }
          ],
          "internalType": "struct Venues.VenueLocked[]",
          "name": "",
          "type": "tuple[]"
        }
      ],
      "stateMutability": "view",
      "type": "function",
      "constant": true
    },
    {
      "inputs": [
        {
          "internalType": "string",
          "name": "_venueId",
          "type": "string"
        }
      ],
      "name": "deleteVenue",
      "outputs": [],
      "stateMutability": "nonpayable",
      "type": "function"
    }
  ],
  "bytecode": "0x608060405234801561001057600080fd5b50615eba80620000216000396000f3fe608060405234801561001057600080fd5b506004361061012c5760003560e01c8063786cc9c5116100ad578063bfecbc1711610071578063bfecbc171461033f578063c85a76041461036f578063e3a6fc861461039f578063eae67f7b146103bd578063fcd44a87146103db5761012c565b8063786cc9c51461028957806379b8679a146102b95780637a81e1d2146102d75780638a9132d314610307578063b2a0c7ba146103235761012c565b806345260df0116100f457806345260df0146101d357806347dfb1ab146102035780636aaeb5281461023357806370c405681461024f578063732cb4821461026d5761012c565b8063139478321461013157806318687d56146101615780631bac0ab31461017d57806326cc743d146101995780632cb7fa98146101b5575b600080fd5b61014b600480360381019061014691906145ca565b6103f9565b6040516101589190615968565b60405180910390f35b61017b60048036038101906101769190614996565b610677565b005b6101976004803603810190610192919061473a565b6108d3565b005b6101b360048036038101906101ae9190614677565b610b5e565b005b6101bd610d7d565b6040516101ca9190615805565b60405180910390f35b6101ed60048036038101906101e891906145ca565b610f2b565b6040516101fa91906159ac565b60405180910390f35b61021d600480360381019061021891906145ca565b61125b565b60405161022a919061588d565b60405180910390f35b61024d60048036038101906102489190614880565b61132f565b005b610257611881565b6040516102649190615827565b60405180910390f35b610287600480360381019061028291906149ea565b611e10565b005b6102a3600480360381019061029e91906145ca565b6120ff565b6040516102b091906159ce565b60405180910390f35b6102c16125e5565b6040516102ce9190615849565b60405180910390f35b6102f160048036038101906102ec9190614996565b61298d565b6040516102fe919061588d565b60405180910390f35b610321600480360381019061031c919061460b565b612b3d565b005b61033d600480360381019061033891906145ca565b612dd7565b005b610359600480360381019061035491906145ca565b613139565b6040516103669190615805565b60405180910390f35b610389600480360381019061038491906145ca565b6134ac565b604051610396919061598a565b60405180910390f35b6103a76139c3565b6040516103b4919061586b565b60405180910390f35b6103c5613a1b565b6040516103d291906157e3565b60405180910390f35b6103e3613af4565b6040516103f09190615827565b60405180910390f35b610401614234565b8160008160405161041291906156e3565b908152602001604051809103902060000160405160200161043391906156fa565b604051602081830303815290604052805190602001208160405160200161045a91906156e3565b60405160208183030381529060405280519060200120146104b0576040517f08c379a00000000000000000000000000000000000000000000000000000000081526004016104a790615948565b60405180910390fd5b6002836040516104c091906156e3565b90815260200160405180910390206040518060a00160405290816000820180546104e990615d0f565b80601f016020809104026020016040519081016040528092919081815260200182805461051590615d0f565b80156105625780601f1061053757610100808354040283529160200191610562565b820191906000526020600020905b81548152906001019060200180831161054557829003601f168201915b505050505081526020016001820160009054906101000a900463ffffffff1663ffffffff1663ffffffff1681526020016001820160049054906101000a90046fffffffffffffffffffffffffffffffff166fffffffffffffffffffffffffffffffff166fffffffffffffffffffffffffffffffff1681526020016002820160009054906101000a90046fffffffffffffffffffffffffffffffff166fffffffffffffffffffffffffffffffff166fffffffffffffffffffffffffffffffff1681526020016002820160109054906101000a90046fffffffffffffffffffffffffffffffff166fffffffffffffffffffffffffffffffff166fffffffffffffffffffffffffffffffff1681525050915050919050565b8160008160405161068891906156e3565b90815260200160405180910390206000016040516020016106a991906156fa565b60405160208183030381529060405280519060200120816040516020016106d091906156e3565b6040516020818303038152906040528051906020012014610726576040517f08c379a000000000000000000000000000000000000000000000000000000000815260040161071d90615948565b60405180910390fd5b828260005b60068054905081101561084b576005600082815260200190815260200160002060000160405160200161075e91906156fa565b604051602081830303815290604052805190602001208360405160200161078591906156e3565b604051602081830303815290604052805190602001201415610838576201518060056000838152602001908152602001600020600101546107c69190615c11565b821180156107f757506201518060056000838152602001908152602001600020600101546107f49190615bbb565b82105b15610837576040517f08c379a000000000000000000000000000000000000000000000000000000000815260040161082e90615908565b60405180910390fd5b5b808061084390615d41565b91505061072b565b50604051806040016040528086815260200185815250600560006006805490508152602001908152602001600020600082015181600001908051906020019061089592919061429f565b506020820151816001015590505060068490806001815401808255809150506001900390600052602060002001600090919091909150555050505050565b866000816040516108e491906156e3565b908152602001604051809103902060000160405160200161090591906156fa565b604051602081830303815290604052805190602001208160405160200161092c91906156e3565b6040516020818303038152906040528051906020012014610982576040517f08c379a000000000000000000000000000000000000000000000000000000000815260040161097990615948565b60405180910390fd5b33888173ffffffffffffffffffffffffffffffffffffffff166000826040516109ab91906156e3565b908152602001604051809103902060010160009054906101000a900473ffffffffffffffffffffffffffffffffffffffff1673ffffffffffffffffffffffffffffffffffffffff1614610a33576040517f08c379a0000000000000000000000000000000000000000000000000000000008152600401610a2a906158e8565b60405180910390fd5b6040518060e001604052808b81526020018a81526020018981526020018881526020018781526020018681526020018581525060038b604051610a7691906156e3565b90815260200160405180910390206000820151816000019080519060200190610aa092919061429f565b506020820151816001019080519060200190610abd92919061429f565b506040820151816002019080519060200190610ada92919061429f565b506060820151816003019080519060200190610af792919061429f565b506080820151816004019080519060200190610b1492919061429f565b5060a0820151816005019080519060200190610b3192919061429f565b5060c0820151816006019080519060200190610b4e92919061429f565b5090505050505050505050505050565b83600081604051610b6f91906156e3565b9081526020016040518091039020600001604051602001610b9091906156fa565b6040516020818303038152906040528051906020012081604051602001610bb791906156e3565b6040516020818303038152906040528051906020012014610c0d576040517f08c379a0000000000000000000000000000000000000000000000000000000008152600401610c0490615948565b60405180910390fd5b33858173ffffffffffffffffffffffffffffffffffffffff16600082604051610c3691906156e3565b908152602001604051809103902060010160009054906101000a900473ffffffffffffffffffffffffffffffffffffffff1673ffffffffffffffffffffffffffffffffffffffff1614610cbe576040517f08c379a0000000000000000000000000000000000000000000000000000000008152600401610cb5906158e8565b60405180910390fd5b604051806080016040528088815260200187815260200186815260200185815250600488604051610cef91906156e3565b90815260200160405180910390206000820151816000019080519060200190610d1992919061429f565b506020820151816001019080519060200190610d3692919061429f565b506040820151816002019080519060200190610d5392919061429f565b506060820151816003019080519060200190610d7092919061429f565b5090505050505050505050565b6060600060068054905067ffffffffffffffff811115610dc6577f4e487b7100000000000000000000000000000000000000000000000000000000600052604160045260246000fd5b604051908082528060200260200182016040528015610dff57816020015b610dec614325565b815260200190600190039081610de45790505b50905060005b600680549050811015610f235760056000828152602001908152602001600020604051806040016040529081600082018054610e4090615d0f565b80601f0160208091040260200160405190810160405280929190818152602001828054610e6c90615d0f565b8015610eb95780601f10610e8e57610100808354040283529160200191610eb9565b820191906000526020600020905b815481529060010190602001808311610e9c57829003601f168201915b50505050508152602001600182015481525050828281518110610f05577f4e487b7100000000000000000000000000000000000000000000000000000000600052603260045260246000fd5b60200260200101819052508080610f1b90615d41565b915050610e05565b508091505090565b610f3361433f565b81600081604051610f4491906156e3565b9081526020016040518091039020600001604051602001610f6591906156fa565b6040516020818303038152906040528051906020012081604051602001610f8c91906156e3565b6040516020818303038152906040528051906020012014610fe2576040517f08c379a0000000000000000000000000000000000000000000000000000000008152600401610fd990615948565b60405180910390fd5b600483604051610ff291906156e3565b908152602001604051809103902060405180608001604052908160008201805461101b90615d0f565b80601f016020809104026020016040519081016040528092919081815260200182805461104790615d0f565b80156110945780601f1061106957610100808354040283529160200191611094565b820191906000526020600020905b81548152906001019060200180831161107757829003601f168201915b505050505081526020016001820180546110ad90615d0f565b80601f01602080910402602001604051908101604052809291908181526020018280546110d990615d0f565b80156111265780601f106110fb57610100808354040283529160200191611126565b820191906000526020600020905b81548152906001019060200180831161110957829003601f168201915b5050505050815260200160028201805461113f90615d0f565b80601f016020809104026020016040519081016040528092919081815260200182805461116b90615d0f565b80156111b85780601f1061118d576101008083540402835291602001916111b8565b820191906000526020600020905b81548152906001019060200180831161119b57829003601f168201915b505050505081526020016003820180546111d190615d0f565b80601f01602080910402602001604051908101604052809291908181526020018280546111fd90615d0f565b801561124a5780601f1061121f5761010080835404028352916020019161124a565b820191906000526020600020905b81548152906001019060200180831161122d57829003601f168201915b505050505081525050915050919050565b600080600090505b60018054905081101561132457600181815481106112aa577f4e487b7100000000000000000000000000000000000000000000000000000000600052603260045260246000fd5b906000526020600020016040516020016112c491906156fa565b60405160208183030381529060405280519060200120836040516020016112eb91906156e3565b60405160208183030381529060405280519060200120141561131157600191505061132a565b808061131c90615d41565b915050611263565b50600090505b919050565b868060405160200161134191906156e3565b6040516020818303038152906040528051906020012060008260405161136791906156e3565b908152602001604051809103902060000160405160200161138891906156fa565b6040516020818303038152906040528051906020012014156113df576040517f08c379a00000000000000000000000000000000000000000000000000000000081526004016113d690615928565b60405180910390fd5b856040516020016113ef90615765565b604051602081830303815290604052805190602001208160405160200161141691906156e3565b60405160208183030381529060405280519060200120148061148157506040516020016114429061577a565b604051602081830303815290604052805190602001208160405160200161146991906156e3565b60405160208183030381529060405280519060200120145b806114d55750604051602001611496906157ce565b60405160208183030381529060405280519060200120816040516020016114bd91906156e3565b60405160208183030381529060405280519060200120145b8061152957506040516020016114ea9061578f565b604051602081830303815290604052805190602001208160405160200161151191906156e3565b60405160208183030381529060405280519060200120145b8061157d575060405160200161153e9061573b565b604051602081830303815290604052805190602001208160405160200161156591906156e3565b60405160208183030381529060405280519060200120145b806115d1575060405160200161159290615750565b60405160208183030381529060405280519060200120816040516020016115b991906156e3565b60405160208183030381529060405280519060200120145b611610576040517f08c379a0000000000000000000000000000000000000000000000000000000008152600401611607906158a8565b60405180910390fd5b6040518061016001604052808a81526020013373ffffffffffffffffffffffffffffffffffffffff1681526020018981526020018881526020018781526020018681526020018567ffffffffffffffff1681526020018463ffffffff1681526020016040518060400160405280600981526020017f417661696c61626c65000000000000000000000000000000000000000000000081525081526020014281526020014281525060008a6040516116c791906156e3565b908152602001604051809103902060008201518160000190805190602001906116f192919061429f565b5060208201518160010160006101000a81548173ffffffffffffffffffffffffffffffffffffffff021916908373ffffffffffffffffffffffffffffffffffffffff160217905550604082015181600201908051906020019061175592919061429f565b50606082015181600301908051906020019061177292919061429f565b50608082015181600401908051906020019061178f92919061429f565b5060a08201518160050190805190602001906117ac92919061429f565b5060c08201518160060160006101000a81548167ffffffffffffffff021916908367ffffffffffffffff16021790555060e08201518160060160086101000a81548163ffffffff021916908363ffffffff16021790555061010082015181600701908051906020019061182092919061429f565b506101208201518160080155610140820151816009015590505060018990806001815401808255809150506001900390600052602060002001600090919091909150908051906020019061187592919061429f565b50505050505050505050565b6060600060018054905067ffffffffffffffff8111156118ca577f4e487b7100000000000000000000000000000000000000000000000000000000600052604160045260246000fd5b60405190808252806020026020018201604052801561190357816020015b6118f0614367565b8152602001906001900390816118e85790505b50905060005b600180549050811015611e0857600060018281548110611952577f4e487b7100000000000000000000000000000000000000000000000000000000600052603260045260246000fd5b9060005260206000200160405161196991906156fa565b90815260200160405180910390206040518061016001604052908160008201805461199390615d0f565b80601f01602080910402602001604051908101604052809291908181526020018280546119bf90615d0f565b8015611a0c5780601f106119e157610100808354040283529160200191611a0c565b820191906000526020600020905b8154815290600101906020018083116119ef57829003601f168201915b505050505081526020016001820160009054906101000a900473ffffffffffffffffffffffffffffffffffffffff1673ffffffffffffffffffffffffffffffffffffffff1673ffffffffffffffffffffffffffffffffffffffff168152602001600282018054611a7b90615d0f565b80601f0160208091040260200160405190810160405280929190818152602001828054611aa790615d0f565b8015611af45780601f10611ac957610100808354040283529160200191611af4565b820191906000526020600020905b815481529060010190602001808311611ad757829003601f168201915b50505050508152602001600382018054611b0d90615d0f565b80601f0160208091040260200160405190810160405280929190818152602001828054611b3990615d0f565b8015611b865780601f10611b5b57610100808354040283529160200191611b86565b820191906000526020600020905b815481529060010190602001808311611b6957829003601f168201915b50505050508152602001600482018054611b9f90615d0f565b80601f0160208091040260200160405190810160405280929190818152602001828054611bcb90615d0f565b8015611c185780601f10611bed57610100808354040283529160200191611c18565b820191906000526020600020905b815481529060010190602001808311611bfb57829003601f168201915b50505050508152602001600582018054611c3190615d0f565b80601f0160208091040260200160405190810160405280929190818152602001828054611c5d90615d0f565b8015611caa5780601f10611c7f57610100808354040283529160200191611caa565b820191906000526020600020905b815481529060010190602001808311611c8d57829003601f168201915b505050505081526020016006820160009054906101000a900467ffffffffffffffff1667ffffffffffffffff1667ffffffffffffffff1681526020016006820160089054906101000a900463ffffffff1663ffffffff1663ffffffff168152602001600782018054611d1b90615d0f565b80601f0160208091040260200160405190810160405280929190818152602001828054611d4790615d0f565b8015611d945780601f10611d6957610100808354040283529160200191611d94565b820191906000526020600020905b815481529060010190602001808311611d7757829003601f168201915b5050505050815260200160088201548152602001600982015481525050828281518110611dea577f4e487b7100000000000000000000000000000000000000000000000000000000600052603260045260246000fd5b60200260200101819052508080611e0090615d41565b915050611909565b508091505090565b84600081604051611e2191906156e3565b9081526020016040518091039020600001604051602001611e4291906156fa565b6040516020818303038152906040528051906020012081604051602001611e6991906156e3565b6040516020818303038152906040528051906020012014611ebf576040517f08c379a0000000000000000000000000000000000000000000000000000000008152600401611eb690615948565b60405180910390fd5b33868173ffffffffffffffffffffffffffffffffffffffff16600082604051611ee891906156e3565b908152602001604051809103902060010160009054906101000a900473ffffffffffffffffffffffffffffffffffffffff1673ffffffffffffffffffffffffffffffffffffffff1614611f70576040517f08c379a0000000000000000000000000000000000000000000000000000000008152600401611f67906158e8565b60405180910390fd5b6040518060a001604052808981526020018863ffffffff168152602001876fffffffffffffffffffffffffffffffff168152602001866fffffffffffffffffffffffffffffffff168152602001856fffffffffffffffffffffffffffffffff16815250600289604051611fe391906156e3565b9081526020016040518091039020600082015181600001908051906020019061200d92919061429f565b5060208201518160010160006101000a81548163ffffffff021916908363ffffffff16021790555060408201518160010160046101000a8154816fffffffffffffffffffffffffffffffff02191690836fffffffffffffffffffffffffffffffff16021790555060608201518160020160006101000a8154816fffffffffffffffffffffffffffffffff02191690836fffffffffffffffffffffffffffffffff16021790555060808201518160020160106101000a8154816fffffffffffffffffffffffffffffffff02191690836fffffffffffffffffffffffffffffffff1602179055509050505050505050505050565b6121076143e7565b8160008160405161211891906156e3565b908152602001604051809103902060000160405160200161213991906156fa565b604051602081830303815290604052805190602001208160405160200161216091906156e3565b60405160208183030381529060405280519060200120146121b6576040517f08c379a00000000000000000000000000000000000000000000000000000000081526004016121ad90615948565b60405180910390fd5b6003836040516121c691906156e3565b90815260200160405180910390206040518060e00160405290816000820180546121ef90615d0f565b80601f016020809104026020016040519081016040528092919081815260200182805461221b90615d0f565b80156122685780601f1061223d57610100808354040283529160200191612268565b820191906000526020600020905b81548152906001019060200180831161224b57829003601f168201915b5050505050815260200160018201805461228190615d0f565b80601f01602080910402602001604051908101604052809291908181526020018280546122ad90615d0f565b80156122fa5780601f106122cf576101008083540402835291602001916122fa565b820191906000526020600020905b8154815290600101906020018083116122dd57829003601f168201915b5050505050815260200160028201805461231390615d0f565b80601f016020809104026020016040519081016040528092919081815260200182805461233f90615d0f565b801561238c5780601f106123615761010080835404028352916020019161238c565b820191906000526020600020905b81548152906001019060200180831161236f57829003601f168201915b505050505081526020016003820180546123a590615d0f565b80601f01602080910402602001604051908101604052809291908181526020018280546123d190615d0f565b801561241e5780601f106123f35761010080835404028352916020019161241e565b820191906000526020600020905b81548152906001019060200180831161240157829003601f168201915b5050505050815260200160048201805461243790615d0f565b80601f016020809104026020016040519081016040528092919081815260200182805461246390615d0f565b80156124b05780601f10612485576101008083540402835291602001916124b0565b820191906000526020600020905b81548152906001019060200180831161249357829003601f168201915b505050505081526020016005820180546124c990615d0f565b80601f01602080910402602001604051908101604052809291908181526020018280546124f590615d0f565b80156125425780601f1061251757610100808354040283529160200191612542565b820191906000526020600020905b81548152906001019060200180831161252557829003601f168201915b5050505050815260200160068201805461255b90615d0f565b80601f016020809104026020016040519081016040528092919081815260200182805461258790615d0f565b80156125d45780601f106125a9576101008083540402835291602001916125d4565b820191906000526020600020905b8154815290600101906020018083116125b757829003601f168201915b505050505081525050915050919050565b6060600060018054905067ffffffffffffffff81111561262e577f4e487b7100000000000000000000000000000000000000000000000000000000600052604160045260246000fd5b60405190808252806020026020018201604052801561266757816020015b61265461433f565b81526020019060019003908161264c5790505b50905060005b600180549050811015612985576004600182815481106126b6577f4e487b7100000000000000000000000000000000000000000000000000000000600052603260045260246000fd5b906000526020600020016040516126cd91906156fa565b90815260200160405180910390206040518060800160405290816000820180546126f690615d0f565b80601f016020809104026020016040519081016040528092919081815260200182805461272290615d0f565b801561276f5780601f106127445761010080835404028352916020019161276f565b820191906000526020600020905b81548152906001019060200180831161275257829003601f168201915b5050505050815260200160018201805461278890615d0f565b80601f01602080910402602001604051908101604052809291908181526020018280546127b490615d0f565b80156128015780601f106127d657610100808354040283529160200191612801565b820191906000526020600020905b8154815290600101906020018083116127e457829003601f168201915b5050505050815260200160028201805461281a90615d0f565b80601f016020809104026020016040519081016040528092919081815260200182805461284690615d0f565b80156128935780601f1061286857610100808354040283529160200191612893565b820191906000526020600020905b81548152906001019060200180831161287657829003601f168201915b505050505081526020016003820180546128ac90615d0f565b80601f01602080910402602001604051908101604052809291908181526020018280546128d890615d0f565b80156129255780601f106128fa57610100808354040283529160200191612925565b820191906000526020600020905b81548152906001019060200180831161290857829003601f168201915b505050505081525050828281518110612967577f4e487b7100000000000000000000000000000000000000000000000000000000600052603260045260246000fd5b6020026020010181905250808061297d90615d41565b91505061266d565b508091505090565b6000826000816040516129a091906156e3565b90815260200160405180910390206000016040516020016129c191906156fa565b60405160208183030381529060405280519060200120816040516020016129e891906156e3565b6040516020818303038152906040528051906020012014612a3e576040517f08c379a0000000000000000000000000000000000000000000000000000000008152600401612a3590615948565b60405180910390fd5b60005b600680549050811015612b305760056000828152602001908152602001600020600001604051602001612a7491906156fa565b6040516020818303038152906040528051906020012085604051602001612a9b91906156e3565b604051602081830303815290604052805190602001201415612b1d57620151806005600083815260200190815260200160002060010154612adc9190615c11565b84118015612b0d5750620151806005600083815260200190815260200160002060010154612b0a9190615bbb565b84105b15612b1c576001925050612b36565b5b8080612b2890615d41565b915050612a41565b50600091505b5092915050565b80604051602001612b4d906157a4565b6040516020818303038152906040528051906020012081604051602001612b7491906156e3565b604051602081830303815290604052805190602001201480612bdf5750604051602001612ba090615726565b6040516020818303038152906040528051906020012081604051602001612bc791906156e3565b60405160208183030381529060405280519060200120145b80612c335750604051602001612bf4906157b9565b6040516020818303038152906040528051906020012081604051602001612c1b91906156e3565b60405160208183030381529060405280519060200120145b80612c875750604051602001612c4890615711565b6040516020818303038152906040528051906020012081604051602001612c6f91906156e3565b60405160208183030381529060405280519060200120145b612cc6576040517f08c379a0000000000000000000000000000000000000000000000000000000008152600401612cbd906158c8565b60405180910390fd5b82600081604051612cd791906156e3565b9081526020016040518091039020600001604051602001612cf891906156fa565b6040516020818303038152906040528051906020012081604051602001612d1f91906156e3565b6040516020818303038152906040528051906020012014612d75576040517f08c379a0000000000000000000000000000000000000000000000000000000008152600401612d6c90615948565b60405180910390fd5b82600085604051612d8691906156e3565b90815260200160405180910390206007019080519060200190612daa92919061429f565b5042600085604051612dbc91906156e3565b90815260200160405180910390206009018190555050505050565b80600081604051612de891906156e3565b9081526020016040518091039020600001604051602001612e0991906156fa565b6040516020818303038152906040528051906020012081604051602001612e3091906156e3565b6040516020818303038152906040528051906020012014612e86576040517f08c379a0000000000000000000000000000000000000000000000000000000008152600401612e7d90615948565b60405180910390fd5b600082604051612e9691906156e3565b908152602001604051809103902060008082016000612eb59190614424565b6001820160006101000a81549073ffffffffffffffffffffffffffffffffffffffff0219169055600282016000612eec9190614424565b600382016000612efc9190614424565b600482016000612f0c9190614424565b600582016000612f1c9190614424565b6006820160006101000a81549067ffffffffffffffff02191690556006820160086101000a81549063ffffffff0219169055600782016000612f5e9190614424565b60088201600090556009820160009055505060005b6001805490508110156131345760018181548110612fba577f4e487b7100000000000000000000000000000000000000000000000000000000600052603260045260246000fd5b90600052602060002001604051602001612fd491906156fa565b6040516020818303038152906040528051906020012083604051602001612ffb91906156e3565b6040516020818303038152906040528051906020012014156131215760018080805490506130299190615c11565b81548110613060577f4e487b7100000000000000000000000000000000000000000000000000000000600052603260045260246000fd5b90600052602060002001600182815481106130a4577f4e487b7100000000000000000000000000000000000000000000000000000000600052603260045260246000fd5b906000526020600020019080546130ba90615d0f565b6130c5929190614464565b5060018054806130fe577f4e487b7100000000000000000000000000000000000000000000000000000000600052603160045260246000fd5b60019003818190600052602060002001600061311a9190614424565b9055613134565b808061312c90615d41565b915050612f73565b505050565b60608160008160405161314c91906156e3565b908152602001604051809103902060000160405160200161316d91906156fa565b604051602081830303815290604052805190602001208160405160200161319491906156e3565b60405160208183030381529060405280519060200120146131ea576040517f08c379a00000000000000000000000000000000000000000000000000000000081526004016131e190615948565b60405180910390fd5b6000805b600680549050811015613286578460405160200161320c91906156e3565b604051602081830303815290604052805190602001206005600083815260200190815260200160002060000160405160200161324891906156fa565b60405160208183030381529060405280519060200120141561327357818061326f90615d41565b9250505b808061327e90615d41565b9150506131ee565b5060008167ffffffffffffffff8111156132c9577f4e487b7100000000000000000000000000000000000000000000000000000000600052604160045260246000fd5b60405190808252806020026020018201604052801561330257816020015b6132ef614325565b8152602001906001900390816132e75790505b5090506000805b60068054905081101561349f578660405160200161332791906156e3565b604051602081830303815290604052805190602001206005600083815260200190815260200160002060000160405160200161336391906156fa565b60405160208183030381529060405280519060200120141561348c57600560008281526020019081526020016000206040518060400160405290816000820180546133ad90615d0f565b80601f01602080910402602001604051908101604052809291908181526020018280546133d990615d0f565b80156134265780601f106133fb57610100808354040283529160200191613426565b820191906000526020600020905b81548152906001019060200180831161340957829003601f168201915b50505050508152602001600182015481525050838381518110613472577f4e487b7100000000000000000000000000000000000000000000000000000000600052603260045260246000fd5b6020026020010181905250818061348890615d41565b9250505b808061349790615d41565b915050613309565b5081945050505050919050565b6134b4614367565b816000816040516134c591906156e3565b90815260200160405180910390206000016040516020016134e691906156fa565b604051602081830303815290604052805190602001208160405160200161350d91906156e3565b6040516020818303038152906040528051906020012014613563576040517f08c379a000000000000000000000000000000000000000000000000000000000815260040161355a90615948565b60405180910390fd5b60008360405161357391906156e3565b90815260200160405180910390206040518061016001604052908160008201805461359d90615d0f565b80601f01602080910402602001604051908101604052809291908181526020018280546135c990615d0f565b80156136165780601f106135eb57610100808354040283529160200191613616565b820191906000526020600020905b8154815290600101906020018083116135f957829003601f168201915b505050505081526020016001820160009054906101000a900473ffffffffffffffffffffffffffffffffffffffff1673ffffffffffffffffffffffffffffffffffffffff1673ffffffffffffffffffffffffffffffffffffffff16815260200160028201805461368590615d0f565b80601f01602080910402602001604051908101604052809291908181526020018280546136b190615d0f565b80156136fe5780601f106136d3576101008083540402835291602001916136fe565b820191906000526020600020905b8154815290600101906020018083116136e157829003601f168201915b5050505050815260200160038201805461371790615d0f565b80601f016020809104026020016040519081016040528092919081815260200182805461374390615d0f565b80156137905780601f1061376557610100808354040283529160200191613790565b820191906000526020600020905b81548152906001019060200180831161377357829003601f168201915b505050505081526020016004820180546137a990615d0f565b80601f01602080910402602001604051908101604052809291908181526020018280546137d590615d0f565b80156138225780601f106137f757610100808354040283529160200191613822565b820191906000526020600020905b81548152906001019060200180831161380557829003601f168201915b5050505050815260200160058201805461383b90615d0f565b80601f016020809104026020016040519081016040528092919081815260200182805461386790615d0f565b80156138b45780601f10613889576101008083540402835291602001916138b4565b820191906000526020600020905b81548152906001019060200180831161389757829003601f168201915b505050505081526020016006820160009054906101000a900467ffffffffffffffff1667ffffffffffffffff1667ffffffffffffffff1681526020016006820160089054906101000a900463ffffffff1663ffffffff1663ffffffff16815260200160078201805461392590615d0f565b80601f016020809104026020016040519081016040528092919081815260200182805461395190615d0f565b801561399e5780601f106139735761010080835404028352916020019161399e565b820191906000526020600020905b81548152906001019060200180831161398157829003601f168201915b5050505050815260200160088201548152602001600982015481525050915050919050565b60606006805480602002602001604051908101604052809291908181526020018280548015613a1157602002820191906000526020600020905b8154815260200190600101908083116139fd575b5050505050905090565b60606001805480602002602001604051908101604052809291908181526020016000905b82821015613aeb578382906000526020600020018054613a5e90615d0f565b80601f0160208091040260200160405190810160405280929190818152602001828054613a8a90615d0f565b8015613ad75780601f10613aac57610100808354040283529160200191613ad7565b820191906000526020600020905b815481529060010190602001808311613aba57829003601f168201915b505050505081526020019060010190613a3f565b50505050905090565b60606000805b600180549050811015613be1573373ffffffffffffffffffffffffffffffffffffffff16600060018381548110613b5a577f4e487b7100000000000000000000000000000000000000000000000000000000600052603260045260246000fd5b90600052602060002001604051613b7191906156fa565b908152602001604051809103902060010160009054906101000a900473ffffffffffffffffffffffffffffffffffffffff1673ffffffffffffffffffffffffffffffffffffffff161415613bce578180613bca90615d41565b9250505b8080613bd990615d41565b915050613afa565b5060008167ffffffffffffffff811115613c24577f4e487b7100000000000000000000000000000000000000000000000000000000600052604160045260246000fd5b604051908082528060200260200182016040528015613c5d57816020015b613c4a614367565b815260200190600190039081613c425790505b5090506000805b60018054905081101561422a573373ffffffffffffffffffffffffffffffffffffffff16600060018381548110613cc4577f4e487b7100000000000000000000000000000000000000000000000000000000600052603260045260246000fd5b90600052602060002001604051613cdb91906156fa565b908152602001604051809103902060010160009054906101000a900473ffffffffffffffffffffffffffffffffffffffff1673ffffffffffffffffffffffffffffffffffffffff16141561421757600060018281548110613d65577f4e487b7100000000000000000000000000000000000000000000000000000000600052603260045260246000fd5b90600052602060002001604051613d7c91906156fa565b908152602001604051809103902060405180610160016040529081600082018054613da690615d0f565b80601f0160208091040260200160405190810160405280929190818152602001828054613dd290615d0f565b8015613e1f5780601f10613df457610100808354040283529160200191613e1f565b820191906000526020600020905b815481529060010190602001808311613e0257829003601f168201915b505050505081526020016001820160009054906101000a900473ffffffffffffffffffffffffffffffffffffffff1673ffffffffffffffffffffffffffffffffffffffff1673ffffffffffffffffffffffffffffffffffffffff168152602001600282018054613e8e90615d0f565b80601f0160208091040260200160405190810160405280929190818152602001828054613eba90615d0f565b8015613f075780601f10613edc57610100808354040283529160200191613f07565b820191906000526020600020905b815481529060010190602001808311613eea57829003601f168201915b50505050508152602001600382018054613f2090615d0f565b80601f0160208091040260200160405190810160405280929190818152602001828054613f4c90615d0f565b8015613f995780601f10613f6e57610100808354040283529160200191613f99565b820191906000526020600020905b815481529060010190602001808311613f7c57829003601f168201915b50505050508152602001600482018054613fb290615d0f565b80601f0160208091040260200160405190810160405280929190818152602001828054613fde90615d0f565b801561402b5780601f106140005761010080835404028352916020019161402b565b820191906000526020600020905b81548152906001019060200180831161400e57829003601f168201915b5050505050815260200160058201805461404490615d0f565b80601f016020809104026020016040519081016040528092919081815260200182805461407090615d0f565b80156140bd5780601f10614092576101008083540402835291602001916140bd565b820191906000526020600020905b8154815290600101906020018083116140a057829003601f168201915b505050505081526020016006820160009054906101000a900467ffffffffffffffff1667ffffffffffffffff1667ffffffffffffffff1681526020016006820160089054906101000a900463ffffffff1663ffffffff1663ffffffff16815260200160078201805461412e90615d0f565b80601f016020809104026020016040519081016040528092919081815260200182805461415a90615d0f565b80156141a75780601f1061417c576101008083540402835291602001916141a7565b820191906000526020600020905b81548152906001019060200180831161418a57829003601f168201915b50505050508152602001600882015481526020016009820154815250508383815181106141fd577f4e487b7100000000000000000000000000000000000000000000000000000000600052603260045260246000fd5b6020026020010181905250818061421390615d41565b9250505b808061422290615d41565b915050613c64565b5081935050505090565b6040518060a0016040528060608152602001600063ffffffff16815260200160006fffffffffffffffffffffffffffffffff16815260200160006fffffffffffffffffffffffffffffffff16815260200160006fffffffffffffffffffffffffffffffff1681525090565b8280546142ab90615d0f565b90600052602060002090601f0160209004810192826142cd5760008555614314565b82601f106142e657805160ff1916838001178555614314565b82800160010185558215614314579182015b828111156143135782518255916020019190600101906142f8565b5b50905061432191906144f1565b5090565b604051806040016040528060608152602001600081525090565b6040518060800160405280606081526020016060815260200160608152602001606081525090565b60405180610160016040528060608152602001600073ffffffffffffffffffffffffffffffffffffffff16815260200160608152602001606081526020016060815260200160608152602001600067ffffffffffffffff168152602001600063ffffffff1681526020016060815260200160008152602001600081525090565b6040518060e00160405280606081526020016060815260200160608152602001606081526020016060815260200160608152602001606081525090565b50805461443090615d0f565b6000825580601f106144425750614461565b601f01602090049060005260206000209081019061446091906144f1565b5b50565b82805461447090615d0f565b90600052602060002090601f01602090048101928261449257600085556144e0565b82601f106144a357805485556144e0565b828001600101855582156144e057600052602060002091601f016020900482015b828111156144df5782548255916001019190600101906144c4565b5b5090506144ed91906144f1565b5090565b5b8082111561450a5760008160009055506001016144f2565b5090565b600061452161451c84615a21565b6159f0565b90508281526020810184848401111561453957600080fd5b614544848285615ccd565b509392505050565b600082601f83011261455d57600080fd5b813561456d84826020860161450e565b91505092915050565b60008135905061458581615e28565b92915050565b60008135905061459a81615e3f565b92915050565b6000813590506145af81615e56565b92915050565b6000813590506145c481615e6d565b92915050565b6000602082840312156145dc57600080fd5b600082013567ffffffffffffffff8111156145f657600080fd5b6146028482850161454c565b91505092915050565b6000806040838503121561461e57600080fd5b600083013567ffffffffffffffff81111561463857600080fd5b6146448582860161454c565b925050602083013567ffffffffffffffff81111561466157600080fd5b61466d8582860161454c565b9150509250929050565b6000806000806080858703121561468d57600080fd5b600085013567ffffffffffffffff8111156146a757600080fd5b6146b38782880161454c565b945050602085013567ffffffffffffffff8111156146d057600080fd5b6146dc8782880161454c565b935050604085013567ffffffffffffffff8111156146f957600080fd5b6147058782880161454c565b925050606085013567ffffffffffffffff81111561472257600080fd5b61472e8782880161454c565b91505092959194509250565b600080600080600080600060e0888a03121561475557600080fd5b600088013567ffffffffffffffff81111561476f57600080fd5b61477b8a828b0161454c565b975050602088013567ffffffffffffffff81111561479857600080fd5b6147a48a828b0161454c565b965050604088013567ffffffffffffffff8111156147c157600080fd5b6147cd8a828b0161454c565b955050606088013567ffffffffffffffff8111156147ea57600080fd5b6147f68a828b0161454c565b945050608088013567ffffffffffffffff81111561481357600080fd5b61481f8a828b0161454c565b93505060a088013567ffffffffffffffff81111561483c57600080fd5b6148488a828b0161454c565b92505060c088013567ffffffffffffffff81111561486557600080fd5b6148718a828b0161454c565b91505092959891949750929550565b600080600080600080600060e0888a03121561489b57600080fd5b600088013567ffffffffffffffff8111156148b557600080fd5b6148c18a828b0161454c565b975050602088013567ffffffffffffffff8111156148de57600080fd5b6148ea8a828b0161454c565b965050604088013567ffffffffffffffff81111561490757600080fd5b6149138a828b0161454c565b955050606088013567ffffffffffffffff81111561493057600080fd5b61493c8a828b0161454c565b945050608088013567ffffffffffffffff81111561495957600080fd5b6149658a828b0161454c565b93505060a06149768a828b016145b5565b92505060c06149878a828b016145a0565b91505092959891949750929550565b600080604083850312156149a957600080fd5b600083013567ffffffffffffffff8111156149c357600080fd5b6149cf8582860161454c565b92505060206149e08582860161458b565b9150509250929050565b600080600080600060a08688031215614a0257600080fd5b600086013567ffffffffffffffff811115614a1c57600080fd5b614a288882890161454c565b9550506020614a39888289016145a0565b9450506040614a4a88828901614576565b9350506060614a5b88828901614576565b9250506080614a6c88828901614576565b9150509295509295909350565b6000614a858383614d31565b905092915050565b6000614a99838361521a565b905092915050565b6000614aad83836152cd565b905092915050565b6000614ac183836154f1565b905092915050565b6000614ad583836156b6565b60208301905092915050565b614aea81615c45565b82525050565b6000614afb82615ab6565b614b058185615b39565b935083602082028501614b1785615a51565b8060005b85811015614b535784840389528151614b348582614a79565b9450614b3f83615af8565b925060208a01995050600181019050614b1b565b50829750879550505050505092915050565b6000614b7082615ac1565b614b7a8185615b4a565b935083602082028501614b8c85615a61565b8060005b85811015614bc85784840389528151614ba98582614a8d565b9450614bb483615b05565b925060208a01995050600181019050614b90565b50829750879550505050505092915050565b6000614be582615acc565b614bef8185615b5b565b935083602082028501614c0185615a71565b8060005b85811015614c3d5784840389528151614c1e8582614aa1565b9450614c2983615b12565b925060208a01995050600181019050614c05565b50829750879550505050505092915050565b6000614c5a82615ad7565b614c648185615b6c565b935083602082028501614c7685615a81565b8060005b85811015614cb25784840389528151614c938582614ab5565b9450614c9e83615b1f565b925060208a01995050600181019050614c7a565b50829750879550505050505092915050565b6000614ccf82615ae2565b614cd98185615b7d565b9350614ce483615a91565b8060005b83811015614d15578151614cfc8882614ac9565b9750614d0783615b2c565b925050600181019050614ce8565b5085935050505092915050565b614d2b81615c57565b82525050565b6000614d3c82615aed565b614d468185615b8e565b9350614d56818560208601615cdc565b614d5f81615e17565b840191505092915050565b6000614d7582615aed565b614d7f8185615bb0565b9350614d8f818560208601615cdc565b80840191505092915050565b60008154614da881615d0f565b614db28186615bb0565b94506001821660008114614dcd5760018114614dde57614e11565b60ff19831686528186019350614e11565b614de785615aa1565b60005b83811015614e0957815481890152600182019150602081019050614dea565b838801955050505b50505092915050565b6000614e27601083615b9f565b91507f57726f6e672076656e75652074797065000000000000000000000000000000006000830152602082019050919050565b6000614e67600b83615bb0565b91507f556e617661696c61626c650000000000000000000000000000000000000000006000830152600b82019050919050565b6000614ea7600c83615b9f565b91507f57726f6e672053746174757300000000000000000000000000000000000000006000830152602082019050919050565b6000614ee7600783615bb0565b91507f50656e64696e67000000000000000000000000000000000000000000000000006000830152600782019050919050565b6000614f27600783615bb0565b91507f54686561746572000000000000000000000000000000000000000000000000006000830152600782019050919050565b6000614f67601983615b9f565b91507f546865206f776e6572206973206e6f74207468652073616d65000000000000006000830152602082019050919050565b6000614fa7601083615bb0565b91507f436f6e6672656e63652043656e746572000000000000000000000000000000006000830152601082019050919050565b6000614fe7600583615bb0565b91507f486f74656c0000000000000000000000000000000000000000000000000000006000830152600582019050919050565b6000615027600783615bb0565b91507f5374616469756d000000000000000000000000000000000000000000000000006000830152600782019050919050565b6000615067600c83615bb0565b91507f436f6e636572742048616c6c00000000000000000000000000000000000000006000830152600c82019050919050565b60006150a7600983615bb0565b91507f417661696c61626c6500000000000000000000000000000000000000000000006000830152600982019050919050565b60006150e7600683615bb0565b91507f426f6f6b656400000000000000000000000000000000000000000000000000006000830152600682019050919050565b6000615127600d83615bb0565b91507f4f7574646f6f722056656e7565000000000000000000000000000000000000006000830152600d82019050919050565b6000615167601483615b9f565b91507f4461746520416c726561647920426f6f6b6564210000000000000000000000006000830152602082019050919050565b60006151a7601683615b9f565b91507f4163636f756e7420616c726561647920657869737473000000000000000000006000830152602082019050919050565b60006151e7601583615b9f565b91507f4163636f756e7420646f65736e742065786973747300000000000000000000006000830152602082019050919050565b600060408301600083015184820360008601526152378282614d31565b915050602083015161524c60208601826156b6565b508091505092915050565b600060a08301600083015184820360008601526152748282614d31565b915050602083015161528960208601826156c5565b50604083015161529c60408601826156a7565b5060608301516152af60608601826156a7565b5060808301516152c260808601826156a7565b508091505092915050565b60006101608301600083015184820360008601526152eb8282614d31565b91505060208301516153006020860182614ae1565b50604083015184820360408601526153188282614d31565b915050606083015184820360608601526153328282614d31565b9150506080830151848203608086015261534c8282614d31565b91505060a083015184820360a08601526153668282614d31565b91505060c083015161537b60c08601826156d4565b5060e083015161538e60e08601826156c5565b506101008301518482036101008601526153a88282614d31565b9150506101208301516153bf6101208601826156b6565b506101408301516153d46101408601826156b6565b508091505092915050565b60006101608301600083015184820360008601526153fd8282614d31565b91505060208301516154126020860182614ae1565b506040830151848203604086015261542a8282614d31565b915050606083015184820360608601526154448282614d31565b9150506080830151848203608086015261545e8282614d31565b91505060a083015184820360a08601526154788282614d31565b91505060c083015161548d60c08601826156d4565b5060e08301516154a060e08601826156c5565b506101008301518482036101008601526154ba8282614d31565b9150506101208301516154d16101208601826156b6565b506101408301516154e66101408601826156b6565b508091505092915050565b6000608083016000830151848203600086015261550e8282614d31565b915050602083015184820360208601526155288282614d31565b915050604083015184820360408601526155428282614d31565b9150506060830151848203606086015261555c8282614d31565b9150508091505092915050565b600060808301600083015184820360008601526155868282614d31565b915050602083015184820360208601526155a08282614d31565b915050604083015184820360408601526155ba8282614d31565b915050606083015184820360608601526155d48282614d31565b9150508091505092915050565b600060e08301600083015184820360008601526155fe8282614d31565b915050602083015184820360208601526156188282614d31565b915050604083015184820360408601526156328282614d31565b9150506060830151848203606086015261564c8282614d31565b915050608083015184820360808601526156668282614d31565b91505060a083015184820360a08601526156808282614d31565b91505060c083015184820360c086015261569a8282614d31565b9150508091505092915050565b6156b081615c63565b82525050565b6156bf81615c9f565b82525050565b6156ce81615ca9565b82525050565b6156dd81615cb9565b82525050565b60006156ef8284614d6a565b915081905092915050565b60006157068284614d9b565b915081905092915050565b600061571c82614e5a565b9150819050919050565b600061573182614eda565b9150819050919050565b600061574682614f1a565b9150819050919050565b600061575b82614f9a565b9150819050919050565b600061577082614fda565b9150819050919050565b60006157858261501a565b9150819050919050565b600061579a8261505a565b9150819050919050565b60006157af8261509a565b9150819050919050565b60006157c4826150da565b9150819050919050565b60006157d98261511a565b9150819050919050565b600060208201905081810360008301526157fd8184614af0565b905092915050565b6000602082019050818103600083015261581f8184614b65565b905092915050565b600060208201905081810360008301526158418184614bda565b905092915050565b600060208201905081810360008301526158638184614c4f565b905092915050565b600060208201905081810360008301526158858184614cc4565b905092915050565b60006020820190506158a26000830184614d22565b92915050565b600060208201905081810360008301526158c181614e1a565b9050919050565b600060208201905081810360008301526158e181614e9a565b9050919050565b6000602082019050818103600083015261590181614f5a565b9050919050565b600060208201905081810360008301526159218161515a565b9050919050565b600060208201905081810360008301526159418161519a565b9050919050565b60006020820190508181036000830152615961816151da565b9050919050565b600060208201905081810360008301526159828184615257565b905092915050565b600060208201905081810360008301526159a481846153df565b905092915050565b600060208201905081810360008301526159c68184615569565b905092915050565b600060208201905081810360008301526159e881846155e1565b905092915050565b6000604051905081810181811067ffffffffffffffff82111715615a1757615a16615de8565b5b8060405250919050565b600067ffffffffffffffff821115615a3c57615a3b615de8565b5b601f19601f8301169050602081019050919050565b6000819050602082019050919050565b6000819050602082019050919050565b6000819050602082019050919050565b6000819050602082019050919050565b6000819050602082019050919050565b60008190508160005260206000209050919050565b600081519050919050565b600081519050919050565b600081519050919050565b600081519050919050565b600081519050919050565b600081519050919050565b6000602082019050919050565b6000602082019050919050565b6000602082019050919050565b6000602082019050919050565b6000602082019050919050565b600082825260208201905092915050565b600082825260208201905092915050565b600082825260208201905092915050565b600082825260208201905092915050565b600082825260208201905092915050565b600082825260208201905092915050565b600082825260208201905092915050565b600081905092915050565b6000615bc682615c9f565b9150615bd183615c9f565b9250827fffffffffffffffffffffffffffffffffffffffffffffffffffffffffffffffff03821115615c0657615c05615d8a565b5b828201905092915050565b6000615c1c82615c9f565b9150615c2783615c9f565b925082821015615c3a57615c39615d8a565b5b828203905092915050565b6000615c5082615c7f565b9050919050565b60008115159050919050565b60006fffffffffffffffffffffffffffffffff82169050919050565b600073ffffffffffffffffffffffffffffffffffffffff82169050919050565b6000819050919050565b600063ffffffff82169050919050565b600067ffffffffffffffff82169050919050565b82818337600083830152505050565b60005b83811015615cfa578082015181840152602081019050615cdf565b83811115615d09576000848401525b50505050565b60006002820490506001821680615d2757607f821691505b60208210811415615d3b57615d3a615db9565b5b50919050565b6000615d4c82615c9f565b91507fffffffffffffffffffffffffffffffffffffffffffffffffffffffffffffffff821415615d7f57615d7e615d8a565b5b600182019050919050565b7f4e487b7100000000000000000000000000000000000000000000000000000000600052601160045260246000fd5b7f4e487b7100000000000000000000000000000000000000000000000000000000600052602260045260246000fd5b7f4e487b7100000000000000000000000000000000000000000000000000000000600052604160045260246000fd5b6000601f19601f8301169050919050565b615e3181615c63565b8114615e3c57600080fd5b50565b615e4881615c9f565b8114615e5357600080fd5b50565b615e5f81615ca9565b8114615e6a57600080fd5b50565b615e7681615cb9565b8114615e8157600080fd5b5056fea26469706673582212206343c206edb3928dacdd255f732119a454ad75c5256c6e2160379835d583da2964736f6c63430008000033",
  "immutableReferences": {},
  "source": "//SPDX-License-Identifier: MIT\r\npragma solidity ^0.8.0;\r\ncontract Venues{\r\n\r\n    struct VenueLocked{\r\n        string venueId;\r\n        address owner;\r\n        string venueName;\r\n        string venueType;//Hotel,Stadium,Outdoor Venue,Concert Hall,Theater,Confrence Center\r\n        string location;\r\n        string description;\r\n        uint64 venuePhoneNo;\r\n        uint32 maxCapacity;\r\n        string status; // available,pending,booked,unavailable\r\n        uint dateCreated;  //change this to an array of the days booked\r\n        uint dateModified;\r\n    }\r\n\r\n    struct PaymentDetails{\r\n        string venueId;\r\n        uint32 price;\r\n        uint128 telebirrAccount;\r\n        uint128 chapaAccount;\r\n        uint128 cbeAccount;\r\n    }\r\n    struct VenueService{\r\n        string venueId;\r\n        string catering;\r\n        string parking;\r\n        string bar;\r\n        string staffing;\r\n        string decore;\r\n        string audiovisual;\r\n    }\r\n    struct VenuePhotoAddress{\r\n        string venueId;\r\n        string photo1;\r\n        string photo2;\r\n        string photo3;\r\n    }\r\n    struct BookedDates{\r\n        string venueId;\r\n        uint date;\r\n    }\r\n\r\n//mappig the structs\r\n    mapping (string => VenueLocked) private venues;\r\n    string[] private venueAccounts;\r\n\r\n    mapping (string => PaymentDetails) private paymentDetails;\r\n\r\n    mapping (string => VenueService) private venueService;\r\n\r\n    mapping (string => VenuePhotoAddress) private venuePhotoAddress;\r\n\r\n    mapping (uint => BookedDates) private bookedDate;\r\n    uint[] private _bookedId;\r\n    \r\n//modifiers\r\n\r\n    modifier isDateAvailable(string memory _venueId, uint _date) {\r\n        for(uint i=0; i < _bookedId.length; i++){\r\n            if(keccak256(abi.encodePacked(_venueId)) == keccak256(abi.encodePacked(bookedDate[i].venueId))){\r\n                if( ((_date) > (bookedDate[i].date - 1 days)) && ((_date) < (bookedDate[i].date + 1 days)) ){\r\n                    revert(\"Date Already Booked!\");\r\n                }\r\n            }\r\n        }\r\n        _;\r\n    }\r\n\r\n    modifier checkVenueStatus(string memory _status) {\r\n        require(\r\n            keccak256(abi.encodePacked(_status)) ==\r\n                keccak256(abi.encodePacked(\"Available\")) ||\r\n                keccak256(abi.encodePacked(_status)) ==\r\n                keccak256(abi.encodePacked(\"Pending\")) ||\r\n                keccak256(abi.encodePacked(_status)) ==\r\n                keccak256(abi.encodePacked(\"Booked\")) ||\r\n                keccak256(abi.encodePacked(_status)) ==\r\n                keccak256(abi.encodePacked(\"Unavailable\")),\r\n            \"Wrong Status\"\r\n        );\r\n        _;\r\n    }\r\n\r\n    modifier checkVenueType(string memory _venueType) {\r\n        require(\r\n            keccak256(abi.encodePacked(_venueType)) ==\r\n                keccak256(abi.encodePacked(\"Hotel\")) ||\r\n                keccak256(abi.encodePacked(_venueType)) ==\r\n                keccak256(abi.encodePacked(\"Stadium\")) ||\r\n                keccak256(abi.encodePacked(_venueType)) ==\r\n                keccak256(abi.encodePacked(\"Outdoor Venue\")) ||\r\n                keccak256(abi.encodePacked(_venueType)) ==\r\n                keccak256(abi.encodePacked(\"Concert Hall\")) ||\r\n                keccak256(abi.encodePacked(_venueType)) ==\r\n                keccak256(abi.encodePacked(\"Theater\")) ||\r\n                keccak256(abi.encodePacked(_venueType)) ==\r\n                keccak256(abi.encodePacked(\"Confrence Center\")),\r\n            \"Wrong venue type\"\r\n        );\r\n        _;\r\n    }\r\n\r\n    modifier isAccountExist(string memory _venueId){\r\n        require(keccak256(abi.encodePacked(venues[_venueId].venueId)) != keccak256(abi.encodePacked(_venueId)),\"Account already exists\");\r\n        _;\r\n    }\r\n\r\n    modifier checkTheOwner(address _owner,string memory _venueId){\r\n        require(venues[_venueId].owner == _owner,\"The owner is not the same\");\r\n        _;\r\n    }\r\n\r\n    modifier isAccountAvailable(string memory _venueId){\r\n        require(keccak256(abi.encodePacked(_venueId)) == keccak256(abi.encodePacked(venues[_venueId].venueId)),\"Account doesnt exists\");\r\n            _;\r\n    }\r\n\r\n//get all the venue ID's\r\n    function getVenueIDList() public view returns(string[] memory) {\r\n        return venueAccounts;\r\n    }\r\n    \r\n    function getBookedId() public view returns(uint[] memory) {\r\n        return _bookedId;\r\n    }\r\n\r\n    function getAllBookedDates() public view returns(BookedDates[] memory) {\r\n        BookedDates[] memory tempDates = new BookedDates[](_bookedId.length);\r\n        for (uint256 i=0; i<_bookedId.length; i++){\r\n            tempDates[i]= bookedDate[i];\r\n        } \r\n        return tempDates;\r\n    }\r\n\r\n//check if the venue ID is available\r\n    function checkVenueIDExistance(string memory tempVenueID)\r\n    public view returns(bool){\r\n        for (uint256 i=0; i<venueAccounts.length; i++){\r\n            if (keccak256(abi.encodePacked(tempVenueID))==keccak256(abi.encodePacked(venueAccounts[i])))\r\n            return true;\r\n        }\r\n        return false;\r\n    }\r\n\r\n//creating a venue\r\n    function createVenueLocked(\r\n        string memory _venueID,\r\n        string memory _venueName,\r\n        string memory _venueType,\r\n        string memory _location,\r\n        string memory _description,\r\n        uint64 _venuePhoneNo,\r\n        uint32 _maxCapacity\r\n    )isAccountExist(_venueID) checkVenueType(_venueType) public {\r\n        venues[_venueID]=VenueLocked(\r\n        _venueID,\r\n        msg.sender,\r\n        _venueName,\r\n        _venueType,\r\n        _location,\r\n        _description,\r\n        _venuePhoneNo,\r\n        _maxCapacity,\r\n        \"Available\",\r\n        block.timestamp,\r\n        block.timestamp\r\n        );\r\n        venueAccounts.push(_venueID);\r\n    }\r\n\r\n//this function will add the address of the venue photos\r\n    function addVenuePhotoLocked(\r\n        string memory _venueId, \r\n        string memory _venuePhotoAddress1,\r\n        string memory _venuePhotoAddress2,\r\n        string memory _venuePhotoAddress3\r\n    )isAccountAvailable(_venueId) checkTheOwner(msg.sender,_venueId) public {\r\n        venuePhotoAddress[_venueId]=VenuePhotoAddress(\r\n            _venueId,\r\n            _venuePhotoAddress1,\r\n            _venuePhotoAddress2,\r\n            _venuePhotoAddress3\r\n        );\r\n    }\r\n\r\n//this function will add the payment informations of the venue\r\n    function addPaymentDetails(\r\n        string memory _venueId, \r\n        uint32 _price,\r\n        uint128 _telebirrAccount,\r\n        uint128 _chapaAccount,\r\n        uint128 _cbeAccount\r\n    )isAccountAvailable(_venueId) checkTheOwner(msg.sender,_venueId) public {\r\n        paymentDetails[_venueId]=PaymentDetails(\r\n            _venueId,\r\n            _price,\r\n            _telebirrAccount,\r\n            _chapaAccount,\r\n            _cbeAccount\r\n        );\r\n    }\r\n\r\n//this function will add the services the venue provides\r\n    function addVenueService(\r\n        string memory _venueId, \r\n         string memory _catering,\r\n         string memory _parking,\r\n         string memory _bar,\r\n         string memory _staffing,\r\n         string memory _decore,\r\n         string memory _audiovisual\r\n    )isAccountAvailable(_venueId) checkTheOwner(msg.sender,_venueId) public {\r\n        venueService[_venueId]=VenueService(\r\n            _venueId,\r\n            _catering,\r\n            _parking,\r\n            _bar,\r\n            _staffing,\r\n            _decore,\r\n            _audiovisual\r\n        );\r\n    }\r\n\r\n//this function will check if the date is taken\r\n    function checkIsDateBooked(string memory _venueId,uint _date)\r\n    isAccountAvailable(_venueId)  view public returns(bool) {\r\n        for(uint i=0; i < _bookedId.length; i++){\r\n            if(keccak256(abi.encodePacked(_venueId)) == keccak256(abi.encodePacked(bookedDate[i].venueId))){\r\n                if( ((_date) > (bookedDate[i].date - 1 days)) && ((_date) < (bookedDate[i].date + 1 days)) ){\r\n                    return(true);\r\n                }\r\n            }\r\n        }\r\n        return(false);\r\n    }\r\n\r\n//this function will add the dates the venue is booked\r\n    function addBookedDate(\r\n        string memory _venueId, \r\n        uint256 _date\r\n    )isAccountAvailable(_venueId) \r\n    isDateAvailable(_venueId,_date) public {\r\n        bookedDate[(_bookedId.length)]=BookedDates(\r\n            _venueId,\r\n            _date\r\n        );\r\n        _bookedId.push(_date);\r\n    }\r\n\r\n//return the dates the venue is booked\r\n    function getBookedDates(string memory _venueId) view public   \r\n    isAccountAvailable(_venueId) returns(BookedDates[] memory){\r\n        uint256 temp=0;\r\n        for (uint256 i=0; i<_bookedId.length; i++){\r\n            if ((keccak256(abi.encodePacked(bookedDate[i].venueId)))==(keccak256(abi.encodePacked(_venueId)))){\r\n                temp++;\r\n            }\r\n        }\r\n        BookedDates[] memory tempDates = new BookedDates[](temp);\r\n        uint256 temp3=0;\r\n        for (uint256 i=0; i<_bookedId.length; i++){\r\n            if ((keccak256(abi.encodePacked(bookedDate[i].venueId)))==(keccak256(abi.encodePacked(_venueId)))){\r\n                tempDates[temp3]= bookedDate[i];\r\n                temp3++;\r\n            }\r\n        } \r\n        return tempDates;\r\n    }\r\n    \r\n\r\n//this function will update the status of the venue\r\n    function updateStatusVenueLocked(\r\n        string memory _venueId, \r\n        string memory _status \r\n    )checkVenueStatus(_status) \r\n    isAccountAvailable(_venueId) public { // change the ownwer\r\n        venues[_venueId].status=_status;\r\n        venues[_venueId].dateModified=block.timestamp;\r\n    }\r\n\r\n//return all information about a certain venue\r\n    function getVenueLocked(\r\n        string memory _venueId\r\n        )isAccountAvailable(_venueId) public view \r\n        returns(VenueLocked memory){ \r\n        return venues[_venueId]; \r\n    }\r\n//return all information about a certain venue payment detail\r\n    function getPaymentDetails(string memory _venueId)  \r\n    public view isAccountAvailable(_venueId)\r\n    returns(PaymentDetails memory){ \r\n        return paymentDetails[_venueId]; \r\n    }\r\n//return all information about a certain venue service\r\n    function getVenueService(string memory _venueId)  \r\n    public view isAccountAvailable(_venueId)\r\n    returns(VenueService memory){ \r\n        return venueService[_venueId]; \r\n    } \r\n//return all information about a certain venue photo address\r\n    function getPhotoAddress(string memory _venueId)  \r\n    public view isAccountAvailable(_venueId)\r\n    returns(VenuePhotoAddress memory){ \r\n        return venuePhotoAddress[_venueId]; \r\n    } \r\n\r\n//return all photo information about all venues\r\n    function getAllPhotoAddress() public view  \r\n    returns(VenuePhotoAddress[] memory){\r\n        VenuePhotoAddress[] memory tempVenues = new VenuePhotoAddress[](venueAccounts.length);\r\n        for (uint256 i=0; i<venueAccounts.length; i++){\r\n            tempVenues[i]= venuePhotoAddress[venueAccounts[i]];\r\n        } \r\n        return tempVenues;\r\n    }\r\n\r\n//return all information about all venues\r\n    function getAllVenuesLocked() public view  \r\n    returns(VenueLocked[] memory){\r\n        VenueLocked[] memory tempVenues = new VenueLocked[](venueAccounts.length);\r\n        for (uint256 i=0; i<venueAccounts.length; i++){\r\n            tempVenues[i]= venues[venueAccounts[i]];\r\n        } \r\n        return tempVenues;\r\n    }\r\n\r\n//return all information about all venues the user owns\r\n    function getOwnedVenues() view public   \r\n    returns(VenueLocked[] memory){\r\n        uint256 temp=0;\r\n        for (uint256 i=0; i<venueAccounts.length; i++){\r\n            if (venues[venueAccounts[i]].owner==msg.sender){\r\n                temp++;\r\n            }\r\n        }\r\n        VenueLocked[] memory tempVenues = new VenueLocked[](temp);\r\n        uint256 temp3=0;\r\n        for (uint256 i=0; i<venueAccounts.length; i++){\r\n            if (venues[venueAccounts[i]].owner==msg.sender){\r\n                tempVenues[temp3]= venues[venueAccounts[i]];\r\n                temp3++;\r\n            }\r\n        } \r\n        return tempVenues;\r\n    }\r\n\r\n\r\n//this function deletes a venue\r\n    function deleteVenue(\r\n        string memory _venueId\r\n        )isAccountAvailable(_venueId) public {\r\n        delete venues[_venueId];\r\n        for (uint256 i=0; i<venueAccounts.length; i++){\r\n            if (keccak256(abi.encodePacked(_venueId))==keccak256(abi.encodePacked(venueAccounts[i]))){\r\n            venueAccounts[i]=venueAccounts[venueAccounts.length-1];\r\n            venueAccounts.pop();\r\n            break; \r\n            }\r\n        }\r\n    }\r\n}",
  "sourcePath": "C:\\Users\\hello\\Downloads\\Telegram Desktop\\test(12) - Copy (3)\\test(12) - Copy\\contracts\\Venue (2).sol",
  "compiler": {
    "name": "solc",
    "version": "0.8.0+commit.c7dfd78e.Emscripten.clang"
  },
  "schemaVersion": "3.4.16",
  "updatedAt": "2024-04-22T06:17:22.396Z",
  "networkType": "ethereum",
  "devdoc": {
    "kind": "dev",
    "methods": {},
    "version": 1
  },
  "userdoc": {
    "kind": "user",
    "methods": {},
    "version": 1
  }
}