{
  "contractName": "Users",
  "abi": [
    {
      "inputs": [],
      "name": "userAccountListLocked",
      "outputs": [
        {
          "internalType": "address[]",
          "name": "",
          "type": "address[]"
        }
      ],
      "stateMutability": "view",
      "type": "function",
      "constant": true
    },
    {
      "inputs": [
        {
          "internalType": "address",
          "name": "tempUserAccount",
          "type": "address"
        }
      ],
      "name": "userAccountExistanceLocked",
      "outputs": [
        {
          "internalType": "bool",
          "name": "",
          "type": "bool"
        }
      ],
      "stateMutability": "view",
      "type": "function",
      "constant": true
    },
    {
      "inputs": [
        {
          "internalType": "string",
          "name": "_firstName",
          "type": "string"
        },
        {
          "internalType": "string",
          "name": "_lastName",
          "type": "string"
        },
        {
          "internalType": "string",
          "name": "_email",
          "type": "string"
        },
        {
          "internalType": "string",
          "name": "_username",
          "type": "string"
        },
        {
          "internalType": "string",
          "name": "_password",
          "type": "string"
        },
        {
          "internalType": "uint256",
          "name": "_phoneNo",
          "type": "uint256"
        },
        {
          "internalType": "uint8",
          "name": "_age",
          "type": "uint8"
        },
        {
          "internalType": "string",
          "name": "_role",
          "type": "string"
        }
      ],
      "name": "createUserLocked",
      "outputs": [],
      "stateMutability": "nonpayable",
      "type": "function"
    },
    {
      "inputs": [
        {
          "internalType": "string",
          "name": "_password",
          "type": "string"
        }
      ],
      "name": "verifyUser",
      "outputs": [
        {
          "internalType": "bool",
          "name": "",
          "type": "bool"
        }
      ],
      "stateMutability": "view",
      "type": "function",
      "constant": true
    },
    {
      "inputs": [
        {
          "internalType": "string",
          "name": "_password",
          "type": "string"
        }
      ],
      "name": "verifyUser2",
      "outputs": [
        {
          "components": [
            {
              "internalType": "string",
              "name": "firstName",
              "type": "string"
            },
            {
              "internalType": "string",
              "name": "lastName",
              "type": "string"
            },
            {
              "internalType": "string",
              "name": "email",
              "type": "string"
            },
            {
              "internalType": "string",
              "name": "username",
              "type": "string"
            },
            {
              "internalType": "string",
              "name": "password",
              "type": "string"
            },
            {
              "internalType": "address",
              "name": "account",
              "type": "address"
            },
            {
              "internalType": "uint256",
              "name": "phoneNo",
              "type": "uint256"
            },
            {
              "internalType": "uint8",
              "name": "age",
              "type": "uint8"
            },
            {
              "internalType": "string",
              "name": "role",
              "type": "string"
            },
            {
              "internalType": "bool",
              "name": "status",
              "type": "bool"
            },
            {
              "internalType": "string",
              "name": "idPhotoAddress",
              "type": "string"
            }
          ],
          "internalType": "struct Users.UserLocked",
          "name": "",
          "type": "tuple"
        }
      ],
      "stateMutability": "view",
      "type": "function",
      "constant": true
    },
    {
      "inputs": [
        {
          "internalType": "address",
          "name": "_account",
          "type": "address"
        },
        {
          "internalType": "string",
          "name": "_idPhotoAddress",
          "type": "string"
        }
      ],
      "name": "addUserIdPhotoLocked",
      "outputs": [],
      "stateMutability": "nonpayable",
      "type": "function"
    },
    {
      "inputs": [
        {
          "internalType": "address",
          "name": "tempAddress",
          "type": "address"
        }
      ],
      "name": "getUserLocked",
      "outputs": [
        {
          "components": [
            {
              "internalType": "string",
              "name": "firstName",
              "type": "string"
            },
            {
              "internalType": "string",
              "name": "lastName",
              "type": "string"
            },
            {
              "internalType": "string",
              "name": "email",
              "type": "string"
            },
            {
              "internalType": "string",
              "name": "username",
              "type": "string"
            },
            {
              "internalType": "string",
              "name": "password",
              "type": "string"
            },
            {
              "internalType": "address",
              "name": "account",
              "type": "address"
            },
            {
              "internalType": "uint256",
              "name": "phoneNo",
              "type": "uint256"
            },
            {
              "internalType": "uint8",
              "name": "age",
              "type": "uint8"
            },
            {
              "internalType": "string",
              "name": "role",
              "type": "string"
            },
            {
              "internalType": "bool",
              "name": "status",
              "type": "bool"
            },
            {
              "internalType": "string",
              "name": "idPhotoAddress",
              "type": "string"
            }
          ],
          "internalType": "struct Users.UserLocked",
          "name": "",
          "type": "tuple"
        }
      ],
      "stateMutability": "view",
      "type": "function",
      "constant": true
    },
    {
      "inputs": [],
      "name": "getAllUsersLocked",
      "outputs": [
        {
          "components": [
            {
              "internalType": "string",
              "name": "firstName",
              "type": "string"
            },
            {
              "internalType": "string",
              "name": "lastName",
              "type": "string"
            },
            {
              "internalType": "string",
              "name": "email",
              "type": "string"
            },
            {
              "internalType": "string",
              "name": "username",
              "type": "string"
            },
            {
              "internalType": "string",
              "name": "password",
              "type": "string"
            },
            {
              "internalType": "address",
              "name": "account",
              "type": "address"
            },
            {
              "internalType": "uint256",
              "name": "phoneNo",
              "type": "uint256"
            },
            {
              "internalType": "uint8",
              "name": "age",
              "type": "uint8"
            },
            {
              "internalType": "string",
              "name": "role",
              "type": "string"
            },
            {
              "internalType": "bool",
              "name": "status",
              "type": "bool"
            },
            {
              "internalType": "string",
              "name": "idPhotoAddress",
              "type": "string"
            }
          ],
          "internalType": "struct Users.UserLocked[]",
          "name": "",
          "type": "tuple[]"
        }
      ],
      "stateMutability": "view",
      "type": "function",
      "constant": true
    },
    {
      "inputs": [
        {
          "internalType": "address",
          "name": "_account",
          "type": "address"
        },
        {
          "internalType": "string",
          "name": "_firstName",
          "type": "string"
        },
        {
          "internalType": "string",
          "name": "_lastName",
          "type": "string"
        },
        {
          "internalType": "string",
          "name": "_email",
          "type": "string"
        },
        {
          "internalType": "string",
          "name": "_username",
          "type": "string"
        },
        {
          "internalType": "string",
          "name": "_password",
          "type": "string"
        },
        {
          "internalType": "uint256",
          "name": "_phoneNo",
          "type": "uint256"
        }
      ],
      "name": "updateUserLocked",
      "outputs": [],
      "stateMutability": "nonpayable",
      "type": "function"
    },
    {
      "inputs": [
        {
          "internalType": "address",
          "name": "tempAddress",
          "type": "address"
        }
      ],
      "name": "deleteUserLocked",
      "outputs": [],
      "stateMutability": "nonpayable",
      "type": "function"
    }
  ],
  "bytecode": "0x608060405234801561001057600080fd5b50612dcc806100206000396000f3fe608060405234801561001057600080fd5b506004361061009e5760003560e01c80638b71540f116100665780638b71540f146101455780638c3cf35014610163578063ce70f9831461017f578063e14b5fac146101af578063e600c817146101df5761009e565b8063129d80d4146100a357806356e6952b146100bf5780635b5d323f146100db578063769f7de4146100f75780637ca67d3b14610115575b600080fd5b6100bd60048036038101906100b89190612180565b61020f565b005b6100d960048036038101906100d4919061212c565b610456565b005b6100f560048036038101906100f09190612103565b610554565b005b6100ff61093d565b60405161010c919061298e565b60405180910390f35b61012f600480360381019061012a9190612103565b610f75565b60405161013c91906129b0565b60405180910390f35b61014d61104a565b60405161015a919061296c565b60405180910390f35b61017d600480360381019061017891906122d7565b6110d8565b005b61019960048036038101906101949190612296565b611363565b6040516101a69190612a2b565b60405180910390f35b6101c960048036038101906101c49190612103565b611922565b6040516101d69190612a2b565b60405180910390f35b6101f960048036038101906101f49190612296565b611e5b565b60405161020691906129b0565b60405180910390f35b8661021981610f75565b610258576040517f08c379a000000000000000000000000000000000000000000000000000000000815260040161024f90612a0b565b60405180910390fd5b866000808a73ffffffffffffffffffffffffffffffffffffffff1673ffffffffffffffffffffffffffffffffffffffff16815260200190815260200160002060000190805190602001906102ad929190611f04565b50856000808a73ffffffffffffffffffffffffffffffffffffffff1673ffffffffffffffffffffffffffffffffffffffff1681526020019081526020016000206001019080519060200190610303929190611f04565b50846000808a73ffffffffffffffffffffffffffffffffffffffff1673ffffffffffffffffffffffffffffffffffffffff1681526020019081526020016000206002019080519060200190610359929190611f04565b50836000808a73ffffffffffffffffffffffffffffffffffffffff1673ffffffffffffffffffffffffffffffffffffffff16815260200190815260200160002060030190805190602001906103af929190611f04565b50826000808a73ffffffffffffffffffffffffffffffffffffffff1673ffffffffffffffffffffffffffffffffffffffff1681526020019081526020016000206004019080519060200190610405929190611f04565b50816000808a73ffffffffffffffffffffffffffffffffffffffff1673ffffffffffffffffffffffffffffffffffffffff168152602001908152602001600020600601819055505050505050505050565b8161046081610f75565b61049f576040517f08c379a000000000000000000000000000000000000000000000000000000000815260040161049690612a0b565b60405180910390fd5b816000808573ffffffffffffffffffffffffffffffffffffffff1673ffffffffffffffffffffffffffffffffffffffff168152602001908152602001600020600a0190805190602001906104f4929190611f04565b5060016000808573ffffffffffffffffffffffffffffffffffffffff1673ffffffffffffffffffffffffffffffffffffffff16815260200190815260200160002060090160006101000a81548160ff021916908315150217905550505050565b8061055e81610f75565b61059d576040517f08c379a000000000000000000000000000000000000000000000000000000000815260040161059490612a0b565b60405180910390fd5b813373ffffffffffffffffffffffffffffffffffffffff168173ffffffffffffffffffffffffffffffffffffffff161461060c576040517f08c379a0000000000000000000000000000000000000000000000000000000008152600401610603906129eb565b60405180910390fd5b6000808473ffffffffffffffffffffffffffffffffffffffff1673ffffffffffffffffffffffffffffffffffffffff1681526020019081526020016000206000808201600061065b9190611f8a565b60018201600061066b9190611f8a565b60028201600061067b9190611f8a565b60038201600061068b9190611f8a565b60048201600061069b9190611f8a565b6005820160006101000a81549073ffffffffffffffffffffffffffffffffffffffff021916905560068201600090556007820160006101000a81549060ff02191690556008820160006106ee9190611f8a565b6009820160006101000a81549060ff0219169055600a820160006107129190611f8a565b505060005b600180549050811015610937576001818154811061075e577f4e487b7100000000000000000000000000000000000000000000000000000000600052603260045260246000fd5b9060005260206000200160009054906101000a900473ffffffffffffffffffffffffffffffffffffffff1673ffffffffffffffffffffffffffffffffffffffff168473ffffffffffffffffffffffffffffffffffffffff1614156109245760018080805490506107ce9190612b6d565b81548110610805577f4e487b7100000000000000000000000000000000000000000000000000000000600052603260045260246000fd5b9060005260206000200160009054906101000a900473ffffffffffffffffffffffffffffffffffffffff166001828154811061086a577f4e487b7100000000000000000000000000000000000000000000000000000000600052603260045260246000fd5b9060005260206000200160006101000a81548173ffffffffffffffffffffffffffffffffffffffff021916908373ffffffffffffffffffffffffffffffffffffffff16021790555060018054806108ea577f4e487b7100000000000000000000000000000000000000000000000000000000600052603160045260246000fd5b6001900381819060005260206000200160006101000a81549073ffffffffffffffffffffffffffffffffffffffff02191690559055610937565b808061092f90612c6a565b915050610717565b50505050565b6060600060018054905067ffffffffffffffff811115610986577f4e487b7100000000000000000000000000000000000000000000000000000000600052604160045260246000fd5b6040519080825280602002602001820160405280156109bf57816020015b6109ac611fca565b8152602001906001900390816109a45790505b50905060005b600180549050811015610f6d5760008060018381548110610a0f577f4e487b7100000000000000000000000000000000000000000000000000000000600052603260045260246000fd5b9060005260206000200160009054906101000a900473ffffffffffffffffffffffffffffffffffffffff1673ffffffffffffffffffffffffffffffffffffffff1673ffffffffffffffffffffffffffffffffffffffff16815260200190815260200160002060405180610160016040529081600082018054610a9090612c38565b80601f0160208091040260200160405190810160405280929190818152602001828054610abc90612c38565b8015610b095780601f10610ade57610100808354040283529160200191610b09565b820191906000526020600020905b815481529060010190602001808311610aec57829003601f168201915b50505050508152602001600182018054610b2290612c38565b80601f0160208091040260200160405190810160405280929190818152602001828054610b4e90612c38565b8015610b9b5780601f10610b7057610100808354040283529160200191610b9b565b820191906000526020600020905b815481529060010190602001808311610b7e57829003601f168201915b50505050508152602001600282018054610bb490612c38565b80601f0160208091040260200160405190810160405280929190818152602001828054610be090612c38565b8015610c2d5780601f10610c0257610100808354040283529160200191610c2d565b820191906000526020600020905b815481529060010190602001808311610c1057829003601f168201915b50505050508152602001600382018054610c4690612c38565b80601f0160208091040260200160405190810160405280929190818152602001828054610c7290612c38565b8015610cbf5780601f10610c9457610100808354040283529160200191610cbf565b820191906000526020600020905b815481529060010190602001808311610ca257829003601f168201915b50505050508152602001600482018054610cd890612c38565b80601f0160208091040260200160405190810160405280929190818152602001828054610d0490612c38565b8015610d515780601f10610d2657610100808354040283529160200191610d51565b820191906000526020600020905b815481529060010190602001808311610d3457829003601f168201915b505050505081526020016005820160009054906101000a900473ffffffffffffffffffffffffffffffffffffffff1673ffffffffffffffffffffffffffffffffffffffff1673ffffffffffffffffffffffffffffffffffffffff168152602001600682015481526020016007820160009054906101000a900460ff1660ff1660ff168152602001600882018054610de790612c38565b80601f0160208091040260200160405190810160405280929190818152602001828054610e1390612c38565b8015610e605780601f10610e3557610100808354040283529160200191610e60565b820191906000526020600020905b815481529060010190602001808311610e4357829003601f168201915b505050505081526020016009820160009054906101000a900460ff16151515158152602001600a82018054610e9490612c38565b80601f0160208091040260200160405190810160405280929190818152602001828054610ec090612c38565b8015610f0d5780601f10610ee257610100808354040283529160200191610f0d565b820191906000526020600020905b815481529060010190602001808311610ef057829003601f168201915b505050505081525050828281518110610f4f577f4e487b7100000000000000000000000000000000000000000000000000000000600052603260045260246000fd5b60200260200101819052508080610f6590612c6a565b9150506109c5565b508091505090565b600080600090505b60018054905081101561103f5760018181548110610fc4577f4e487b7100000000000000000000000000000000000000000000000000000000600052603260045260246000fd5b9060005260206000200160009054906101000a900473ffffffffffffffffffffffffffffffffffffffff1673ffffffffffffffffffffffffffffffffffffffff168373ffffffffffffffffffffffffffffffffffffffff16141561102c576001915050611045565b808061103790612c6a565b915050610f7d565b50600090505b919050565b606060018054806020026020016040519081016040528092919081815260200182805480156110ce57602002820191906000526020600020905b8160009054906101000a900473ffffffffffffffffffffffffffffffffffffffff1673ffffffffffffffffffffffffffffffffffffffff1681526020019060010190808311611084575b5050505050905090565b60003390506040518061016001604052808a81526020018981526020018881526020018781526020018681526020018273ffffffffffffffffffffffffffffffffffffffff1681526020018581526020018460ff168152602001838152602001600015158152602001604051806020016040528060008152508152506000808373ffffffffffffffffffffffffffffffffffffffff1673ffffffffffffffffffffffffffffffffffffffff16815260200190815260200160002060008201518160000190805190602001906111ae929190611f04565b5060208201518160010190805190602001906111cb929190611f04565b5060408201518160020190805190602001906111e8929190611f04565b506060820151816003019080519060200190611205929190611f04565b506080820151816004019080519060200190611222929190611f04565b5060a08201518160050160006101000a81548173ffffffffffffffffffffffffffffffffffffffff021916908373ffffffffffffffffffffffffffffffffffffffff16021790555060c0820151816006015560e08201518160070160006101000a81548160ff021916908360ff1602179055506101008201518160080190805190602001906112b2929190611f04565b506101208201518160090160006101000a81548160ff02191690831515021790555061014082015181600a0190805190602001906112f1929190611f04565b509050506001819080600181540180825580915050600190039060005260206000200160009091909190916101000a81548173ffffffffffffffffffffffffffffffffffffffff021916908373ffffffffffffffffffffffffffffffffffffffff160217905550505050505050505050565b61136b611fca565b818060405160200161137d919061293e565b604051602081830303815290604052805190602001206000803373ffffffffffffffffffffffffffffffffffffffff1673ffffffffffffffffffffffffffffffffffffffff1681526020019081526020016000206004016040516020016113e49190612955565b604051602081830303815290604052805190602001201461143a576040517f08c379a0000000000000000000000000000000000000000000000000000000008152600401611431906129cb565b60405180910390fd5b6000803373ffffffffffffffffffffffffffffffffffffffff1673ffffffffffffffffffffffffffffffffffffffff1681526020019081526020016000206040518061016001604052908160008201805461149490612c38565b80601f01602080910402602001604051908101604052809291908181526020018280546114c090612c38565b801561150d5780601f106114e25761010080835404028352916020019161150d565b820191906000526020600020905b8154815290600101906020018083116114f057829003601f168201915b5050505050815260200160018201805461152690612c38565b80601f016020809104026020016040519081016040528092919081815260200182805461155290612c38565b801561159f5780601f106115745761010080835404028352916020019161159f565b820191906000526020600020905b81548152906001019060200180831161158257829003601f168201915b505050505081526020016002820180546115b890612c38565b80601f01602080910402602001604051908101604052809291908181526020018280546115e490612c38565b80156116315780601f1061160657610100808354040283529160200191611631565b820191906000526020600020905b81548152906001019060200180831161161457829003601f168201915b5050505050815260200160038201805461164a90612c38565b80601f016020809104026020016040519081016040528092919081815260200182805461167690612c38565b80156116c35780601f10611698576101008083540402835291602001916116c3565b820191906000526020600020905b8154815290600101906020018083116116a657829003601f168201915b505050505081526020016004820180546116dc90612c38565b80601f016020809104026020016040519081016040528092919081815260200182805461170890612c38565b80156117555780601f1061172a57610100808354040283529160200191611755565b820191906000526020600020905b81548152906001019060200180831161173857829003601f168201915b505050505081526020016005820160009054906101000a900473ffffffffffffffffffffffffffffffffffffffff1673ffffffffffffffffffffffffffffffffffffffff1673ffffffffffffffffffffffffffffffffffffffff168152602001600682015481526020016007820160009054906101000a900460ff1660ff1660ff1681526020016008820180546117eb90612c38565b80601f016020809104026020016040519081016040528092919081815260200182805461181790612c38565b80156118645780601f1061183957610100808354040283529160200191611864565b820191906000526020600020905b81548152906001019060200180831161184757829003601f168201915b505050505081526020016009820160009054906101000a900460ff16151515158152602001600a8201805461189890612c38565b80601f01602080910402602001604051908101604052809291908181526020018280546118c490612c38565b80156119115780601f106118e657610100808354040283529160200191611911565b820191906000526020600020905b8154815290600101906020018083116118f457829003601f168201915b505050505081525050915050919050565b61192a611fca565b8161193481610f75565b611973576040517f08c379a000000000000000000000000000000000000000000000000000000000815260040161196a90612a0b565b60405180910390fd5b6000808473ffffffffffffffffffffffffffffffffffffffff1673ffffffffffffffffffffffffffffffffffffffff168152602001908152602001600020604051806101600160405290816000820180546119cd90612c38565b80601f01602080910402602001604051908101604052809291908181526020018280546119f990612c38565b8015611a465780601f10611a1b57610100808354040283529160200191611a46565b820191906000526020600020905b815481529060010190602001808311611a2957829003601f168201915b50505050508152602001600182018054611a5f90612c38565b80601f0160208091040260200160405190810160405280929190818152602001828054611a8b90612c38565b8015611ad85780601f10611aad57610100808354040283529160200191611ad8565b820191906000526020600020905b815481529060010190602001808311611abb57829003601f168201915b50505050508152602001600282018054611af190612c38565b80601f0160208091040260200160405190810160405280929190818152602001828054611b1d90612c38565b8015611b6a5780601f10611b3f57610100808354040283529160200191611b6a565b820191906000526020600020905b815481529060010190602001808311611b4d57829003601f168201915b50505050508152602001600382018054611b8390612c38565b80601f0160208091040260200160405190810160405280929190818152602001828054611baf90612c38565b8015611bfc5780601f10611bd157610100808354040283529160200191611bfc565b820191906000526020600020905b815481529060010190602001808311611bdf57829003601f168201915b50505050508152602001600482018054611c1590612c38565b80601f0160208091040260200160405190810160405280929190818152602001828054611c4190612c38565b8015611c8e5780601f10611c6357610100808354040283529160200191611c8e565b820191906000526020600020905b815481529060010190602001808311611c7157829003601f168201915b505050505081526020016005820160009054906101000a900473ffffffffffffffffffffffffffffffffffffffff1673ffffffffffffffffffffffffffffffffffffffff1673ffffffffffffffffffffffffffffffffffffffff168152602001600682015481526020016007820160009054906101000a900460ff1660ff1660ff168152602001600882018054611d2490612c38565b80601f0160208091040260200160405190810160405280929190818152602001828054611d5090612c38565b8015611d9d5780601f10611d7257610100808354040283529160200191611d9d565b820191906000526020600020905b815481529060010190602001808311611d8057829003601f168201915b505050505081526020016009820160009054906101000a900460ff16151515158152602001600a82018054611dd190612c38565b80601f0160208091040260200160405190810160405280929190818152602001828054611dfd90612c38565b8015611e4a5780601f10611e1f57610100808354040283529160200191611e4a565b820191906000526020600020905b815481529060010190602001808311611e2d57829003601f168201915b505050505081525050915050919050565b600081604051602001611e6e919061293e565b604051602081830303815290604052805190602001206000803373ffffffffffffffffffffffffffffffffffffffff1673ffffffffffffffffffffffffffffffffffffffff168152602001908152602001600020600401604051602001611ed59190612955565b604051602081830303815290604052805190602001201415611efa5760019050611eff565b600090505b919050565b828054611f1090612c38565b90600052602060002090601f016020900481019282611f325760008555611f79565b82601f10611f4b57805160ff1916838001178555611f79565b82800160010185558215611f79579182015b82811115611f78578251825591602001919060010190611f5d565b5b509050611f86919061203f565b5090565b508054611f9690612c38565b6000825580601f10611fa85750611fc7565b601f016020900490600052602060002090810190611fc6919061203f565b5b50565b6040518061016001604052806060815260200160608152602001606081526020016060815260200160608152602001600073ffffffffffffffffffffffffffffffffffffffff16815260200160008152602001600060ff16815260200160608152602001600015158152602001606081525090565b5b80821115612058576000816000905550600101612040565b5090565b600061206f61206a84612a7e565b612a4d565b90508281526020810184848401111561208757600080fd5b612092848285612bf6565b509392505050565b6000813590506120a981612d51565b92915050565b600082601f8301126120c057600080fd5b81356120d084826020860161205c565b91505092915050565b6000813590506120e881612d68565b92915050565b6000813590506120fd81612d7f565b92915050565b60006020828403121561211557600080fd5b60006121238482850161209a565b91505092915050565b6000806040838503121561213f57600080fd5b600061214d8582860161209a565b925050602083013567ffffffffffffffff81111561216a57600080fd5b612176858286016120af565b9150509250929050565b600080600080600080600060e0888a03121561219b57600080fd5b60006121a98a828b0161209a565b975050602088013567ffffffffffffffff8111156121c657600080fd5b6121d28a828b016120af565b965050604088013567ffffffffffffffff8111156121ef57600080fd5b6121fb8a828b016120af565b955050606088013567ffffffffffffffff81111561221857600080fd5b6122248a828b016120af565b945050608088013567ffffffffffffffff81111561224157600080fd5b61224d8a828b016120af565b93505060a088013567ffffffffffffffff81111561226a57600080fd5b6122768a828b016120af565b92505060c06122878a828b016120d9565b91505092959891949750929550565b6000602082840312156122a857600080fd5b600082013567ffffffffffffffff8111156122c257600080fd5b6122ce848285016120af565b91505092915050565b600080600080600080600080610100898b0312156122f457600080fd5b600089013567ffffffffffffffff81111561230e57600080fd5b61231a8b828c016120af565b985050602089013567ffffffffffffffff81111561233757600080fd5b6123438b828c016120af565b975050604089013567ffffffffffffffff81111561236057600080fd5b61236c8b828c016120af565b965050606089013567ffffffffffffffff81111561238957600080fd5b6123958b828c016120af565b955050608089013567ffffffffffffffff8111156123b257600080fd5b6123be8b828c016120af565b94505060a06123cf8b828c016120d9565b93505060c06123e08b828c016120ee565b92505060e089013567ffffffffffffffff8111156123fd57600080fd5b6124098b828c016120af565b9150509295985092959890939650565b60006124258383612445565b60208301905092915050565b600061243d83836126ee565b905092915050565b61244e81612ba1565b82525050565b600061245f82612ae3565b6124698185612b1e565b935061247483612aae565b8060005b838110156124a557815161248c8882612419565b975061249783612b04565b925050600181019050612478565b5085935050505092915050565b60006124bd82612aee565b6124c78185612b2f565b9350836020820285016124d985612abe565b8060005b8581101561251557848403895281516124f68582612431565b945061250183612b11565b925060208a019950506001810190506124dd565b50829750879550505050505092915050565b61253081612bb3565b82525050565b61253f81612bb3565b82525050565b600061255082612af9565b61255a8185612b40565b935061256a818560208601612c05565b61257381612d40565b840191505092915050565b600061258982612af9565b6125938185612b62565b93506125a3818560208601612c05565b80840191505092915050565b600081546125bc81612c38565b6125c68186612b62565b945060018216600081146125e157600181146125f257612625565b60ff19831686528186019350612625565b6125fb85612ace565b60005b8381101561261d578154818901526001820191506020810190506125fe565b838801955050505b50505092915050565b600061263b600e83612b51565b91507f57726f6e672050617373776f72640000000000000000000000000000000000006000830152602082019050919050565b600061267b601983612b51565b91507f546865206f776e6572206973206e6f74207468652073616d65000000000000006000830152602082019050919050565b60006126bb601483612b51565b91507f4163636f756e74206973206e6f7420666f756e640000000000000000000000006000830152602082019050919050565b600061016083016000830151848203600086015261270c8282612545565b915050602083015184820360208601526127268282612545565b915050604083015184820360408601526127408282612545565b9150506060830151848203606086015261275a8282612545565b915050608083015184820360808601526127748282612545565b91505060a083015161278960a0860182612445565b5060c083015161279c60c0860182612920565b5060e08301516127af60e086018261292f565b506101008301518482036101008601526127c98282612545565b9150506101208301516127e0610120860182612527565b506101408301518482036101408601526127fa8282612545565b9150508091505092915050565b60006101608301600083015184820360008601526128258282612545565b9150506020830151848203602086015261283f8282612545565b915050604083015184820360408601526128598282612545565b915050606083015184820360608601526128738282612545565b9150506080830151848203608086015261288d8282612545565b91505060a08301516128a260a0860182612445565b5060c08301516128b560c0860182612920565b5060e08301516128c860e086018261292f565b506101008301518482036101008601526128e28282612545565b9150506101208301516128f9610120860182612527565b506101408301518482036101408601526129138282612545565b9150508091505092915050565b61292981612bdf565b82525050565b61293881612be9565b82525050565b600061294a828461257e565b915081905092915050565b600061296182846125af565b915081905092915050565b600060208201905081810360008301526129868184612454565b905092915050565b600060208201905081810360008301526129a881846124b2565b905092915050565b60006020820190506129c56000830184612536565b92915050565b600060208201905081810360008301526129e48161262e565b9050919050565b60006020820190508181036000830152612a048161266e565b9050919050565b60006020820190508181036000830152612a24816126ae565b9050919050565b60006020820190508181036000830152612a458184612807565b905092915050565b6000604051905081810181811067ffffffffffffffff82111715612a7457612a73612d11565b5b8060405250919050565b600067ffffffffffffffff821115612a9957612a98612d11565b5b601f19601f8301169050602081019050919050565b6000819050602082019050919050565b6000819050602082019050919050565b60008190508160005260206000209050919050565b600081519050919050565b600081519050919050565b600081519050919050565b6000602082019050919050565b6000602082019050919050565b600082825260208201905092915050565b600082825260208201905092915050565b600082825260208201905092915050565b600082825260208201905092915050565b600081905092915050565b6000612b7882612bdf565b9150612b8383612bdf565b925082821015612b9657612b95612cb3565b5b828203905092915050565b6000612bac82612bbf565b9050919050565b60008115159050919050565b600073ffffffffffffffffffffffffffffffffffffffff82169050919050565b6000819050919050565b600060ff82169050919050565b82818337600083830152505050565b60005b83811015612c23578082015181840152602081019050612c08565b83811115612c32576000848401525b50505050565b60006002820490506001821680612c5057607f821691505b60208210811415612c6457612c63612ce2565b5b50919050565b6000612c7582612bdf565b91507fffffffffffffffffffffffffffffffffffffffffffffffffffffffffffffffff821415612ca857612ca7612cb3565b5b600182019050919050565b7f4e487b7100000000000000000000000000000000000000000000000000000000600052601160045260246000fd5b7f4e487b7100000000000000000000000000000000000000000000000000000000600052602260045260246000fd5b7f4e487b7100000000000000000000000000000000000000000000000000000000600052604160045260246000fd5b6000601f19601f8301169050919050565b612d5a81612ba1565b8114612d6557600080fd5b50565b612d7181612bdf565b8114612d7c57600080fd5b50565b612d8881612be9565b8114612d9357600080fd5b5056fea26469706673582212200d8fb22544ee69b0065815bca13cc37238357cdd49506e441848965946a14f2364736f6c63430008000033",
  "immutableReferences": {},
  "source": "//SPDX-License-Identifier: MIT\r\npragma solidity ^0.8.0;\r\n\r\ncontract Users{\r\n\r\n    struct UserLocked{\r\n        string firstName;\r\n        string lastName;\r\n        string email;\r\n        string username;\r\n        string password;\r\n        address account;\r\n        uint phoneNo;\r\n        uint8 age;\r\n        string role; //venue client or event \r\n        bool status; //verified or not\r\n        string idPhotoAddress;\r\n    }\r\n\r\n    mapping (address => UserLocked) private user;\r\n    address[] private userAccounts;\r\n\r\n//modifiers for users\r\n    modifier checkThePassword(string memory _password){\r\n        require(keccak256(abi.encodePacked(user[msg.sender].password))==keccak256(abi.encodePacked(_password)),\"Wrong Password\");\r\n        _;\r\n    }\r\n\r\n    modifier isAccountExist(address tempUserAccount){\r\n        require(!userAccountExistanceLocked(tempUserAccount),\"Account already exists\");\r\n        _;\r\n    }\r\n\r\n    modifier checkTheOwner(address _account){\r\n        require( _account==msg.sender ,\"The owner is not the same\");\r\n        _;\r\n    }\r\n\r\n    modifier isAccountAvailable(address tempUserAccount){\r\n        require(userAccountExistanceLocked(tempUserAccount),\"Account is not found\");\r\n        _;\r\n    }\r\n\r\n    modifier checkUserRole(string memory _role){\r\n        require(keccak256(abi.encodePacked(_role))==keccak256(abi.encodePacked(\"Client\"))||\r\n        keccak256(abi.encodePacked(_role))==keccak256(abi.encodePacked(\"Event\"))||\r\n        keccak256(abi.encodePacked(_role))==keccak256(abi.encodePacked(\"Venue\")),\"Wrong Role\");\r\n        _;\r\n    }\r\n    \r\n//returns all the users addresses\r\n    function userAccountListLocked() public view returns(address[] memory) {\r\n        return userAccounts;\r\n    }\r\n\r\n//check if the user address exists\r\n    function userAccountExistanceLocked(address tempUserAccount)\r\n    public view returns(bool){\r\n        for (uint256 i=0; i<userAccounts.length; i++){\r\n            if (tempUserAccount == userAccounts[i])\r\n            return true;\r\n        }\r\n        return false;\r\n    }\r\n\r\n// created a new user\r\n     function createUserLocked( \r\n        string memory _firstName,\r\n        string memory _lastName,\r\n        string memory _email,\r\n        string memory _username,\r\n        string memory _password,\r\n        uint _phoneNo,\r\n        uint8 _age,\r\n        string memory _role\r\n    ) public {\r\n        address _account= msg.sender;\r\n        user[_account]=UserLocked(\r\n        _firstName,\r\n        _lastName,\r\n        _email,\r\n        _username,\r\n        _password,\r\n        _account,\r\n        _phoneNo,\r\n        _age,\r\n        _role,\r\n        false,\r\n        \"\");\r\n        userAccounts.push(_account);\r\n    }\r\n\r\n//verify the user login\r\n    function verifyUser(\r\n        string memory _password\r\n        )public view returns(bool) {\r\n            if(keccak256(abi.encodePacked(user[msg.sender].password))==keccak256(abi.encodePacked(_password))){\r\n                return true;\r\n            }\r\n            else{\r\n                return false;\r\n            }\r\n        }\r\n\r\n    function verifyUser2(\r\n        string memory _password\r\n        )checkThePassword(_password) public view returns(UserLocked memory) {\r\n            return user[msg.sender];\r\n        }\r\n\r\n//this function will add the address us the users photo\r\n    function addUserIdPhotoLocked(\r\n        address _account, \r\n        string memory _idPhotoAddress\r\n        )isAccountAvailable(_account) public {\r\n            user[_account].idPhotoAddress=_idPhotoAddress;\r\n            user[_account].status=true;\r\n        }\r\n\r\n//return all information about a certain user\r\n    function getUserLocked(address tempAddress) public view  \r\n    isAccountAvailable(tempAddress) returns(UserLocked memory){ \r\n        return user[tempAddress]; \r\n    }\r\n\r\n//return all information about all users\r\n    function getAllUsersLocked() view public   \r\n    returns(UserLocked[] memory){\r\n        UserLocked[] memory tempUsers = new UserLocked[](userAccounts.length);\r\n        for (uint256 i=0; i<userAccounts.length; i++){\r\n            tempUsers[i]= user[userAccounts[i]];\r\n        } \r\n        return tempUsers;\r\n    }\r\n\r\n//this function will update the user data\r\n    function updateUserLocked( \r\n        address _account,\r\n        string memory _firstName,\r\n        string memory _lastName,\r\n        string memory _email,\r\n        string memory _username,\r\n        string memory _password,\r\n        uint _phoneNo\r\n    ) isAccountAvailable(_account) public {\r\n        user[_account].firstName=_firstName;\r\n        user[_account].lastName=_lastName;\r\n        user[_account].email=_email;\r\n        user[_account].username=_username;\r\n        user[_account].password=_password;\r\n        user[_account].phoneNo=_phoneNo;\r\n    }    \r\n\r\n//This function will delete a user\r\n    function deleteUserLocked(address tempAddress) \r\n    isAccountAvailable(tempAddress) checkTheOwner(tempAddress) public {\r\n        delete user[tempAddress];             //check if the msg.sender is the address/////////////\r\n        for (uint256 i=0; i<userAccounts.length; i++){\r\n            if (tempAddress == userAccounts[i]){\r\n            userAccounts[i]=userAccounts[userAccounts.length-1];\r\n            userAccounts.pop();\r\n            break; \r\n            }\r\n        }\r\n    }\r\n}",
  "sourcePath": "C:\\Users\\hello\\Downloads\\Telegram Desktop\\test(12) - Copy (3)\\test(12) - Copy\\contracts\\User (3) (2).sol",
  "compiler": {
    "name": "solc",
    "version": "0.8.0+commit.c7dfd78e.Emscripten.clang"
  },
  "schemaVersion": "3.4.16",
  "updatedAt": "2024-04-22T06:17:19.779Z",
  "networkType": "ethereum",
  "devdoc": {
    "kind": "dev",
    "methods": {},
    "version": 1
  },
  "userdoc": {
    "kind": "user",
    "methods": {},
    "version": 1
  }
}